:020000040000FA
:100000000A128A11FC2F00308A000408840A820731
:100010000034013400340A34003464340034E834E9
:10002000033410342734413478343A3420342534BE
:10003000693420340034413479343A34203425345E
:1000400069342034003441347A343A34203425344D
:1000500069342034003454343A342034253469343B
:040060002034003414
:1005CA000A128A112B230A128A1183160313111491
:1005DA0008000A128A112B230A128A11831603139E
:1005EA00111508000A128A112B230A128A1183167E
:1005FA000313911408008316031391121116111A8A
:10060A00072B082B042B08008316031391161116C7
:10061A00111A102B112B0D2B0800F000831603134F
:10062A00981C182B192B132B70088312031399008B
:10063A0008002830831203139400831603139101D0
:10064A0094010930930087150716080083160313CF
:10065A001419302B312B2B2B11081F39031D362B64
:10066A00372B2B2B0800F0000A128A112B230A12AF
:10067A008A1170088312031393008C1D452B462B95
:10068A00422B8C110800F1000A128A112B230A123C
:10069A008A1183160313111471080A128A11382356
:1006AA000A128A110800F1000A128A112B230A126F
:1006BA008A11831603139115141C642B652B612B65
:1006CA00831203131308F0007008F2007108031D67
:1006DA006F2B702B762B0A128A1100230A128A11A9
:1006EA007B2B0A128A1109230A128A118312031315
:1006FA008C1D802B812B7B2B8C1172080800F50036
:10070A00F301F401F301F4019B2B73087507F2005E
:10071A007208840000080A128A1112230A128A1126
:10072A000130F3070318F40A0030F4077408803A1A
:10073A00F20080307202031DA42B710873020318A1
:10074A00A72BA82BB32B73087507F2007208840035
:10075A0083130008031DB22BB32B8A2B08007808D9
:10076A0079040319B92BBA2BE92BFD01FD0AC82B11
:10077A0001300310F80DF90DFF3E031DBE2B0130A9
:10078A00FC007C08FD07F91FCB2BCC2BBD2B79086D
:10079A007B02031DD22B78087A02031CD52BD62B99
:1007AA00DC2B7808FA027908031CFB03FB020130F0
:1007BA000310F90CF80CFF3E031DDD2B0130FD027E
:1007CA00031DE82BE92BCC2B7B08F9007A08F800EB
:1007DA000800F501F601700871040319F52BF62BD0
:1007EA002D2CF701F70A042C01300310F00DF10D3E
:1007FA00FF3E031DFA2B0130F4007408F707F11FBE
:10080A00072C082CF92B01300310F50DF60DFF3ECD
:10081A00031D092C71087302031D152C700872023E
:10082A00031C182C192C202C7008F2027108031CC6
:10083A00F303F302751401300310F10CF00CFF3EC0
:10084A00031D212C0130F702031D2C2C2D2C082C02
:10085A007608F1007508F00008000030FC0000304E
:10086A00FB000030FA000030F900730872047104CA
:10087A0070040319412C422C8F2CFD01FD0A522CC5
:10088A000130F8000310F00DF10DF20DF30DF80B25
:10089A00472C0130F8007808FD07F31F552C562C19
:1008AA00452C0130F8000310F90DFA0DFB0DFC0D73
:1008BA00F80B582C73087702031D6D2C7208760208
:1008CA00031D6D2C71087502031D6D2C70087402CE
:1008DA00031C702C712C802C7008F4027108031C04
:1008EA00710FF5027208031C720FF6027308031CDB
:1008FA00730FF702791401300310F30CF20CF10CA8
:10090A00F00CFF3E031D812C0130FD02031D8E2CCD
:10091A008F2C562C7C08F3007B08F2007A08F10031
:10092A007908F0000800831203132408031D9E2C83
:10093A009F2CCC2C2008A5002108A6002208A7007D
:10094A002308A80006300310A50DA60DA70DA80DB3
:10095A00FF3E031DA82C2808F3002708F2002608EA
:10096A00F1002508F0000030F7003D30F6000930AC
:10097A00F5000030F4000A128A1132240A128A1190
:10098A007008FF3E8316031399001811F82C2008EB
:10099A00A5002108A6002208A7002308A800043001
:1009AA000310A50DA60DA70DA80DFF3E031DD52CFE
:1009BA002808F3002708F2002608F1002508F000AD
:1009CA000030F7003D30F6000930F5000030F40041
:1009DA000A128A1132240A128A117008FF3E8316FB
:1009EA000313990018151813981618128312031373
:1009FA0098171813181618119810831603138717C7
:100A0A000713080083160317880183160313850149
:100A1A008312031385010A128A111E230A128A11EC
:100A2A00003083120313A3000030A2002530A10076
:100A3A008030A000A401A40A0A128A1198240A127A
:100A4A008A110A128A11AC250A128A114F300A1227
:100A5A008A1155260A128A118312031385090B304B
:100A6A00BF003F08A0005008A2004F08A100403074
:100A7A000A128A1114270A128A110F3083120313D9
:100A8A00BF003F08F10040300A128A1184230A127B
:100A9A008A11133083120313BF003F08A0005208C3
:100AAA00A2005108A10040300A128A1114270A1222
:100ABA008A110F3083120313BF003F08F100403040
:100ACA000A128A1184230A128A111B308312031311
:100ADA00BF003F08A0005408A2005308A1004030FC
:100AEA000A128A1114270A128A110F308312031369
:100AFA00BF003F08F10040300A128A1184230A120B
:100B0A008A11233083120313BF003F08A00056083E
:100B1A00A2005508A10040300A128A1114270A12AD
:100B2A008A110F3083120313BF003F08F1004030CF
:100B3A000A128A1184230A128A110A300A128A11A5
:100B4A0012230A128A112B2D0A128A1100280A125C
:100B5A008A11E5220A128A11D0300A128A11382320
:100B6A000A128A116B300A128A1138230A128A1160
:100B7A0001300A128A1138230A128A110A128A11BA
:100B8A00EE220A128A110A128A11E5220A128A111F
:100B9A00D0300A128A1138230A128A1119300A121D
:100BAA008A1138230A128A1107300A128A11382345
:100BBA000A128A110A128A11EE220A128A110A12DA
:100BCA008A11E5220A128A11D0300A128A113823B0
:100BDA000A128A111A300A128A1138230A128A1141
:100BEA0000300A128A1138230A128A110A128A114B
:100BFA00EE220A128A110A128A11E5220A128A11AF
:100C0A00D0300A128A1138230A128A111B300A12AA
:100C1A008A1138230A128A1100300A128A113823DB
:100C2A000A128A110A128A11EE220A128A110A1269
:100C3A008A11E5220A128A11D0300A128A1138233F
:100C4A000A128A111C300A128A1138230A128A11CE
:100C5A0000300A128A1138230A128A110A128A11DA
:100C6A00EE220A128A110A128A11E5220A128A113E
:100C7A0068300A128A1138230A128A116C300A1251
:100C8A008A1138230A128A1100300A128A1138236B
:100C9A000A128A110A128A11EE220A128A1108000D
:100CAA00D0300A128A1148230A128A1183160313B2
:100CBA00111B602E612E5B2E3B300A128A113823DB
:100CCA000A128A110A128A11F7220A128A11D130DB
:100CDA000A128A1138230A128A1183120313BD01D8
:100CEA00BE0100300A128A1158230A128A11F3002F
:100CFA00831203133D082F3E840073088313800078
:100D0A000130BD070318BE0A0030BE073E08803A0C
:100D1A00FF0080307F02031D942E0D303D02031C1C
:100D2A00972E982E762E01300A128A1158230A120B
:100D3A008A11F300730883120313BC000A128A1182
:100D4A00EE220A128A11831203133008F300F40107
:100D5A002F08F500F6017508F600F5017308750409
:100D6A00A10074087604A2003208F300F4013108E5
:100D7A00F500F6017508F600F50173087504A3007D
:100D8A0074087604A4003408F300F4013308F5006B
:100D9A00F6017508F600F50173087504A5007408D4
:100DAA007604A6003608F300F4013508F500F601CA
:100DBA007508F600F50173087504A700740876042F
:100DCA00A8003808F300F4013708F500F6017508A1
:100DDA00F600F50173087504A90074087604AA00E0
:100DEA003A08F300F4013908F500F6017508F6002F
:100DFA00F50173087504AB0074087604AC003C086E
:100E0A00F300F4013B08F500F6017508F600F50158
:100E1A0073087504AD0074087604AE0008008312E6
:100E2A000313AB002130A3002308A600E52F2530C9
:100E3A002C060319212F222F2E2F2C08A3002B0852
:100E4A0084002308831380000130A3002308AB0722
:100E5A00E52FA7010130A007FF30200784000A12FE
:100E6A008A1103200A128A11AC00A300A4012408E3
:100E7A00003A0319412FE52F2308003A0319F72FE7
:100E8A00643A03194C2F0D3A03194C2FE52F260803
:100E9A00840083130008A900840A0008AA0002300B
:100EAA00A3002308A607AA1F5B2F5C2F652F033018
:100EBA00A3002308A704A909AA09A90A0319AA0AC7
:100ECA00AC01AC0A2C08A3002307013E84000A12D5
:100EDA008A1103200A128A11A4000A128A11032015
:100EEA000A128A11A50025082A02031D7E2F24084A
:100EFA0029020318812F822F832F8D2F0130A300FF
:100F0A002308AC0705302C06031D8C2F8D2F672F65
:100F1A00270803390319922F932F9E2F2D30A300F0
:100F2A002B0884002308831380000130A3002308C0
:100F3A00AB072C08A3002308A800DC2F0A30F8000E
:100F4A000030F9002808A3002307013E84000A1292
:100F5A008A1103200A128A11F0000A128A11032048
:100F6A000A128A11F1002A08F3002908F2000A126B
:100F7A008A11EE230A128A117108FB007008FA001E
:100F8A000A128A11B4230A128A117808303E83128F
:100F9A000313A4002408AC002C08A3002B08840027
:100FAA002308831380000130A3002308AB07FF3016
:100FBA00A3002308A807280A031DE42FE52FA32F5F
:100FCA000130A007FF30200784000A128A1103208B
:100FDA000A128A11A3002308AC002C08031DF62F5D
:100FEA00F72F1C2F2B08840083138001080083012C
:060FFA000A128A11072D06
:04400E00D420FF3F7C
:00000001FF
