:020000040000FA
:060000000A128A110E280D
:10000800FE00030EF2000408F3000A08F4000A16C2
:100018008A11952A0A128A111128F70183120313EB
:10002800EE018313A0308400CF300A168A11E5212F
:100038000A128A1183010A168A113A2B83120313B2
:1000480031088039B6003608BB003108B6003607DB
:10005800B7003708C100B01F3228332834284114AC
:1000680041080319382839284828410A031D3D2822
:100078003E2846280030B1000030B0000030AF0004
:100088000030AE00B01750280030B1000030B0008A
:100098000030AF000030AE0035088039B6003608B1
:1000A800BB063508B6003607B7003708BC00B41FD2
:1000B8005E285F2860283C143C08031964286528DA
:1000C80074283C0A031D69286A2872280030B50084
:1000D8000030B4000030B3000030B200B4177C2800
:1000E8000030B5000030B4000030B3000030B2007A
:1000F8003C0803198028812886284108031D852883
:1001080086288F280030B1000030B0000030AF00E2
:100118000030AE00822B2E08B6003608A000340846
:100128000A168A11E3220A128A118312031321087C
:10013800C7002008C6004608B600B701B801B901D3
:100148003908C0003808BF003708BE003608BD00AF
:100158004708B600B701B801B9013908C500380821
:10016800C4003708C3003608C2002F08B600360896
:10017800A00033080A168A11E3220A128A11831290
:1001880003132108C7002008C6004608B600B701B7
:10019800B801B9013608BD07370803110318013E35
:1001A8000319D728BE07380803110318013E03199D
:1001B800DE28BF07390803110318013E0319E52893
:1001C800C0074708B600B701B801B9013608C20729
:1001D800370803110318013E0319F328C307380829
:1001E80003110318013E0319FA28C407390803113B
:1001F8000318013E03190129C5073008B60036085F
:10020800A00032080A168A11E3220A128A11831200
:1002180003132108C7002008C6004608B600B70126
:10022800B801B9013608BD07370803110318013EA4
:1002380003191F29BE07380803110318013E0319C3
:100248002629BF07390803110318013E03192D2970
:10025800C0074708B600B701B801B9013608C20798
:10026800370803110318013E03193B29C30738084F
:1002780003110318013E03194229C4073908031161
:100288000318013E03194929C5070830B6000310B1
:10029800BD0DBE0DBF0DC00DB60B4B292F08B60006
:1002A8003608A00032080A168A11E3220A128A11B7
:1002B800831203132108C7002008C6004608B600A9
:1002C8004708B700B801B9013608BD073708031158
:1002D8000318013E03197129BE07380803110318D2
:1002E800013E03197829BF07390803110318013E95
:1002F80003197F29C0072E08B6003608A000330866
:100308000A168A11E3220A128A118312031321089A
:10031800C7002008C6004608B6004708B700B8015D
:10032800B9013608BD07370803110318013E031940
:100338009E29BE07380803110318013E0319A52991
:10034800BF07390803110318013E0319AC29C00778
:100358000830B6000310BD0DBE0DBF0DC00DB60BA5
:10036800AE292E08B6003608A00032080A168A11EF
:10037800E3220A128A11831203132108C7002008F6
:10038800C6004608B6004708B700B801B9013608E4
:10039800BD07370803110318013E0319D429BE0706
:1003A800380803110318013E0319DB29BF07390870
:1003B80003110318013E0319E229C0072F08B600EC
:1003C8003608A00034080A168A11E3220A128A1194
:1003D800831203132108C7002008C6004608B60088
:1003E8004708B700B801B9013608C2073708031132
:1003F8000318013E0319012AC3073808031103181B
:10040800013E0319082AC407390803110318013EDD
:1004180003190F2AC5073008B6003608A0003308AC
:100428000A168A11E3220A128A1183120313210879
:10043800C7002008C6004608B6004708B700B8013C
:10044800B9013608C207370803110318013E03191A
:100458002E2AC307380803110318013E0319352A49
:10046800C407390803110318013E03193C2AC507BC
:100478003008B6003608A00034080A168A11E322AC
:100488000A128A11831203132108C7002008C60024
:100498004608B6004708B700B801B901083003108C
:1004A800B60DB70DB80DB90DFF3E031D532A36081A
:1004B800C207370803110318013E0319642AC3074A
:1004C800380803110318013E03196B2AC4073908B9
:1004D80003110318013E0319722AC5073D08B60027
:1004E8003E08B7003F08B8004008B90018300310AC
:1004F800B90CB80CB70CB60CFF3E031D7B2A3608A6
:10050800C207370803110318013E03198C2AC307D1
:10051800380803110318013E0319932AC407390840
:1005280003110318013E03199A2AC5070830B600BB
:100538000310BD0DBE0DBF0DC00DB60B9C2A4108A2
:100548003C07B600B701B70D3608823EC60037082B
:100558000318013EFF3EC700CE2A0130B600031043
:10056800C20DC30DC40DC50DB60BB32AC01FBD2ADD
:10057800BE2ABF2A42140130B6000310BD0DBE0DBD
:10058800BF0DC00DB60BC12AFF30C6070318C70A36
:10059800FF30C707C41FD12AD22AB12ABC01C01F05
:1005A800D62AD72AF32AFF303D05B600FF303E058C
:1005B800B700FF303F05B8007F304005B900390863
:1005C8003804370436040319EA2AEB2AEE2ABC0158
:1005D800BC0AF32A421CF12AF22AF32AEB2A3C0825
:1005E8000319F72AF82A292B0130C207003003180B
:1005F8000130C307003003180130C4070030031866
:100608000130C507451C092B0A2B292B4208B600C7
:100618004308B7004408B8004508B9000130BA00DB
:10062800390DB90CB80CB70CB60CBA0B142B390829
:10063800C5003808C4003708C3003608C2000130B6
:10064800C6070318C70A0030C7074708803AFF00E3
:1006580080307F02031D322BFF304602031C352BEE
:10066800362B412B7F3083120313C5008030C40022
:100678000030C3000030C200762B831203134708F2
:10068800803AFF0080307F02031D4C2B0130460268
:1006980003184F2B502B5C2B003083120313C5001B
:1006A8000030C4000030C3000030C200BB01762B0C
:1006B800831203134608B6003608C100FF30C2058E
:1006C800FF30C3057F30C4050030C505411C6D2BC4
:1006D8006E2B6F2BC4174108B6000310360CB700F9
:1006E8003708C5003B08B6003608C5044508B10000
:1006F8004408B0004308AF004208AE000800831663
:100708000313ED00D0300A168A115D220A128A11ED
:1007180083160313111B912B922B8C2B3B300A163B
:100728008A114D220A128A1183160313111B9D2B5D
:100738009E2B982B0A168A11FF210A128A11D13092
:100748000A168A114D220A128A1183160313EB0125
:10075800EC0100300A168A110C230A128A1183123E
:100768000313DC00831603136B08CF3E8400831247
:1007780003135C0883138000013083160313EB070F
:100788000318EC0A0030EC076C08803AFF00803050
:100798007F02031DD12B0D306B02031CD42BD52BEC
:1007A800AD2B01300A168A110C230A128A11831202
:1007B8000313DC005C0883160313DC000A168A1195
:1007C800F6210A128A1183160313500883120313A1
:1007D800DC00DD01831603134F0883120313DE00C8
:1007E800DF015E08DF00DE015C085E048316031388
:1007F800DD00831203135D085F0483160313DE0014
:10080800520883120313DC00DD0183160313510819
:1008180083120313DE00DF015E08DF00DE015C08DF
:100828005E0483160313DF00831203135D085F045D
:1008380083160313E000540883120313DC00DD0160
:1008480083160313530883120313DE00DF015E08C7
:10085800DF00DE015C085E0483160313E1008312E7
:1008680003135D085F0483160313E200560883121E
:100878000313DC00DD0183160313550883120313E9
:10088800DE00DF015E08DF00DE015C085E0483161F
:100898000313E300831203135D085F048316031335
:1008A800E400580883120313DC00DD0183160313E8
:1008B800570883120313DE00DF015E08DF00DE0144
:1008C8005C085E0483160313E500831203135D08B6
:1008D8005F0483160313E6005A0883120313DC002F
:1008E800DD0183160313590883120313DE00DF01A9
:1008F8005E08DF00DE015C085E0483160313E70070
:10090800831203135D085F0483160313E8005C0871
:1009180083120313DC00DD01831603135B088312C3
:100928000313DE00DF015E08DF00DE015C085E0401
:1009380083160313E900831203135D085F0483160B
:100948000313EA003A3083120313B1001C30B000DD
:10095800D030AF008630AE00831603135D088312D3
:100968000313A000831603135E0883120313A10068
:100978000030A11BFF30A200A30001300A168A1123
:10098800A8250A128A11831203132308B500220826
:10099800B4002108B3002008B2000A128A112220EC
:1009A8000A128A11831603136D0884008312031335
:1009B8002E0883138000840A2F088000840A3008D8
:1009C8008000840A310880003A30B1001C30B00041
:1009D800D030AF008630AE00831603135F08831251
:1009E8000313A00083160313600883120313A100E6
:1009F8000030A11BFF30A200A30001300A168A11A3
:100A0800A8250A128A11831203132308B5002208A5
:100A1800B4002108B3002008B2000A128A1122206B
:100A28000A128A11831603136D08043E8400831288
:100A380003132E0883138000840A2F088000840A79
:100A480030088000840A310880003A30B1001C3038
:100A5800B000D030AF008630AE00831603136108B3
:100A680083120313A000831603136208831203136F
:100A7800A1000030A11BFF30A200A30001300A161C
:100A88008A11A8250A128A11831203132308B500B4
:100A98002208B4002108B3002008B2000A128A1103
:100AA80022200A128A11831603136D08083E840057
:100AB800831203132E0883138000840A2F088000F2
:100AC800840A30088000840A310880004230CB0054
:100AD8001230CA001E30C900B830C8004330B10017
:100AE800AA30B0000030AF000030AE008316031308
:100AF800630883120313A000831603136408831288
:100B08000313A1000030A11BFF30A200A300013095
:100B18000A168A11A8250A128A11831203132308B8
:100B2800B5002208B4002108B3002008B2000A1258
:100B38008A154F210A128A11831203133108CF0034
:100B48003008CE002F08CD002E08CC000A128A15D6
:100B580078250A128A11831603136D080C3E840047
:100B680083120313480883138000840A490880000D
:100B7800840A4A088000840A4B0880003B30B10090
:100B8800FA30B0000530AF001430AE0083160313FE
:100B9800650883120313A0008316031366088312E3
:100BA8000313A1000030A11BFF30A200A3000130F5
:100BB8000A168A11A8250A128A1183120313230818
:100BC800B5002208B4002108B3002008B2000A12B8
:100BD8008A1122200A128A11831603136D08103E07
:100BE8008400831203132E0883138000840A2F08BD
:100BF8008000840A30088000840A310880003B3075
:100C0800B100FA30B0000530AF001430AE008316E2
:100C18000313670883120313A000831603136808DD
:100C280083120313A1000030A11BFF30A200A30010
:100C380001300A168A11A8250A128A118312031391
:100C48002308B5002208B4002108B3002008B20028
:100C58000A128A1122200A128A11831603136D08B8
:100C6800143E8400831203132E0883138000840A21
:100C78002F088000840A30088000840A3108800028
:100C88003B30B100FA30B0000530AF001430AE0090
:100C980083160313690883120313A0008316031332
:100CA8006A0883120313A1000030A11BFF30A200C1
:100CB800A30001300A168A11A8250A128A11831284
:100CC80003132308B5002208B4002108B300200844
:100CD800B2000A128A1122200A128A1183160313FB
:100CE8006D08183E8400831203132E0883138000B6
:100CF800840A2F088000840A30088000840A31089A
:100D080080000800BE3083120313EA006A088316C5
:100D18000313D700831203136708A3006608A20011
:100D28006508A1006408A0000030A7000030A600F4
:100D38000030A5000030A4000A168A1104250A1202
:100D48008A110318A82EA92ED52E2D30831203132D
:100D5800EA008316031357088400831203136A08F2
:100D6800831380000130EA006A0883160313D7074B
:100D7800831203136708A3006608A2006508A10090
:100D88006408A0000A168A1140220A128A118312E6
:100D980003132308E7002208E6002108E5002008DD
:100DA800E400831203136708CB006608CA006508CD
:100DB800C9006408C8000A128A1514200A128A1188
:100DC800831203134B0883160313D60083120313ED
:100DD8004A0883160313D5008312031349088316A0
:100DE8000313D40083120313480883160313D30094
:100DF800560883120313A30083160313550883129E
:100E08000313A20083160313540883120313A100CB
:100E180083160313530883120313A00000300A1625
:100E28008A11A8250A128A11831203132308DF00E6
:100E38002208DE002108DD002008DC006708E30046
:100E48006608E2006508E1006408E0000A168A11F5
:100E580071220A128A11831203135F08E7005E08E1
:100E6800E6005D08E5005C08E4006708B500660870
:100E7800B4006508B3006408B2004930B1007430AA
:100E8800B0002430AF000030AE000A128A112220D0
:100E98000A128A11831203133108CB003008CA00E2
:100EA8002F08C9002E08C8000A128A1514200A1231
:100EB8008A11831203134B0883160313D20083127B
:100EC80003134A0883160313D10083120313490836
:100ED80083160313D00083120313480883160313E1
:100EE800CF00293083120313EA006A08B70083167B
:100EF8000313560883120313BB0083160313550804
:100F080083120313BA0083160313540883120313BE
:100F1800B90083160313530883120313B80083160A
:100F28000313520883120313BF00831603135108D7
:100F380083120313BE00831603135008831203138E
:100F4800BD00831603134F0883120313BC008316D6
:100F5800031357080A128A152C230A128A11BE3065
:100F68000800FF1BBF2F83137F1883170008840A0C
:100F78000319FF0A080007308A000408840A820758
:100F8800003401340034003400340A3400340034AE
:100F980000346434003400340034E834033400345A
:100FA80000341034273400340034A034863401343B
:100FB8000034403442340F3400348034963498344A
:100FC80000340034E134F53405340034CA349A343A
:100FD8003B3425346C3475342E34253436342E3471
:0C0FE80036346C3475340034203400348E
:1010000083120313A100A0013A302102031809281A
:101010000A28122830302102031C0F281028122819
:10102000A001A00A200C08000310831203134A0D2C
:101030004B0DCC004C08D2005208031D202821285B
:101040002A280030CB000030CA000030C900003030
:10105000C8008F284808CC004908CD004A08CE00B7
:101060004B08CF001F300310CF0CCE0CCD0CCC0C96
:10107000FF3E031D33284C08D0005008D100CA178A
:10108000FF30C805FF30C905FF30CA050030CB0569
:101090009630D202D21F4D284E2868285208803A36
:1010A000973E03185428552856282128013003104C
:1010B000CB0CCA0CC90CC80CFF3E031D57280130CD
:1010C000CC004C08D207031D6628672856287F28C5
:1010D00020305202031C6D286E287A282128013006
:1010E000CC000310C80DC90DCA0DCB0DCC0B712857
:1010F0000130D2025208031D7E287F286F28510834
:101100000319832884288F28C809C909CA09CB096B
:10111000C80A0319C90A0319CA0A0319CB0A080025
:101120000A168A11ED210A128A15D0300A168A1180
:101130004D220A128A156B300A168A114D220A12A4
:101140008A1501300A168A114D220A128A150A16CA
:101150008A11F6210A128A150A168A11ED210A123D
:101160008A15D0300A168A114D220A128A150030CB
:101170000A168A114D220A128A150A168A11F621B8
:101180000A128A150A168A11ED210A128A15D03020
:101190000A168A114D220A128A1519300A168A1166
:1011A0004D220A128A1508300A168A114D220A1297
:1011B0008A150A168A11F6210A128A150A168A1148
:1011C000ED210A128A15D0300A168A114D220A1210
:1011D0008A151A300A168A114D220A128A15003011
:1011E0000A168A114D220A128A150A168A11F62148
:1011F0000A128A150A168A11ED210A128A15D030B0
:101200000A168A114D220A128A151B300A168A11F3
:101210004D220A128A1500300A168A114D220A122E
:101220008A150A168A11F6210A128A150A168A11D7
:10123000ED210A128A15D0300A168A114D220A129F
:101240008A151C300A168A114D220A128A1500309E
:101250000A168A114D220A128A150A168A11F621D7
:101260000A128A150A168A11ED210A128A156830A7
:101270000A168A114D220A128A156C300A168A1132
:101280004D220A128A1500300A168A114D220A12BE
:101290008A150A168A11F6210A128A150800831285
:1012A000031335088039B6003608BF003508B6008C
:1012B0003607B7003708C600B41F5F2960296129C7
:1012C000461446080319652966297629460A031D2E
:1012D0006A296B2973290030B5000030B400003052
:1012E000B3000030B200B417B5017E290030B5005C
:1012F0000030B4000030B3000030B2003108803953
:10130000B6003608BF063108B6003607B700370802
:10131000C700B01F8C298D298E294714470803194F
:1013200092299329A329470A031D97299829A029BF
:101330000030B1000030B0000030AF000030AE002F
:10134000B017B101AB290030B1000030B00000305F
:10135000AF000030AE00310830042F042E04031D0E
:10136000B229B329CC290030B5000030B4000030D8
:10137000B3000030B2008030B4047F30B5043F08C1
:10138000B6003608B5043508B1003408B00033089B
:10139000AF003208AE002B2B4608031DD029D129FF
:1013A000DA290030B1000030B0000030AF0000306A
:1013B000AE002B2B4608B600B7013708B900470826
:1013C0003602B800031CB90338087F3EC000390854
:1013D0000318013E003EC1003508BE003408BD00C0
:1013E0003308BC003208BB000030B5000030B40048
:1013F0000030B3000030B2000030C5000030C4003F
:101400000030C3000030C200C701502A470803194A
:101410000A2A0B2A2B2A0130B6000310BB0DBC0D83
:10142000BD0DBE0DB60B0D2A0130B6000310B20D76
:10143000B30DB40DB50DB60B162AC51F202A212AEF
:10144000222A32140130B6000310C20DC30DC40DA0
:10145000C50DB60B242A31083E02031D392A300877
:101460003D02031D392A2F083C02031D392A2E088C
:101470003B02031C3C2A3D2A4C2A45172E08BB027E
:101480002F08031C2F0FBC023008031C300FBD02B5
:101490003108031C310FBE020130B6003608C70701
:1014A0001A304702031C552A562A062A3E083D04D4
:1014B0003C043B0403195D2A5E2A7D2A42147D2ADE
:1014C0000130B6000310B20DB30DB40DB50DB60B5F
:1014D000622AC51F6C2A6D2A6E2A32140130B600AA
:1014E0000310C20DC30DC40DC50DB60B702AFF301D
:1014F000C0070318C10AFF30C107B41F802A812A20
:10150000602AC701C51F852A862AA22AFF30420504
:10151000B600FF304305B700FF304405B8007F3008
:101520004505B90039083804370436040319992AE7
:101530009A2A9D2AC701C70AA22A321CA02AA12AD8
:10154000A22A9A2A47080319A62AA72AD82A0130CC
:10155000B207003003180130B30700300318013020
:10156000B407003003180130B507351CB82AB92A72
:10157000D82A3208B6003308B7003408B800350856
:10158000B9000130BA00390DB90CB80CB70CB60C63
:10159000BA0BC32A3908B5003808B4003708B300BD
:1015A0003608B2000130C0070318C10A0030C10775
:1015B0004108803AFF0080307F02031DE12AFF309E
:1015C0004002031CE42AE52AF32AFF3083120313A6
:1015D000C0000030C1000030B5000030B400003061
:1015E000B3000030B200831203134108803AFF00B9
:1015F00080307F02031DFE2A013040020318012BB8
:10160000022B0F2B83120313C001C1010030B50060
:101610000030B4000030B3000030B200BF018312CC
:1016200003134008B6003608C600461C182B192BB9
:101630001B2BB4171F2B7F30B6003608B4054608A5
:10164000B6000310360CB7003708B5003F08B600E7
:101650003608B504C329080083120313CB003830C1
:10166000C0004008C600612D253050060319392BF3
:101670003A2B462B5008C0004B08840040088313C7
:1016800080000130C0004008CB07612DCC01CD01A6
:10169000C501370884000A128A11BF270A128A1569
:1016A0000A128A1500200A128A15031C582B592B7E
:1016B000992B83120313CC01CD010A30831203133B
:1016C000A0000030A1004D08A3004C08A2000A169B
:1016D0008A11BC220A128A15831203132108CD0035
:1016E0002008CC00370884000A128A11BF270A128A
:1016F0008A15D03EC000FF3003180030C1004008FA
:10170000CC070318CD0A4108CD070130C0004008BE
:10171000B707370884000A128A11BF270A128A15F0
:101720000A128A1500200A128A150318982B992B81
:101730005D2B83120313370884000A128A11BF2716
:101740000A128A152E3A031DA62BA72BEB2B01306C
:10175000C0004008B707CE01CF01DA2B0A30831250
:101760000313A0000030A1004F08A3004E08A20000
:101770000A168A11BC220A128A1583120313210841
:10178000CF002008CE00370884000A128A11BF2734
:101790000A128A15D03EC000FF3003180030C10085
:1017A0004008CE070318CF0A4108CF070130C00018
:1017B0004008B707370884000A128A11BF270A12A7
:1017C0008A150A128A1500200A128A150318E92BB5
:1017D000EA2BAE2BF52BCE01CF01F52B4516F52BC1
:1017E000C030C0004008C504142C0130831203131C
:1017F000B707FF30370784000A128A11BF270A1281
:101800008A15D000C000C1014108003A0319092C13
:10181000612D4008003A0319732D6C3A0319EE2B21
:10182000193A0319F02B612D451E172C182C2B2C5F
:101830004608840083130008C700840A0008C80013
:10184000840A0008C900840A0008CA000430C000E5
:101850004008C6073D2C4608840083130008C000DA
:10186000840A0008C1004008C7004108C800C90137
:10187000CA010230C0004008C6074E084F04031DCD
:10188000422C432C512C4A08490448044704031DA8
:101890004A2C4B2C512C0130CE070318CF0A0030B4
:1018A000CF07D001D00A5008C00001300310C00D8E
:1018B000FF3E031D562C0310400D013E84000A120A
:1018C0008A11BF270A128A15C1000A128A11BF277E
:1018D0000A128A15C2000A128A11BF270A128A1533
:1018E000C3000A128A11BF270A128A15C4004408CD
:1018F0004A02031D852C43084902031D852C42081A
:101900004802031D852C410847020318882C892CA6
:101910008A2C942C0130C0004008D0070A305006B1
:10192000031D932C942C532C4F08803A803C031DAC
:101930009B2C4E08500203189E2C9F2CA62C831221
:1019400003134E08C0004008D000BE2C83120313BE
:101950004F08803AC00080304002031DB12C50086F
:101960004E020318B42CB52CBE2C8312031350085E
:10197000C000C1014008CE004108CF00831203130C
:101980004D08803A803C031DC72C4C0850020318B8
:10199000CA2CCB2CD72C831203135008C000C101D2
:1019A0004008CC024108031CCD03CD02DB2C83127E
:1019B0000313CC01CD014C084D040319E02CE12C9C
:1019C000532D2030C0004B08840040088313800052
:1019D0000130C0004008CB07FF30CC070318CD0A08
:1019E000FF30CD074C084D04031DF72CF82CE12CDB
:1019F000532D0030B0000030AF000030AE000A3090
:101A0000AD004E08C00001300310C00DFF3E031DA5
:101A1000042D0310400D013E84000A128A11BF27D5
:101A20000A128A15A0000A128A11BF270A128A1503
:101A3000A1000A128A11BF270A128A15A2000A12EF
:101A40008A11BF270A128A15A3004A08A70049086D
:101A5000A6004808A5004708A4000A168A112924F0
:101A60000A128A15831203132308B4002208B30054
:101A70002108B2002008B1000A168A117C230A123C
:101A80008A15831203132D08303EC1004108D0008F
:101A90005008C0004B0884004008831380000130C8
:101AA000C0004008CB07FF30CE070318CF0AFF3035
:101AB000CF074E0A031D602D4F0A031D602D612DB7
:101AC000F92C0130B707FF30370784000A128A115A
:101AD000BF270A128A15C0004008D0005008031D15
:101AE000722D732D342B4B08840083138001080062
:101AF000831203134B088039D0005008D8004B08DC
:101B0000D0005007D1005108DA00CA1F882D892D56
:101B10008A2D5A145A0803198E2D8F2D9F2D5A0A7B
:101B2000031D932D942D9C2D0030CB000030CA0056
:101B30000030C9000030C800CA17CB01A72D003003
:101B4000CB000030CA000030C9000030C8004F0888
:101B50008039D0005008D900590858060319B12D12
:101B6000B22DB32D58174F08D0005007D10051089F
:101B7000D900CE1FBC2DBD2DBE2D591459080319F7
:101B8000C22DC32DD32D590A031DC72DC82DD02D0D
:101B90000030CF000030CE000030CD000030CC004F
:101BA000CE17CF01DB2D0030CF000030CE0000304B
:101BB000CD000030CC005A0859020318E02DE12D69
:101BC000252E581FE42DE52DE92D8030D00050083A
:101BD000D8065A08D0005008DB005908D000500839
:101BE000DA005B08D0005008D9004808D00050083F
:101BF000DB004C08D0005008C8005B08D00050083B
:101C0000CC004908D0005008DB004D08D000500837
:101C1000C9005B08D0005008CD004A08D000500829
:101C2000DB004E08D0005008CA005B08D000500806
:101C3000CE004B08D0005008DB004F08D000500801
:101C4000CB005B08D0005008CF00DB015908D00062
:101C5000D1015108D3005A085002D200031CD3030B
:101C60005308803AFF0080307F02031D392E1A305E
:101C70005202031C3C2E3D2E7A2E831203134B0876
:101C80004A0449044804031D462E482E0130492EBB
:101C90000030D0005008DB000030CB000030CA001C
:101CA0000030C9000030C8005908D0005008DA00E0
:101CB000822E5B1C5C2E5D2E662E5B08D00003100E
:101CC000500C0138D1005108DB00682E0310DB0CEA
:101CD000481C6B2E6C2E6D2EDB170130D0004B0D87
:101CE000CB0CCA0CC90CC80CD00B6F2E0130D00025
:101CF0005008DA078312031359085A02031C812E75
:101D0000822E592E581B852E862ED12E5A08031D41
:101D10008A2E8B2E942E0030CB000030CA0000306B
:101D2000C9000030C800FF2F4C08C8074D08031138
:101D30000318013E03199D2EC9074E08031103180D
:101D4000013E0319A42ECA074F0803110318013ED0
:101D50000319AB2ECB074B1CAE2EAF2E852F5B1C71
:101D6000B22EB32EBC2E5B08D0000310500C0138ED
:101D7000D1005108DB00BE2E0310DB0C481CC12E25
:101D8000C22EC32EDB170130D0004B0DCB0CCA0C7A
:101D9000C90CC80CD00BC52E0130D0005008DA0792
:101DA000852F4B08803AFF004F08803A7F02031DC1
:101DB000E32E4E084A02031DE32E4D084902031D7F
:101DC000E32E4C0848020318E62EE72E3F2FFF3083
:101DD000D000FF30D100FF30D200FF30D3004C08DC
:101DE000D4004D08D5004E08D6004F08D70048084B
:101DF000D4024908031C490FFE2EFF2ED5024A08C3
:101E0000031C4A0F042F052FD6024B08031C4B0F4F
:101E10000A2F0B2FD7025408D00755080318550F67
:101E2000122F132FD10756080318560F182F192FEA
:101E3000D20757080318570AD3075308CB00520894
:101E4000CA005108C9005008C8008030D0005008AE
:101E5000D806DB09DB0A5B08031D2F2F302F4D2F1F
:101E60000130C807003003180130C90700300318DB
:101E70000130CA07003003180130CB074D2F4C0842
:101E8000C8024D08031C4D0FC9024E08031C4E0F1B
:101E9000CA024F08031C4F0FCB024B084A044904E7
:101EA0004804031D542F552F812F5B08031D592F04
:101EB0005A2F812F0030CB000030CA000030C900FB
:101EC0000030C800FF2F0130D0000310C80DC90D2D
:101ED000CA0DCB0DD00B652FDB1F6F2F702F712F0D
:101EE00048145B1C742F752F782F0314DB0D7A2F89
:101EF0000310DB0D5A0803197E2F7F2F812F01302D
:101F0000DA02CA1F842F852F632FD901DB1F892F87
:101F10008A2F982F5B087F3903198F2F902F932FCB
:101F2000D901D90A982F481C962F972F982F902FB8
:101F3000590803199C2F9D2FD12F0130C80700305D
:101F400003180130C907003003180130CA070030F8
:101F500003180130CB074B1CAE2FAF2FD12F4808F1
:101F6000D0004908D1004A08D2004B08D300013004
:101F7000D400530DD30CD20CD10CD00CD40BB92FF0
:101F80005308CB005208CA005108C9005008C800C5
:101F90005A0A0319CC2FCD2FD12F0130D000500871
:101FA000DA075A0A0319D52FD62FDB2F5A08031D3B
:101FB000DA2FDB2FE92F0030CB000030CA000030D1
:101FC000C9000030C8005A08031DE72FE82FE92F89
:101FD000D8015A1CEC2FED2FEF2FCA17F32F7F30AB
:101FE000D0005008CA055A08D0000310500CD10088
:101FF0005108CB00D81FFD2FFE2FFF2FCB17080055
:1023CA0064008001840A0406031900340406E6291D
:1023DA000A168A1133220A168A1183160313111454
:1023EA0008000A168A1133220A168A118316031361
:1023FA00111508000A168A1133220A168A11831641
:10240A000313911408008316031391121116111A5B
:10241A000F2A102A0C2A0800831603139116111684
:10242A00111A182A192A152A0800F6008316031306
:10243A00981C202A212A1B2A760883120313990042
:10244A0008002830831203139400831603139101A2
:10245A0094010930930087150716080083160313A1
:10246A001419382A392A332A11081F39031D3E2A1A
:10247A003F2A332A08008312031323082204210463
:10248A0020040319492A4A2A4C2A8030A306080044
:10249A00F6000A168A1133220A168A11760883125E
:1024AA00031393008C1D5A2A5B2A572A8C110800A1
:1024BA0083120313A0000A168A1133220A168A11FC
:1024CA008316031311148312031320080A168A11A0
:1024DA004D220A168A110800803083120313DF0680
:1024EA006308CB006208CA006108C9006008C80016
:1024FA005F08CF005E08CE005D08CD005C08CC0006
:10250A000A128A1578250A168A11831203134B08B0
:10251A00DF004A08DE004908DD004808DC00080040
:10252A00831203138C1E9A2A9B2AB32A1A08F000D4
:10253A007008F500A62A77080138F0007008F7003D
:10254A00B32A7508F000F1017108003A0319AE2A9E
:10255A00B32A7008473A0319A02AB32A74088A00D2
:10256A0073088400720E8300FE0E7E0E0900831229
:10257A000313A401A501201CC32AC42ACA2A2208BB
:10258A00A4070318A50A2308A50701300310A20D02
:10259A00A30DFF3E031DCB2A01300310A10CA00C92
:1025AA00FF3E031DD22A20082104031DDD2ADE2A4C
:1025BA00C02A2508A1002408A000080083120313DA
:1025CA00A800A401A5012008A200A3012208A600D0
:1025DA002308A700281CF22AF32AF92A2608A407A6
:1025EA000318A50A2708A50701300310A60DA70D91
:1025FA00FF3E031DFA2A0310A80C2808031D062B08
:10260A00072BEF2A2508A1002408A000080083123E
:10261A000313A0000A168A1133220A168A11831696
:10262A0003139115141C1A2B1B2B172B831203133C
:10263A001308F6007608A1002008031D252B262B77
:10264A002C2B0A168A1108220A168A11312B0A160D
:10265A008A1111220A168A11831203138C1D362B32
:10266A00372B312B8C112108080082308312031377
:10267A00ED00DD30EC00EC0B402BED0B402B83160C
:10268A000317880183160313850183120313850137
:10269A000A168A1126220A168A1100308312031397
:1026AA00B0000030AF004B30AE000030AD00B101D9
:1026BA00B10A0A168A1191240A168A110A128A156F
:1026CA0090200A168A118B170B17831603138C1680
:1026DA00A2300A128A1183230A168A110A168A114B
:1026EA0064260A168A116D2B0A128A110E28831281
:1026FA00031330082F042E042D040319852B862B6F
:10270A00C92BB601B60A962B0130B5000310AD0DE0
:10271A00AE0DAF0DB00DB50B8B2B0130B5003508E2
:10272A00B607B01F992B9A2B892B30083402031D48
:10273A00A82B2F083302031DA82B2E083202031DD3
:10274A00A82B2D083102031CAB2BAC2BBA2B2D085E
:10275A00B1022E08031C2E0FB2022F08031C2F0FE2
:10276A00B3023008031C300FB40201300310B00C5E
:10277A00AF0CAE0CAD0CFF3E031DBB2B0130B602F5
:10278A00031DC82BC92B9A2B3408B0003308AF009D
:10279A003208AE003108AD00080083120313A60107
:1027AA00A701A601A701FD2B26082007A4002108DE
:1027BA00A3000318A30AA61FE32BA3038312031380
:1027CA002308A5002508FF00240884000A128A119C
:1027DA00B5270A168A110A168A111A220A168A11A6
:1027EA00013083120313A6070318A70A0030A707AC
:1027FA002708803AA30080302302031D062C2208F2
:10280A0026020318092C0A2C282C831203132608E3
:10281A002007A4002108A3000318A30AA61F162C48
:10282A00A303831203132308A5002508FF00240825
:10283A0084000A128A11B5270A168A11003A031D62
:10284A00272C282CD92B0800003083120313AB0045
:10285A000030AA000030A9000030A8002308220492
:10286A002104200403193A2C3B2C882CAC01AC0A15
:10287A004B2C0130F6000310A00DA10DA20DA30DE3
:10288A00F60B402C0130F6007608AC07A31F4E2C3D
:10289A004F2C3E2C0130F6000310A80DA90DAA0DED
:1028AA00AB0DF60B512C23082702031D662C2208B8
:1028BA002602031D662C21082502031D662C20080A
:1028CA002402031C692C6A2C792C2008A4022108F2
:1028DA00031C210FA5022208031C220FA6022308AB
:1028EA00031C230FA702281401300310A30CA20C07
:1028FA00A10CA00CFF3E031D7A2C0130AC02031D73
:10290A00872C882C4F2C2B08A3002A08A200290800
:10291A00A1002808A0000800831203133108031D30
:10292A00972C982CC72C2D08B2002E08B3002F081C
:10293A00B4003008B50006300310B20DB30DB40D63
:10294A00B50DFF3E031DA12C3508A3003408A200D3
:10295A003308A1003208A0000030A7003D30A600CD
:10296A000930A5000030A4000A168A1129240A1683
:10297A008A11831203132008FF3E8316031399005A
:10298A001811F52C2D08B2002E08B3002F08B40038
:10299A003008B50004300310B20DB30DB40DB50DF7
:1029AA00FF3E031DD02C3508A3003408A2003308CB
:1029BA00A1003208A0000030A7003D30A60009306F
:1029CA00A5000030A4000A168A1129240A168A11C1
:1029DA00831203132008FF3E831603139900181568
:1029EA001813981618128312031398171813181627
:1029FA00181198108316031387170713080000305D
:102A0A00831203132005A80000302105A900803095
:102A1A002205AA007F302305AB002B082A042904CB
:102A2A002804031D192D1A2D222D0030A300003071
:102A3A00A2000030A1000030A00000302405A80048
:102A4A0000302505A90080302605AA007F30270519
:102A5A00AB002B082A0429042804031D352D362D22
:102A6A003E2D0030A7000030A6000030A50000303F
:102A7A00A400A31F412D422D662D0030A80000306E
:102A8A00A9000030AA008030AB002008A802210863
:102A9A00031C210F512D522DA9022208031C220FBB
:102AAA00572D582DAA022308031C230F5D2D5E2DD6
:102ABA00AB022B08A3002A08A2002908A1002808B3
:102ACA00A000A71F692D6A2D8E2D0030A8000030A6
:102ADA00A9000030AA008030AB002408A80225080B
:102AEA00031C250F792D7A2DA9022608031C260F0F
:102AFA007F2D802DAA022708031C270F852D862DDE
:102B0A00AB022B08A7002A08A6002908A500280856
:102B1A00A4008030A3068030A70627082302031DDD
:102B2A00A02D26082202031DA02D25082102031D1F
:102B3A00A02D240820020318A32DA42DA62D0310CE
:102B4A00A72D0314080083120313A80028080319E9
:102B5A00AF2DB02DC42DA31FB32DB42DC42D200924
:102B6A00AA002109AB002209AC002309AD00AA0A78
:102B7A000319AB0A0319AC0A0319AD0ACC2D2308B1
:102B8A00AD002208AC002108AB002008AA002308E7
:102B9A00220421042004031DD32DD42DDD2D003061
:102BAA00A3000030A2000030A1000030A000632E74
:102BBA009630A4002408A900EF2D0130A4002408AF
:102BCA00A90701300310AD0CAC0CAB0CAA0CFF3EEC
:102BDA00031DE72DFE302D05031DF42DF52DE22DE5
:102BEA00112E0130A4002408A9070130AA070030D9
:102BFA0003180130AB07003003180130AC0700306E
:102C0A0003180130AD0701300310AD0CAC0CAB0C4E
:102C1A00AA0CFF3E031D092EFF302D05031D162E9B
:102C2A00172EF62D232E0130A9020130A40003101D
:102C3A00AA0DAB0DAC0DAD0DA40B1C2EAC1B262E94
:102C4A00272E2D2E0230290203182C2E2D2E182E57
:102C5A002918302E312E392EFF30AA05FF30AB0548
:102C6A007F30AC05FF30AD050310A90C2908A4007C
:102C7A00A501A601A70118300310A40DA50DA60DE4
:102C8A00A70DFF3E031D412E2408AA042508AB0404
:102C9A002608AC042708AD0428080319552E562E19
:102CAA005B2EA31F592E5A2E5B2EAD172D08A3009B
:102CBA002C08A2002B08A1002A08A00008008316ED
:102CCA000313250883120313E7008316031324084A
:102CDA0083120313E60083160313230883120313D4
:102CEA00E50083160313220883120313E40000305D
:102CFA00E8000030E9000A128A1186260A168A11AB
:102D0A0083120313EB006B08EE006E08A00000307C
:102D1A00A1000630EB006B08A2000A168A11D22322
:102D2A000A168A110430A23E840083130008831213
:102D3A000313E400840A0008E500840A0008E60098
:102D4A00840A0008E7000030E8000030E9000A12AF
:102D5A008A1186260A168A1183120313EB006B085E
:102D6A00EE003430A0008030A1000A30EB006B087E
:102D7A00A2000A168A11D2230A168A118312031391
:102D8A006E08A0000030A1000630EB006B08A2001C
:102D9A000A168A11D2230A168A110830A23E840022
:102DAA008313000883120313E400840A0008E50071
:102DBA00840A0008E600840A0008E7000030E800F8
:102DCA000030E9000A128A1186260A168A1183122D
:102DDA000313EB006B08EE003430A0008030A10032
:102DEA000A30EB006B08A2000A168A11D2230A16CF
:102DFA008A11831203136E08A0000030A100063066
:102E0A00EB006B08A2000A168A11D2230A168A114D
:102E1A000C30A23E84008313000883120313E400DB
:102E2A00840A0008E500840A0008E600840A00080B
:102E3A00E7000030E8000030E9000A128A1186260D
:102E4A000A168A1183120313EB006B08EE00343062
:102E5A00A0008030A1000A30EB006B08A2000A161D
:102E6A008A11D2230A168A11831203136E08A0004C
:102E7A000030A1000630EB006B08A2000A168A1186
:102E8A00D2230A168A111030A23E84008313000846
:102E9A0083120313E400840A0008E500840A000888
:102EAA00E600840A0008E7000030E8000030E90084
:102EBA000A128A1186260A168A1183120313EB0054
:102ECA006B08EE003430A0008030A1000A30EB001D
:102EDA006B08A2000A168A11D2230A168A118312D3
:102EEA0003136E08A0000030A1000630EB006B0847
:102EFA00A2000A168A11D2230A168A111430A23E97
:102F0A0084008313000883120313E400840A000870
:102F1A00E500840A0008E600840A0008E700003099
:102F2A00E8000030E9000A128A1186260A168A1178
:102F3A0083120313EB006B08EE003430A0008030DC
:102F4A00A1000A30EB006B08A2000A168A11D223EC
:102F5A000A168A11831203136E08A0000030A1001A
:102F6A000630EB006B08A2000A168A11D2230A1651
:102F7A008A111830A23E84008313000883120313B7
:102F8A00E400840A0008E500840A0008E600840ACE
:102F9A000008E7000030E8000030E9000A128A1150
:102FAA0086260A168A1183120313EB006B08EE00B9
:102FBA003430A0008030A1000A30EB006B08A20078
:102FCA000A168A11D2230A168A11831203136E086B
:102FDA00A0000030A1000630EB006B08A2000A1620
:102FEA008A11D2230A168A110A300A168A111A225B
:062FFA000A168A1108000E
:04400E00D420FF3F7C
:00000001FF
