:020000040000FA
:100000000A128A11FC2F00308A000408840A820731
:100010000034013400340A34003464340034E834E9
:10002000033410342734543465346D3470343A3426
:1000300020342534693420340034413478343A345F
:1000400020342534693420340034413479343A344E
:100050002034253469342034003441347A343A343D
:0A00600020342534693420340034C4
:100584000A128A1108230A128A118316031391147A
:1005940008008316031391121116111AD22AD32AB2
:1005A400CF2A08008316031391161116111ADB2A99
:1005B400DC2AD82A08000A128A1108230A128A118E
:1005C40083160313111408000A128A1108230A124D
:1005D4008A118316031311150800F0008316031300
:1005E400981CF52AF62AF02A70088312031399003E
:1005F4000800283083120313940083160313910117
:100604009401093093008715071608008316031315
:1006140014190D2B0E2B082B11081F39031D132B36
:10062400142B082B0800F0000A128A1108230A125E
:100634008A1170088312031393008C1D222B232B21
:100644001F2B8C110800F1000A128A1108230A12C8
:100654008A1183160313111471080A128A111523BF
:100664000A128A110800F1000A128A1108230A12D8
:100674008A11831603139115141C412B422B3E2B14
:10068400831203131308F0007008F2007108031DAD
:100694004C2B4D2B532B0A128A11CB220A128A118E
:1006A400582B0A128A11D4220A128A1183120313B4
:1006B4008C1D5D2B5E2B582B8C1172080800F500E5
:1006C400F301F401F301F401782B73087507F200C8
:1006D4007208840000080A128A11EF220A128A1191
:1006E4000130F3070318F40A0030F4077408803A61
:1006F400F20080307202031D812B7108730203180B
:10070400842B852B902B73087507F20072088400E4
:1007140083130008031D8F2B902B672B0800780888
:1007240079040319962B972BC62BFD01FD0AA52BE3
:1007340001300310F80DF90DFF3E031D9B2B013012
:10074400FC007C08FD07F91FA82BA92B9A2B79081C
:100754007B02031DAF2B78087A02031CB22BB32B48
:10076400B92B7808FA027908031CFB03FB02013059
:100774000310F90CF80CFF3E031DBA2B0130FD02E7
:10078400031DC52BC62BA92B7B08F9007A08F8009A
:100794000800F501F601700871040319D22BD32B5C
:1007A4000A2CF701F70AE12B01300310F00DF10DCB
:1007B400FF3E031DD72B0130F4007408F707F11F27
:1007C400E42BE52BD62B01300310F50DF60DFF3E7F
:1007D400031DE62B71087302031DF22B70087202CD
:1007E400031CF52BF62BFD2B7008F2027108031C79
:1007F400F303F302751401300310F10CF00CFF3E07
:10080400031DFE2B0130F702031D092C0A2CE52BD6
:100814007608F1007508F00008000030FC00003094
:10082400FB000030FA000030F90073087204710410
:10083400700403191E2C1F2C6C2CFD01FD0A2F2C97
:100844000130F8000310F00DF10DF20DF30DF80B6B
:10085400242C0130F8007808FD07F31F322C332CC8
:10086400222C0130F8000310F90DFA0DFB0DFC0DDC
:10087400F80B352C73087702031D4A2C7208760294
:10088400031D4A2C71087502031D4A2C700874025A
:10089400031C4D2C4E2C5D2C7008F4027108031CB3
:1008A400710FF5027208031C720FF6027308031C21
:1008B400730FF702791401300310F30CF20CF10CEE
:1008C400F00CFF3E031D5E2C0130FD02031D6B2C5A
:1008D4006C2C332C7C08F3007B08F2007A08F100BE
:1008E4007908F0000800831203132408031D7B2CED
:1008F4007C2CA92C2008A5002108A6002208A7000A
:100904002308A80006300310A50DA60DA70DA80DF9
:10091400FF3E031D852C2808F3002708F200260853
:10092400F1002508F0000030F7003D30F6000930F2
:10093400F5000030F4000A128A110F240A128A11F9
:100944007008FF3E8316031399001811D52C200854
:10095400A5002108A6002208A7002308A800043047
:100964000310A50DA60DA70DA80DFF3E031DB22C67
:100974002808F3002708F2002608F1002508F000F3
:100984000030F7003D30F6000930F5000030F40087
:100994000A128A110F240A128A117008FF3E831664
:1009A40003139900181518139816181283120313B9
:1009B400981718131816181198108316031387170D
:1009C400071308000A128A11DD220A128A11D03094
:1009D4000A128A1115230A128A116B300A128A111B
:1009E40015230A128A1101300A128A1115230A12D8
:1009F4008A110A128A11E6220A128A110A128A112B
:100A0400DD220A128A11D0300A128A1115230A1221
:100A14008A1100300A128A1115230A128A110A1245
:100A24008A11E6220A128A110A128A11DD220A1296
:100A34008A11D0300A128A1115230A128A11193028
:100A44000A128A1115230A128A1108300A128A110D
:100A540015230A128A110A128A11E6220A128A112D
:100A64000A128A11DD220A128A11D0300A128A115E
:100A740015230A128A111A300A128A1115230A122E
:100A84008A1100300A128A1115230A128A110A12D5
:100A94008A11E6220A128A110A128A11DD220A1226
:100AA4008A11D0300A128A1115230A128A111B30B6
:100AB4000A128A1115230A128A1100300A128A11A5
:100AC40015230A128A110A128A11E6220A128A11BD
:100AD4000A128A11DD220A128A11D0300A128A11EE
:100AE40015230A128A111C300A128A1115230A12BC
:100AF4008A1100300A128A1115230A128A110A1265
:100B04008A11E6220A128A110A128A11DD220A12B5
:100B14008A1168300A128A1115230A128A116C305C
:100B24000A128A1115230A128A1100300A128A1134
:100B340015230A128A110A128A11E6220A128A114C
:100B4400080083120313AB002130A3002308A6007E
:100B5400742E25302C060319B02DB12DBD2D2C0873
:100B6400A3002B0884002308831380000130A30012
:100B74002308AB07742EA7010130A007FF3020071C
:100B840084000A128A1103200A128A11AC00A300FD
:100B9400A4012408003A0319D02D742E2308003A26
:100BA4000319862E643A0319DB2D0D3A0319DB2D44
:100BB400742E2608840083130008A900840A000800
:100BC400AA000230A3002308A607AA1FEA2DEB2DD2
:100BD400F42D0330A3002308A704A909AA09A90A2C
:100BE4000319AA0AAC01AC0A2C08A3002307013E8E
:100BF40084000A128A1103200A128A11A4000A121C
:100C04008A1103200A128A11A50025082A02031D4D
:100C14000D2E240829020318102E112E122E1C2E1C
:100C24000130A3002308AC0705302C06031D1B2E3E
:100C34001C2EF62D270803390319212E222E2D2EC2
:100C44002D30A3002B088400230883138000013077
:100C5400A3002308AB072C08A3002308A8006B2ECD
:100C64000A30F8000030F9002808A3002307013EE9
:100C740084000A128A1103200A128A11F0000A124F
:100C84008A1103200A128A11F1002A08F3002908A4
:100C9400F2000A128A11CB230A128A117108FB008E
:100CA4007008FA000A128A1191230A128A1178082C
:100CB400303E83120313A4002408AC002C08A300C4
:100CC4002B0884002308831380000130A300230829
:100CD400AB07FF30A3002308A807280A031D732EBF
:100CE400742E322E0130A007FF30200784000A1230
:100CF4008A1103200A128A11A3002308AC002C08CD
:100D0400031D852E862EAB2D2B08840083138001B2
:100D14000800063083120313AF001330AE00AD3069
:100D2400AD00AD0B932EAE0B932EAF0B932E83160B
:100D340003178801831603138501831203138501A6
:100D44000A128A11FB220A128A1100308312031339
:100D5400A3000030A2002530A1008030A000A4012F
:100D6400A40A0A128A1175240A128A11831203131F
:100D7400CA01CA0A0A128A11E4240A128A11D0305A
:100D84000A128A1125230A128A1183160313111BCE
:100D9400CC2ECD2EC72E3B300A128A1115230A12EF
:100DA4008A1183160313111BD82ED92ED32ED030BB
:100DB4000A128A1125230A128A1183160313111B9E
:100DC400E42EE52EDF2E3B300A128A1115230A1277
:100DD4008A1183160313111BF02EF12EEB2E0A1227
:100DE4008A11C2220A128A11D1300A128A111523D9
:100DF4000A128A1183120313DB01DC0100300A1288
:100E04008A1135230A128A1183120313AD005B0879
:100E1400533E84002D08831380000130DB07031840
:100E2400DC0A0030DC075C08803AFF0080307F0277
:100E3400031D1E2F07305B02031C212F222F002FBE
:100E440001300A128A1135230A128A1183120313FC
:100E5400AD002D08DA000A128A11E6220A128A115C
:100E6400831203135408AD00AE015308AF00B00160
:100E74002F08B000AF012D082F04CB002E0830043A
:100E8400CC005608AD00AE015508AF00B0012F08E4
:100E9400B000AF012D082F04CD002E083004CE0081
:100EA4005808AD00AE015708AF00B0012F08B000DC
:100EB400AF012D082F04CF002E083004D0005A08AB
:100EC400AD00AE015908AF00B0012F08B000AF016A
:100ED4002D082F04D1002E083004D2001530AD00A7
:100EE4002D08A0004C08A2004B08A10031300A12C2
:100EF4008A11A3250A128A110F3083120313AD003D
:100F04002D08F10031300A128A1161230A128A1164
:100F14001D3083120313AD002D08A0004E08A2005B
:100F24004D08A10031300A128A11A3250A128A1130
:100F34000F3083120313AD002D08F10031300A1273
:100F44008A1161230A128A11253083120313AD001A
:100F54002D08A0005008A2004F08A10031300A1249
:100F64008A11A3250A128A110F3083120313AD00CC
:100F74002D08F10031300A128A1161230A128A11F4
:100F84000B3083120313AD002D08A0005208A200F9
:100F94005108A10031300A128A11A3250A128A11BC
:100FA4000F3083120313AD002D08F10031300A1203
:100FB4008A1161230A128A110A300A128A11EF2255
:100FC4000A128A11023083120313AF004530AE00B7
:100FD400A930AD00AD0BEC2FAE0BEC2FAF0BEC2F0B
:100FE400013083120313AD002D08CA07C12E0A1263
:0C0FF4008A11002883010A128A118B2E3A
:04400E00D420FF3F7C
:00000001FF
