:020000040000FA
:060000000A128A110E280D
:10000800FE00030EF2000408F3000A08F4000A16C2
:100018008A11482A0A128A111128F7018313DE303F
:100028008400EF300A168A118D210A128A11830181
:100038000A128A15EE288312031331088039B60094
:100048003608BB003108B6003607B7003708C100CC
:10005800B01F2F28302831284114410803193528AA
:1000680036284528410A031D3A283B2843280030F2
:10007800B1000030B0000030AF000030AE00B01763
:100088004D280030B1000030B0000030AF00003023
:10009800AE0035088039B6003608BB063508B6000C
:1000A8003607B7003708BC00B41F5B285C285D28FA
:1000B8003C143C0803196128622871283C0A031D76
:1000C800662867286F280030B5000030B40000307B
:1000D800B3000030B200B41779280030B500003002
:1000E800B4000030B3000030B2003C0803197D288A
:1000F8007E2883284108031D822883288C28003005
:10010800B1000030B0000030AF000030AE007F2BEF
:100118002E08B6003608A00034080A168A1196225E
:100128000A128A11831203132108C7002008C60087
:100138004608B600B701B801B9013908C000380847
:10014800BF003708BE003608BD004708B600B70133
:10015800B801B9013908C5003808C4003708C30018
:100168003608C2002F08B6003608A00033080A1661
:100178008A1196220A128A11831203132108C700D2
:100188002008C6004608B600B701B801B90136080C
:10019800BD07370803110318013E0319D428BE0709
:1001A800380803110318013E0319DB28BF07390873
:1001B80003110318013E0319E228C0074708B600D7
:1001C800B701B801B9013608C20737080311031887
:1001D800013E0319F028C307380803110318013E2C
:1001E8000319F728C407390803110318013E031936
:1001F800FE28C5073008B6003608A00032080A16DF
:100208008A1196220A128A11831203132108C70041
:100218002008C6004608B600B701B801B90136087B
:10022800BD07370803110318013E03191C29BE072F
:10023800380803110318013E03192329BF07390899
:1002480003110318013E03192A29C0074708B600FD
:10025800B701B801B9013608C207370803110318F6
:10026800013E03193829C307380803110318013E52
:1002780003193F29C407390803110318013E03195C
:100288004629C5070830B6000310BD0DBE0DBF0DC9
:10029800C00DB60B48292F08B6003608A000320852
:1002A8000A168A1196220A128A1183120313210848
:1002B800C7002008C6004608B6004708B700B801BE
:1002C800B9013608BD07370803110318013E0319A1
:1002D8006E29BE07380803110318013E0319752952
:1002E800BF07390803110318013E03197C29C00709
:1002F8002E08B6003608A00033080A168A1196227E
:100308000A128A11831203132108C7002008C600A5
:100318004608B6004708B700B801B9013608BD0756
:10032800370803110318013E03199B29BE07380833
:1003380003110318013E0319A229BF073908031145
:100348000318013E0319A929C0070830B600031095
:10035800BD0DBE0DBF0DC00DB60BAB292E08B600E6
:100368003608A00032080A168A1196220A128A1143
:10037800831203132108C7002008C6004608B600E8
:100388004708B700B801B9013608BD073708031197
:100398000318013E0319D129BE07380803110318B1
:1003A800013E0319D829BF07390803110318013E74
:1003B8000319DF29C0072F08B6003608A000340843
:1003C8000A168A1196220A128A1183120313210827
:1003D800C7002008C6004608B6004708B700B8019D
:1003E800B9013608C207370803110318013E03197B
:1003F800FE29C307380803110318013E0319052A0B
:10040800C407390803110318013E03190C2AC5074C
:100418003008B6003608A00033080A168A1196225A
:100428000A128A11831203132108C7002008C60084
:100438004608B6004708B700B801B9013608C20730
:10044800370803110318013E03192B2AC30738087C
:1004580003110318013E0319322AC407390803118E
:100468000318013E0319392AC5073008B6003608B3
:10047800A00034080A168A1196220A128A118312D9
:1004880003132108C7002008C6004608B60047081D
:10049800B700B801B90108300310B60DB70DB80D93
:1004A800B90DFF3E031D502A3608C207370803114D
:1004B8000318013E0319612AC307380803110318FA
:1004C800013E0319682AC407390803110318013EBD
:1004D80003196F2AC5073D08B6003E08B7003F0854
:1004E800B8004008B90018300310B90CB80CB70CA4
:1004F800B60CFF3E031D782A3608C20737080311D9
:100508000318013E0319892AC30738080311031881
:10051800013E0319902AC407390803110318013E44
:100528000319972AC5070830B6000310BD0DBE0D84
:10053800BF0DC00DB60B992A41083C07B600B7019C
:10054800B70D3608823EC60037080318013EFF3E45
:10055800C700CB2A0130B6000310C20DC30DC40D6D
:10056800C50DB60BB02AC01FBA2ABB2ABC2A421432
:100578000130B6000310BD0DBE0DBF0DC00DB60B8A
:10058800BE2AFF30C6070318C70AFF30C707C41FB3
:10059800CE2ACF2AAE2ABC01C01FD32AD42AF02AD9
:1005A800FF303D05B600FF303E05B700FF303F0580
:1005B800B8007F304005B9003908380437043604DC
:1005C8000319E72AE82AEB2ABC01BC0AF02A421CD4
:1005D800EE2AEF2AF02AE82A3C080319F42AF52A19
:1005E800262B0130C207003003180130C307003042
:1005F80003180130C407003003180130C507451C33
:10060800062B072B262B4208B6004308B7004408E0
:10061800B8004508B9000130BA00390DB90CB80C5A
:10062800B70CB60CBA0B112B3908C5003808C40032
:100638003708C3003608C2000130C6070318C70AC6
:100648000030C7074708803AFF0080307F02031D4B
:100658002F2BFF304602031C322B332B3E2B7F30CF
:1006680083120313C5008030C4000030C30000307B
:10067800C200732B831203134708803AFF008030AF
:100688007F02031D492B0130460203184C2B4D2BCA
:10069800592B003083120313C5000030C40000300A
:1006A800C3000030C200BB01732B8312031346083A
:1006B800B6003608C100FF30C205FF30C3057F30E1
:1006C800C4050030C505411C6A2B6B2B6C2BC41765
:1006D8004108B6000310360CB7003708C5003B08C0
:1006E800B6003608C5044508B1004408B000430800
:1006F800AF004208AE00080083160313BE00D030D6
:100708000A168A1110220A128A1183160313111B62
:100718008E2B8F2B892B3B300A168A11EC210A125B
:100728008A1183160313111B9A2B9B2B952B0A16E0
:100738008A11A7210A128A11D1300A168A11EC21CE
:100748000A128A1183160313BC01BD0100300A1274
:100758008A1501200A128A1183120313DC008316FA
:1007680003133C08A03E8400831203135C08831320
:100778008000013083160313BC070318BD0A00303C
:10078800BD073D08803AFF0080307F02031DCE2B55
:100798000D303C02031CD12BD22BAA2B01300A129C
:1007A8008A1501200A128A1183120313DC005C08DF
:1007B80083160313AD000A168A119E210A128A11A4
:1007C80083160313210883120313DC00DD0183164B
:1007D8000313200883120313DE00DF015E08DF0025
:1007E800DE015C085E0483160313AE008312031354
:1007F8005D085F0483160313AF00230883120313F5
:10080800DC00DD0183160313220883120313DE00C4
:10081800DF015E08DF00DE015C085E048316031357
:10082800B000831203135D085F0483160313B1003D
:10083800250883120313DC00DD0183160313240843
:1008480083120313DE00DF015E08DF00DE015C08AF
:100858005E0483160313B200831203135D085F045A
:1008680083160313B300270883120313DC00DD018A
:1008780083160313260883120313DE00DF015E08C4
:10088800DF00DE015C085E0483160313B4008312E4
:1008980003135D085F0483160313B5002908831248
:1008A8000313DC00DD0183160313280883120313E6
:1008B800DE00DF015E08DF00DE015C085E048316EF
:1008C8000313B600831203135D085F048316031332
:1008D800B7002B0883120313DC00DD018316031312
:1008E8002A0883120313DE00DF015E08DF00DE0141
:1008F8005C085E0483160313B800831203135D08B3
:100908005F0483160313B9002D0883120313DC0058
:10091800DD01831603132C0883120313DE00DF01A5
:100928005E08DF00DE015C085E0483160313BA006C
:10093800831203135D085F0483160313BB003A3068
:1009480083120313B1001C30B000D030AF008630E2
:10095800AE00831603132E0883120313A000831618
:1009680003132F0883120313A1000030A11BFF30CB
:10097800A200A30001300A168A1167250A128A11FB
:10098800831203132308B5002208B4002108B3001A
:100998002008B2000A128A111F200A128A1183162F
:1009A80003133E088400831203132E088313800068
:1009B800840A2F088000840A30088000840A3108DD
:1009C80080003A30B1001C30B000D030AF00863023
:1009D800AE0083160313300883120313A000831696
:1009E8000313310883120313A1000030A11BFF3049
:1009F800A200A30001300A168A1167250A128A117B
:100A0800831203132308B5002208B4002108B30099
:100A18002008B2000A128A111F200A128A118316AE
:100A280003133E08043E8400831203132E08831325
:100A38008000840A2F088000840A30088000840A15
:100A4800310880003A30B1001C30B000D030AF001F
:100A58008630AE0083160313320883120313A000F6
:100A680083160313330883120313A1000030A11B5C
:100A7800FF30A200A30001300A168A1167250A1266
:100A88008A11831203132308B5002208B400210831
:100A9800B3002008B2000A128A111F200A128A1114
:100AA800831603133E08083E8400831203132E089E
:100AB80083138000840A2F088000840A300880008D
:100AC800840A310880004230CB001230CA001E3040
:100AD800C900B830C8004330B100AA30B0000030B7
:100AE800AF000030AE0083160313340883120313DB
:100AF800A00083160313350883120313A1000030E6
:100B0800A11BFF30A200A30001300A168A11672535
:100B18000A128A11831203132308B5002208B400AD
:100B28002108B3002008B2000A168A1123260A12E7
:100B38008A11831203133108CF003008CE002F0822
:100B4800CD002E08CC000A128A1578250A128A11BF
:100B5800831603133E080C3E8400831203134808CF
:100B680083138000840A49088000840A4A088000A8
:100B7800840A4B0880003B30B100FA30B0000530E1
:100B8800AF001430AE008316031336088312031324
:100B9800A00083160313370883120313A100003043
:100BA800A11BFF30A200A30001300A168A11672595
:100BB8000A128A11831203132308B5002208B4000D
:100BC8002108B3002008B2000A128A111F200A1255
:100BD8008A11831603133E08103E84008312031300
:100BE8002E0883138000840A2F088000840A3008A6
:100BF8008000840A310880003B30B100FA30B00030
:100C08000530AF001430AE00831603133808831282
:100C18000313A00083160313390883120313A100DA
:100C28000030A11BFF30A200A30001300A168A1170
:100C380067250A128A11831203132308B5002208B4
:100C4800B4002108B3002008B2000A128A111F203C
:100C58000A128A11831603133E08143E8400831275
:100C680003132E0883138000840A2F088000840A47
:100C780030088000840A310880003B30B100FA3027
:100C8800B0000530AF001430AE00831603133A08E5
:100C980083120313A000831603133B088312031364
:100CA800A1000030A11BFF30A200A30001300A16EA
:100CB8008A1167250A128A11831203132308B500C3
:100CC8002208B4002108B3002008B2000A128A11D1
:100CD8001F200A128A11831603133E08183E840047
:100CE800831203132E0883138000840A2F088000C0
:100CF800840A30088000840A310880000800DE3049
:100D080083120313EA006A0883160313A8008312E8
:100D180003136708A3006608A2006508A100640819
:100D2800A0000030A7000030A6000030A500003069
:100D3800A4000A168A11C3240A128A110318A52EC0
:100D4800A62ED22E2D3083120313EA008316031326
:100D580028088400831203136A0883138000013073
:100D6800EA006A0883160313A807831203136708A7
:100D7800A3006608A2006508A1006408A0000A167E
:100D88008A11DF210A128A11831203132308E7004C
:100D98002208E6002108E5002008E4008312031376
:100DA8006708CB006608CA006508C9006408C8005F
:100DB8000A168A1147240A128A11831203134B0850
:100DC80083160313A700831203134A088316031319
:100DD800A60083120313490883160313A500831280
:100DE8000313480883160313A40027088312031368
:100DF800A30083160313260883120313A200831685
:100E08000313250883120313A10083160313240870
:100E180083120313A00000300A168A1167250A12EC
:100E28008A11831203132308DF002208DE00210839
:100E3800DD002008DC006708E3006608E2006508BA
:100E4800E1006408E0000A168A1124220A128A11B5
:100E5800831203135F08E7005E08E6005D08E500FB
:100E68005C08E4006708B5006608B4006508B300CC
:100E78006408B2004930B1007430B0002430AF00CB
:100E88000030AE000A128A111F200A128A1183123A
:100E980003133108CB003008CA002F08C9002E08F8
:100EA800C8000A168A1147240A128A1183120313EA
:100EB8004B0883160313A300831203134A088316EF
:100EC8000313A20083120313490883160313A10016
:100ED80083120313480883160313A00029308312D2
:100EE8000313EA006A08B70083160313270883125E
:100EF8000313BB0083160313260883120313BA00D7
:100F080083160313250883120313B90083160313EA
:100F1800240883120313B8008316031323088312CB
:100F28000313BF0083160313220883120313BE00A2
:100F380083160313210883120313BD0083160313BA
:100F4800200883120313BC008316031328080A120F
:100F58008A152C230A128A11DE300800FF1BBC2FC9
:100F680083137F1883170008840A0319FF0A0800EF
:100F780007308A000408840A8207003401340034E8
:100F8800003400340A34003400340034643400344B
:100F980000340034E8340334003400341034273487
:100FA80000340034A03486340134003440344234F0
:100FB8000F34003480349634983400340034E134EB
:100FC800F53405340034CA349A343B3425346C344F
:100FD80075342E34253436342E3436346C34753426
:100FE8000034203400348316031391161116111A95
:080FF800FE2FFF2FFB2F080064
:1010020083120313A0000A168A11D2210A128A152A
:10101200831603139115141C0F2810280C28831211
:1010220003131308F6007608A1002008031D1A28EE
:101032001B2821280A168A11B0210A128A1526288D
:101042000A128A11F7270A128A15831203138C1DBA
:101052002B282C2826288C11210808000A168A1110
:1010620095210A128A15D0300A168A11EC210A1229
:101072008A156B300A168A11EC210A128A15013080
:101082000A168A11EC210A128A150A168A119E2161
:101092000A128A150A168A1195210A128A15D03067
:1010A2000A168A11EC210A128A1500300A168A11D0
:1010B200EC210A128A150A168A119E210A128A1531
:1010C2000A168A1195210A128A15D0300A168A1137
:1010D200EC210A128A1519300A168A11EC210A1219
:1010E2008A1508300A168A11EC210A128A150A1684
:1010F2008A119E210A128A150A168A1195210A124C
:101102008A15D0300A168A11EC210A128A151A3071
:101112000A168A11EC210A128A1500300A168A115F
:10112200EC210A128A150A168A119E210A128A15C0
:101132000A168A1195210A128A15D0300A168A11C6
:10114200EC210A128A151B300A168A11EC210A12A6
:101152008A1500300A168A11EC210A128A150A161B
:101162008A119E210A128A150A168A1195210A12DB
:101172008A15D0300A168A11EC210A128A151C30FF
:101182000A168A11EC210A128A1500300A168A11EF
:10119200EC210A128A150A168A119E210A128A1550
:1011A2000A168A1195210A128A1568300A168A11BE
:1011B200EC210A128A156C300A168A11EC210A12E5
:1011C2008A1500300A168A11EC210A128A150A16AB
:1011D2008A119E210A128A1508000630831203130F
:1011E200ED001330EC00AD30EB00EB0BF628EC0B0E
:1011F200F628ED0BF62883160317880183160313CE
:1012020085018312031385010A168A11C5210A1268
:101212008A15003083120313B0000030AF004B3048
:10122200AE000030AD00B101B10A0A168A11D42312
:101232000A128A150A128A152F200A128A158B178A
:101242000B17831603138C16BF300A128A118023E0
:101252000A128A150130F702831603134208831219
:101262000313E70083160313410883120313E600F6
:1012720083160313400883120313E5008316031336
:101282003F0883120313E400831603135B088312DF
:101292000313E800831603135C0883120313E900A7
:1012A2000A128A1183260A128A1583120313EB008B
:1012B2006B0883160313DD005D0883120313A0007D
:1012C2000030A1000630EB006B08A2000A168A115A
:1012D20015230A128A150430BF3E840083130008C6
:1012E20083120313E400840A0008E500840A00085C
:1012F200E600840A0008E700831603135B088312E2
:101302000313E800831603135C0883120313E90036
:101312000A128A1183260A128A1583120313EB001A
:101322006B0883160313DD00343083120313A0000D
:101332008030A1000A30EB006B08A2000A168A1165
:1013420015230A128A15831603135D0883120313E9
:10135200A0000030A1000630EB006B08A2000A16C4
:101362008A1115230A128A150830BF3E840083139E
:10137200000883120313E400840A0008E500840ACB
:101382000008E600840A0008E700831603135B08DE
:1013920083120313E800831603135C0883120313FA
:1013A200E9000A128A1183260A128A15831203138C
:1013B200EB006B0883160313DD0034308312031332
:1013C200A0008030A1000A30EB006B08A2000A16D0
:1013D2008A1115230A128A15831603135D088312D4
:1013E2000313A0000030A1000630EB006B08A2003E
:1013F2000A168A1115230A128A150C30BF3E840080
:101402008313000883120313E400840A0008E50032
:10141200840A0008E600840A0008E7008316031322
:101422005B0883120313E800831603135C0883121C
:101432000313E9000A128A1183260A128A158312FB
:101442000313EB006B0883160313DD0034308312A1
:101452000313A0008030A1000A30EB006B08A20049
:101462000A168A1115230A128A15831603135D08B8
:1014720083120313A0000030A1000630EB006B08BA
:10148200A2000A168A1115230A128A151030BF3ECD
:1014920084008313000883120313E400840A000803
:1014A200E500840A0008E600840A0008E7008316C3
:1014B20003135B0883120313E800831603135C080B
:1014C20083120313E9000A128A1183260A128A156B
:1014D20083120313EB006B0883160313DD00343011
:1014E20083120313A0008030A1000A30EB006B08C6
:1014F200A2000A168A1115230A128A1583160313EB
:101502005D0883120313A0000030A1000630EB0037
:101512006B08A2000A168A1115230A128A151430C2
:10152200BF3E84008313000883120313E400840A7D
:101532000008E500840A0008E600840A0008E700C3
:10154200831603135B0883120313E8008316031345
:101552005C0883120313E9000A128A1183260A1215
:101562008A1583120313EB006B0883160313DD0045
:10157200343083120313A0008030A1000A30EB0044
:101582006B08A2000A168A1115230A128A158316FD
:1015920003135D0883120313A0000030A10006307C
:1015A200EB006B08A2000A168A1115230A128A158B
:1015B2001830BF3E84008313000883120313E40033
:1015C200840A0008E500840A0008E600840A00088C
:1015D200E700831603135B0883120313E8008316E4
:1015E20003135C0883120313E9000A128A1183268B
:1015F2000A128A1583120313EB006B088316031376
:10160200DD00343083120313A0008030A1000A30C1
:10161200EB006B08A2000A168A1115230A128A151A
:10162200831603135D0883120313A0000030A10088
:101632000630EB006B08A2000A168A1115230A1263
:101642008A150A300A168A11B9210A128A15252921
:101652000A128A110E2883120313CB003830C000FD
:101662004008C600612D253050060319392B3A2B4C
:10167200462B5008C0004B088400400883138000AA
:101682000130C0004008CB07612DCC01CD01C5015E
:10169200370884000A128A11BC270A128A150A1610
:1016A2008A11FC210A128A15031C582B592B992BDB
:1016B20083120313CC01CD010A3083120313A0005D
:1016C2000030A1004D08A3004C08A2000A168A119E
:1016D2006F220A128A15831203132108CD002008F3
:1016E200CC00370884000A128A11BC270A128A1514
:1016F200D03EC000FF3003180030C1004008CC07C4
:101702000318CD0A4108CD070130C0004008B707D1
:10171200370884000A128A11BC270A128A150A168F
:101722008A11FC210A128A150318982B992B5D2B1A
:1017320083120313370884000A128A11BC270A1283
:101742008A152E3A031DA62BA72BEB2B0130C000C6
:101752004008B707CE01CF01DA2B0A3083120313F8
:10176200A0000030A1004F08A3004E08A2000A16F4
:101772008A116F220A128A15831203132108CF00DD
:101782002008CE00370884000A128A11BC270A12E8
:101792008A15D03EC000FF3003180030C100400857
:1017A200CE070318CF0A4108CF070130C000400816
:1017B200B707370884000A128A11BC270A128A1551
:1017C2000A168A11FC210A128A150318E92BEA2B40
:1017D200AE2BF52BCE01CF01F52B4516F52BC030E4
:1017E200C0004008C504142C013083120313B7074C
:1017F200FF30370784000A128A11BC270A128A15A1
:10180200D000C000C1014108003A0319092C612D22
:101812004008003A0319732D6C3A0319EE2B193A5A
:101822000319F02B612D451E172C182C2B2C460862
:10183200840083130008C700840A0008C800840AD1
:101842000008C900840A0008CA000430C000400829
:10185200C6073D2C4608840083130008C000840A92
:101862000008C1004008C7004108C800C901CA01F8
:101872000230C0004008C6074E084F04031D422C28
:10188200432C512C4A08490448044704031D4A2C9E
:101892004B2C512C0130CE070318CF0A0030CF0752
:1018A200D001D00A5008C00001300310C00DFF3E25
:1018B200031D562C0310400D013E84000A128A11AA
:1018C200BC270A128A15C1000A128A11BC270A1201
:1018D2008A15C2000A128A11BC270A128A15C3008D
:1018E2000A128A11BC270A128A15C40044084A0245
:1018F200031D852C43084902031D852C420848021A
:10190200031D852C410847020318882C892C8A2C38
:10191200942C0130C0004008D0070A305006031D45
:10192200932C942C532C4F08803A803C031D9B2C03
:101932004E08500203189E2C9F2CA62C83120313D0
:101942004E08C0004008D000BE2C831203134F087B
:10195200803AC00080304002031DB12C50084E0274
:101962000318B42CB52CBE2C831203135008C000EC
:10197200C1014008CE004108CF00831203134D0875
:10198200803A803C031DC72C4C0850020318CA2C15
:10199200CB2CD72C831203135008C000C10140087E
:1019A200CC024108031CCD03CD02DB2C83120313AE
:1019B200CC01CD014C084D040319E02CE12C532D30
:1019C2002030C0004B08840040088313800001309F
:1019D200C0004008CB07FF30CC070318CD0AFF3008
:1019E200CD074C084D04031DF72CF82CE12C532D88
:1019F2000030B0000030AF000030AE000A30AD0061
:101A02004E08C00001300310C00DFF3E031D042D1F
:101A12000310400D013E84000A128A11BC270A12EB
:101A22008A15A0000A128A11BC270A128A15A1007F
:101A32000A128A11BC270A128A15A2000A128A11F6
:101A4200BC270A128A15A3004A08A7004908A60063
:101A52004808A5004708A4000A168A116C230A1236
:101A62008A15831203132308B4002208B300210845
:101A7200B2002008B1000A168A11BF220A128A1582
:101A8200831203132D08303EC1004108D0005008D4
:101A9200C0004B0884004008831380000130C0005E
:101AA2004008CB07FF30CE070318CF0AFF30CF071D
:101AB2004E0A031D602D4F0A031D602D612DF92C66
:101AC2000130B707FF30370784000A128A11BC279A
:101AD2000A128A15C0004008D0005008031D722D5A
:101AE200732D342B4B08840083138001080083126A
:101AF20003134B088039D0005008D8004B08D0009F
:101B02005007D1005108DA00CA1F882D892D8A2D6D
:101B12005A145A0803198E2D8F2D9F2D5A0A031D10
:101B2200932D942D9C2D0030CB000030CA00003044
:101B3200C9000030C800CA17CB01A72D0030CB0066
:101B42000030CA000030C9000030C8004F08803998
:101B5200D0005008D900590858060319B12DB22DEA
:101B6200B32D58174F08D0005007D1005108D900A3
:101B7200CE1FBC2DBD2DBE2D591459080319C22DDF
:101B8200C32DD32D590A031DC72DC82DD02D0030CA
:101B9200CF000030CE000030CD000030CC00CE1798
:101BA200CF01DB2D0030CF000030CE000030CD0061
:101BB2000030CC005A0859020318E02DE12D252EE1
:101BC200581FE42DE52DE92D8030D0005008D806AD
:101BD2005A08D0005008DB005908D0005008DA003B
:101BE2005B08D0005008D9004808D0005008DB003C
:101BF2004C08D0005008C8005B08D0005008CC0048
:101C02004908D0005008DB004D08D0005008C90038
:101C12005B08D0005008CD004A08D0005008DB0015
:101C22004E08D0005008CA005B08D0005008CE0011
:101C32004B08D0005008DB004F08D0005008CB0002
:101C42005B08D0005008CF00DB015908D000D10159
:101C52005108D3005A085002D200031CD303530880
:101C6200803AFF0080307F02031D392E1A30520263
:101C7200031C3C2E3D2E7A2E831203134B084A047A
:101C820049044804031D462E482E0130492E0030D7
:101C9200D0005008DB000030CB000030CA0000301A
:101CA200C9000030C8005908D0005008DA00822E5E
:101CB2005B1C5C2E5D2E662E5B08D0000310500C60
:101CC2000138D1005108DB00682E0310DB0C481CE0
:101CD2006B2E6C2E6D2EDB170130D0004B0DCB0C12
:101CE200CA0CC90CC80CD00B6F2E0130D0005008A2
:101CF200DA078312031359085A02031C812E822E1B
:101D0200592E581B852E862ED12E5A08031D8A2E37
:101D12008B2E942E0030CB000030CA000030C90058
:101D22000030C800FF2F4C08C8074D0803110318E4
:101D3200013E03199D2EC9074E0803110318013EE7
:101D42000319A42ECA074F0803110318013E0319F1
:101D5200AB2ECB074B1CAE2EAF2E852F5B1CB22EAB
:101D6200B32EBC2E5B08D0000310500C0138D100FA
:101D72005108DB00BE2E0310DB0C481CC12EC22E04
:101D8200C32EDB170130D0004B0DCB0CCA0CC90C93
:101D9200C80CD00BC52E0130D0005008DA07852FB1
:101DA2004B08803AFF004F08803A7F02031DE32E62
:101DB2004E084A02031DE32E4D084902031DE32E7D
:101DC2004C0848020318E62EE72E3F2FFF30D000C2
:101DD200FF30D100FF30D200FF30D3004C08D400D6
:101DE2004D08D5004E08D6004F08D7004808D40247
:101DF2004908031C490FFE2EFF2ED5024A08031C78
:101E02004A0F042F052FD6024B08031C4B0F0A2F33
:101E12000B2FD7025408D00755080318550F122F5D
:101E2200132FD10756080318560F182F192FD20750
:101E320057080318570AD3075308CB005208CA00A1
:101E42005108C9005008C8008030D0005008D80698
:101E5200DB09DB0A5B08031D2F2F302F4D2F0130CA
:101E6200C807003003180130C907003003180130D9
:101E7200CA07003003180130CB074D2F4C08C802A7
:101E82004D08031C4D0FC9024E08031C4E0FCA0217
:101E92004F08031C4F0FCB024B084A044904480465
:101EA200031D542F552F812F5B08031D592F5A2FC5
:101EB200812F0030CB000030CA000030C900003052
:101EC200C800FF2F0130D0000310C80DC90DCA0D84
:101ED200CB0DD00B652FDB1F6F2F702F712F481486
:101EE2005B1C742F752F782F0314DB0D7A2F0310D0
:101EF200DB0D5A0803197E2F7F2F812F0130DA0262
:101F0200CA1F842F852F632FD901DB1F892F8A2FA8
:101F1200982F5B087F3903198F2F902F932FD901A8
:101F2200D90A982F481C962F972F982F902F59082F
:101F320003199C2F9D2FD12F0130C80700300318A1
:101F42000130C907003003180130CA0700300318F6
:101F52000130CB074B1CAE2FAF2FD12F4808D0003A
:101F62004908D1004A08D2004B08D3000130D400FE
:101F7200530DD30CD20CD10CD00CD40BB92F530867
:101F8200CB005208CA005108C9005008C8005A0ABA
:101F92000319CC2FCD2FD12F0130D0005008DA07F2
:101FA2005A0A0319D52FD62FDB2F5A08031DDA2F11
:101FB200DB2FE92F0030CB000030CA000030C9000F
:101FC2000030C8005A08031DE72FE82FE92FD80177
:101FD2005A1CEC2FED2FEF2FCA17F32F7F30D000B2
:101FE2005008CA055A08D0000310500CD1005108FD
:0E1FF200CB00D81FFD2FFE2FFF2FCB170800AE
:10231A0064008001840A04060319003404068E2925
:10232A000A168A11D2210A168A1183160313111466
:10233A0008000A168A11D2210A168A118316031373
:10234A00111508000A168A11D2210A168A11831653
:10235A000313911408008316031391121116111A0C
:10236A00B729B829B4290800F60083160313981C64
:10237A00BF29C029BA2976088312031399000800D5
:10238A0028308312031394008316031391019401D6
:10239A0009309300871507160800831603131419CA
:1023AA00D729D829D22911081F39031DDD29DE2989
:1023BA00D2290800831203132308220421042004CB
:1023CA000319E829E929EB298030A3060800F60059
:1023DA000A168A11D2210A168A1176088312031361
:1023EA0093008C1DF929FA29F6298C110800831209
:1023FA000313A100A0013A3021020318052A062A74
:10240A000E2A30302102031C0B2A0C2A0E2AA001A4
:10241A00A00A200C080083120313A0000A168A11CE
:10242A00D2210A168A118316031311148312031375
:10243A0020080A168A11EC210A168A11080080302F
:10244A0083120313DF066308CB006208CA0061081F
:10245A00C9006008C8005F08CF005E08CE005D08AA
:10246A00CD005C08CC000A128A1578250A168A1152
:10247A00831203134B08DF004A08DE004908DD0017
:10248A004808DC000800831203138C1E4D2A4E2ACA
:10249A00662A1A08F0007008F500592A77080138E8
:1024AA00F0007008F700662A7508F000F10171085B
:1024BA00003A0319612A662A7008473A0319532A0F
:1024CA00662A74088A0073088400720E8300FE0E5E
:1024DA007E0E090083120313A401A501201C762A8B
:1024EA00772A7D2A2208A4070318A50A2308A50724
:1024FA0001300310A20DA30DFF3E031D7E2A0130F9
:10250A000310A10CA00CFF3E031D852A20082104FC
:10251A00031D902A912A732A2508A1002408A000E5
:10252A00080083120313A800A401A5012008A20031
:10253A00A3012208A6002308A700281CA52AA62A68
:10254A00AC2A2608A4070318A50A2708A5070130FC
:10255A000310A60DA70DFF3E031DAD2A0310A80CFC
:10256A002808031DB92ABA2AA22A2508A100240884
:10257A00A00008008312031330082F042E042D0430
:10258A000319C82AC92A0C2BB601B60AD92A01305E
:10259A00B5000310AD0DAE0DAF0DB00DB50BCE2AC3
:1025AA000130B5003508B607B01FDC2ADD2ACC2A6F
:1025BA0030083402031DEB2A2F083302031DEB2ACD
:1025CA002E083202031DEB2A2D083102031CEE2AC3
:1025DA00EF2AFD2A2D08B1022E08031C2E0FB20283
:1025EA002F08031C2F0FB3023008031C300FB4024C
:1025FA0001300310B00CAF0CAE0CAD0CFF3E031D46
:10260A00FE2A0130B602031D0B2B0C2BDD2A3408DF
:10261A00B0003308AF003208AE003108AD00080040
:10262A0083120313A601A701A601A701402B2608BE
:10263A002007A4002108A3000318A30AA61F262B1B
:10264A00A303831203132308A5002508FF00240807
:10265A0084000A128A11B2270A168A110A168A11E6
:10266A00B9210A168A11013083120313A607031827
:10267A00A70A0030A7072708803AA3008030230260
:10268A00031D492B2208260203184C2B4D2B6B2BBA
:10269A008312031326082007A4002108A3000318A5
:1026AA00A30AA61F592BA303831203132308A50009
:1026BA002508FF00240884000A128A11B2270A1684
:1026CA008A11003A031D6A2B6B2B1C2B0800003061
:1026DA0083120313AB000030AA000030A9000030B7
:1026EA00A800230822042104200403197D2B7E2B31
:1026FA00CB2BAC01AC0A8E2B0130F6000310A00DD7
:10270A00A10DA20DA30DF60B832B0130F60076085E
:10271A00AC07A31F912B922B812B0130F6000310DB
:10272A00A80DA90DAA0DAB0DF60B942B23082702B1
:10273A00031DA92B22082602031DA92B2108250205
:10274A00031DA92B20082402031CAC2BAD2BBC2B88
:10275A002008A4022108031C210FA5022208031C39
:10276A00220FA6022308031C230FA70228140130F4
:10277A000310A30CA20CA10CA00CFF3E031DBD2B41
:10278A000130AC02031DCA2BCB2B922B2B08A300C2
:10279A002A08A2002908A1002808A000080083121C
:1027AA0003133108031DDA2BDB2B0A2C2D08B20088
:1027BA002E08B3002F08B4003008B5000630031005
:1027CA00B20DB30DB40DB50DFF3E031DE42B350854
:1027DA00A3003408A2003308A1003208A000003088
:1027EA00A7003D30A6000930A5000030A4000A1653
:1027FA008A116C230A168A11831203132008FF3EDA
:10280A008316031399001811382C2D08B2002E08CC
:10281A00B3002F08B4003008B50004300310B20D1D
:10282A00B30DB40DB50DFF3E031D132C3508A300DF
:10283A003408A2003308A1003208A0000030A70023
:10284A003D30A6000930A5000030A4000A168A11FE
:10285A006C230A168A11831203132008FF3E83167B
:10286A0003139900181518139816181283120313D4
:10287A009817181318161811981083160313871728
:10288A00071308000310831203134A0D4B0DCC00E3
:10289A004C08D2005208031D532C542C5D2C0030D6
:1028AA00CB000030CA000030C9000030C800C22C7A
:1028BA004808CC004908CD004A08CE004B08CF0092
:1028CA001F300310CF0CCE0CCD0CCC0CFF3E031DD9
:1028DA00662C4C08D0005008D100CA17FF30C80532
:1028EA00FF30C905FF30CA050030CB059630D20249
:1028FA00D21F802C812C9B2C5208803A973E0318B9
:10290A00872C882C892C542C01300310CB0CCA0C30
:10291A00C90CC80CFF3E031D8A2C0130CC004C08A0
:10292A00D207031D992C9A2C892CB22C20305202E2
:10293A00031CA02CA12CAD2C542C0130CC0003106C
:10294A00C80DC90DCA0DCB0DCC0BA42C0130D20277
:10295A005208031DB12CB22CA22C51080319B62C13
:10296A00B72CC22CC809C909CA09CB09C80A031954
:10297A00C90A0319CA0A0319CB0A080000308312CC
:10298A0003132005A80000302105A9008030220584
:10299A00AA007F302305AB002B082A042904280447
:1029AA00031DD82CD92CE12C0030A3000030A20042
:1029BA000030A1000030A00000302405A80000303B
:1029CA002505A90080302605AA007F302705AB001F
:1029DA002B082A0429042804031DF42CF52CFD2CA9
:1029EA000030A7000030A6000030A5000030A40087
:1029FA00A31F002D012D252D0030A8000030A900AD
:102A0A000030AA008030AB002008A8022108031C6D
:102A1A00210F102D112DA9022208031C220F162D99
:102A2A00172DAA022308031C230F1C2D1D2DAB02F0
:102A3A002B08A3002A08A2002908A1002808A00040
:102A4A00A71F282D292D4D2D0030A8000030A900E0
:102A5A000030AA008030AB002408A8022508031C15
:102A6A00250F382D392DA9022608031C260F3E2DC5
:102A7A003F2DAA022708031C270F442D452DAB0220
:102A8A002B08A7002A08A6002908A5002808A400E0
:102A9A008030A3068030A70627082302031D5F2D76
:102AAA0026082202031D5F2D25082102031D5F2D22
:102ABA00240820020318622D632D652D0310662D4C
:102ACA000314080083120313A800280803196E2DA3
:102ADA006F2D832DA31F722D732D832D2009AA001C
:102AEA002109AB002209AC002309AD00AA0A031987
:102AFA00AB0A0319AC0A0319AD0A8B2D2308AD00E2
:102B0A002208AC002108AB002008AA0023082204EE
:102B1A0021042004031D922D932D9C2D0030A30027
:102B2A000030A2000030A1000030A000222E963012
:102B3A00A4002408A900AE2D0130A4002408A90786
:102B4A0001300310AD0CAC0CAB0CAA0CFF3E031DFC
:102B5A00A62DFE302D05031DB32DB42DA12DD02D8C
:102B6A000130A4002408A9070130AA07003003187D
:102B7A000130AB07003003180130AC0700300318EE
:102B8A000130AD0701300310AD0CAC0CAB0CAA0C34
:102B9A00FF3E031DC82DFF302D05031DD52DD62D53
:102BAA00B52DE22D0130A9020130A4000310AA0DAF
:102BBA00AB0DAC0DAD0DA40BDB2DAC1BE52DE62D3D
:102BCA00EC2D023029020318EB2DEC2DD72D2918F4
:102BDA00EF2DF02DF82DFF30AA05FF30AB057F3021
:102BEA00AC05FF30AD050310A90C2908A400A50106
:102BFA00A601A70118300310A40DA50DA60DA70D57
:102C0A00FF3E031D002E2408AA042508AB0426084B
:102C1A00AC042708AD0428080319142E152E1A2E01
:102C2A00A31F182E192E1A2EAD172D08A3002C0833
:102C3A00A2002B08A1002A08A0000800831203138F
:102C4A0035088039B6003608BF003508B6003607A1
:102C5A00B7003708C600B41F332E342E352E46145B
:102C6A0046080319392E3A2E4A2E460A031D3E2ECD
:102C7A003F2E472E0030B5000030B4000030B300BC
:102C8A000030B200B417B501522E0030B500003042
:102C9A00B4000030B3000030B20031088039B60009
:102CAA003608BF063108B6003607B7003708C7002E
:102CBA00B01F602E612E622E471447080319662E34
:102CCA00672E772E470A031D6B2E6C2E742E00304A
:102CDA00B1000030B0000030AF000030AE00B017D5
:102CEA00B1017F2E0030B1000030B0000030AF00DB
:102CFA000030AE00310830042F042E04031D862E46
:102D0A00872EA02E0030B5000030B4000030B3008A
:102D1A000030B2008030B4047F30B5043F08B600FA
:102D2A003608B5043508B1003408B0003308AF00DE
:102D3A003208AE00FF2F4608031DA42EA52EAE2E84
:102D4A000030B1000030B0000030AF000030AE00FB
:102D5A00FF2F4608B600B7013708B9004708360200
:102D6A00B800031CB90338087F3EC00039080318AD
:102D7A00013E003EC1003508BE003408BD003308DC
:102D8A00BC003208BB000030B5000030B40000308F
:102D9A00B3000030B2000030C5000030C40000307B
:102DAA00C3000030C200C701242F47080319DE2ED2
:102DBA00DF2EFF2E0130B6000310BB0DBC0DBD0D7A
:102DCA00BE0DB60BE12E0130B6000310B20DB30DE5
:102DDA00B40DB50DB60BEA2EC51FF42EF52EF62E40
:102DEA0032140130B6000310C20DC30DC40DC50D57
:102DFA00B60BF82E31083E02031D0D2F30083D0296
:102E0A00031D0D2F2F083C02031D0D2F2E083B0218
:102E1A00031C102F112F202F45172E08BB022F0835
:102E2A00031C2F0FBC023008031C300FBD023108EF
:102E3A00031C310FBE020130B6003608C7071A302C
:102E4A004702031C292F2A2FDA2E3E083D043C0490
:102E5A003B040319312F322F512F4214512F0130C5
:102E6A00B6000310B20DB30DB40DB50DB60B362F67
:102E7A00C51F402F412F422F32140130B6000310D4
:102E8A00C20DC30DC40DC50DB60B442FFF30C007CC
:102E9A000318C10AFF30C107B41F542F552F342F0E
:102EAA00C701C51F592F5A2F762FFF304205B6008A
:102EBA00FF304305B700FF304405B8007F304505B1
:102ECA00B900390838043704360403196D2F6E2FF8
:102EDA00712FC701C70A762F321C742F752F762FD0
:102EEA006E2F470803197A2F7B2FAC2F0130B207B8
:102EFA00003003180130B307003003180130B4075B
:102F0A00003003180130B507351C8C2F8D2FAC2FDC
:102F1A003208B6003308B7003408B8003508B900DB
:102F2A000130BA00390DB90CB80CB70CB60CBA0B93
:102F3A00972F3908B5003808B4003708B3003608A7
:102F4A00B2000130C0070318C10A0030C1074108A6
:102F5A00803AFF0080307F02031DB52FFF30400208
:102F6A00031CB82FB92FC72FFF3083120313C000D9
:102F7A000030C1000030B5000030B4000030B300AA
:102F8A000030B200831203134108803AFF008030F8
:102F9A007F02031DD22F013040020318D52FD62FEE
:102FAA00E32F83120313C001C1010030B5000030C2
:102FBA00B4000030B3000030B200BF018312031323
:102FCA004008B6003608C600461CEC2FED2FEF2F3E
:102FDA00B417F32F7F30B6003608B4054608B6009A
:102FEA000310360CB7003708B5003F08B60036089C
:062FFA00B504972E08004B
:04400E00D420FF3F7C
:00000001FF
