:020000040000FA
:060000000A128A110E280D
:10000800FE00030EF2000408F3000A08F4000A16C2
:100018008A11682A0A128A1111288313DE30840093
:10002800F0300A168A118C210A128A1183010A12E9
:100038008A15EA288312031331088039B600360876
:10004800BB003108B6003607B7003708C100B01F3B
:100058002E282F2830284114410803193428352820
:100068004428410A031D39283A2842280030B100A3
:100078000030B0000030AF000030AE00B0174C28A0
:100088000030B1000030B0000030AF000030AE00EA
:1000980035088039B6003608BB063508B60036077D
:1000A800B7003708C000B41F5A285B285C284014E2
:1000B80040080319602861287028400A031D652834
:1000C80066286E280030B5000030B4000030B30058
:1000D8000030B200B41778280030B5000030B40002
:1000E8000030B3000030B200400803197C287D2896
:1000F80082284108031D812882288B280030B100FE
:100108000030B0000030AF000030AE007E2B2E086B
:10011800B6003608F60034080A128A1502200A12B8
:100128008A11770883120313C7007608C6004608A9
:10013800B600B701B801B9013908BF003808BE00D8
:100148003708BD003608BC004708B600B701B8013B
:10015800B9013908C5003808C4003708C300360893
:10016800C2002F08B6003608F60033080A128A15AE
:1001780002200A128A11770883120313C70076082F
:10018800C6004608B600B701B801B9013608BC0771
:10019800370803110318013E0319D328BD0738088F
:1001A80003110318013E0319DA28BE0739080311A1
:1001B8000318013E0319E128BF074708B600B70135
:1001C800B801B9013608C207370803110318013E00
:1001D8000319EF28C307380803110318013E031950
:1001E800F628C407390803110318013E0319FD282E
:1001F800C5073008B6003608F60032080A128A1514
:1002080002200A128A11770883120313C70076089E
:10021800C6004608B600B701B801B9013608BC07E0
:10022800370803110318013E03191B29BD073808B5
:1002380003110318013E03192229BE0739080311C7
:100248000318013E03192929BF074708B600B7015B
:10025800B801B9013608C207370803110318013E6F
:1002680003193729C307380803110318013E031976
:100278003E29C407390803110318013E031945290B
:10028800C5070830B6000310BC0DBD0DBE0DBF0D6F
:10029800B60B47292F08B6003608F60032080A12AE
:1002A8008A1502200A128A11770883120313C700DD
:1002B8007608C6004608B6004708B700B801B90175
:1002C8003608BC07370803110318013E03196D29C6
:1002D800BD07380803110318013E03197429BE0726
:1002E800390803110318013E03197B29BF072E089B
:1002F800B6003608F60033080A128A1502200A12D8
:100308008A11770883120313C7007608C6004608C7
:10031800B6004708B700B801B9013608BC07370866
:1003280003110318013E03199A29BD073808031160
:100338000318013E0319A129BE0739080311031840
:10034800013E0319A829BF070830B6000310BC0DE9
:10035800BD0DBE0DBF0DB60BAA292E08B600360876
:10036800F60032080A128A1502200A128A11770842
:1003780083120313C7007608C6004608B60047086C
:10038800B700B801B9013608BC07370803110318CC
:10039800013E0319D029BD07380803110318013E8F
:1003A8000319D729BE07390803110318013E031999
:1003B800DE29BF072F08B6003608F60034080A12EF
:1003C8008A1502200A128A11770883120313C700BC
:1003D8007608C6004608B6004708B700B801B90154
:1003E8003608C207370803110318013E0319FD290F
:1003F800C307380803110318013E0319042AC40768
:10040800390803110318013E03190B2AC5073008E0
:10041800B6003608F60033080A128A1502200A12B6
:100428008A11770883120313C7007608C6004608A6
:10043800B6004708B700B801B9013608C20737083F
:1004480003110318013E03192A2AC30738080311A8
:100458000318013E0319312AC40739080311031888
:10046800013E0319382AC5073008B6003608F600D9
:1004780034080A128A1502200A128A117708831290
:100488000313C7007608C6004608B6004708B70039
:10049800B801B90108300310B60DB70DB80DB90D84
:1004A800FF3E031D4F2A3608C207370803110318F9
:1004B800013E0319602AC307380803110318013ED7
:1004C8000319672AC407390803110318013E0319E1
:1004D8006E2AC5073C08B6003D08B7003E08B800BC
:1004E8003F08B90018300310B90CB80CB70CB60C9B
:1004F800FF3E031D772A3608C20737080311031881
:10050800013E0319882AC307380803110318013E5E
:1005180003198F2AC407390803110318013E031968
:10052800962AC5070830B6000310BC0DBD0DBE0DD8
:10053800BF0DB60B982A41084007B600B701B70DA2
:100548003608823EC60037080318013EFF3EC70042
:10055800CA2A0130B6000310C20DC30DC40DC50D63
:10056800B60BAF2ABF1FB92ABA2ABB2A42140130D8
:10057800B6000310BC0DBD0DBE0DBF0DB60BBD2AD8
:10058800FF30C6070318C70AFF30C707C41FCD2AA4
:10059800CE2AAD2AC001BF1FD22AD32AEF2AFF30A4
:1005A8003C05B600FF303D05B700FF303E05B800FA
:1005B8007F303F05B9003908380437043604031979
:1005C800E62AE72AEA2AC001C00AEF2A421CED2AD5
:1005D800EE2AEF2AE72A40080319F32AF42A252BE2
:1005E8000130C207003003180130C3070030031878
:1005F8000130C407003003180130C507451C052B1E
:10060800062B252B4208B6004308B7004408B8005B
:100618004508B9000130BA00390DB90CB80CB70C4F
:10062800B60CBA0B102B3908C5003808C4003708B7
:10063800C3003608C2000130C6070318C70A0030D5
:10064800C7074708803AFF0080307F02031D2E2B22
:10065800FF304602031C312B322B3D2B7F30831297
:100668000313C5008030C4000030C3000030C2004E
:10067800722B831203134708803AFF0080307F02F1
:10068800031D482B0130460203184B2B4C2B582BCB
:10069800003083120313C5000030C4000030C300CB
:1006A8000030C200BB01722B831203134608B60048
:1006B8003608C100FF30C205FF30C3057F30C405CE
:1006C8000030C505411C692B6A2B6B2BC4174108E8
:1006D800B6000310360CB7003708C5003B08B60053
:1006E8003608C5044508B1004408B0004308AF0007
:1006F8004208AE00080083160313BE00D0300A1665
:100708008A11FB210A128A1183160313111B8D2BE0
:100718008E2B882B3B300A168A11EB210A128A117C
:1007280083160313111B992B9A2B942B0A168A11E3
:10073800A6210A128A11D1300A168A11EB210A124F
:100748008A1183160313BC01BD0100300A168A11F1
:1007580091220A128A1183120313DC0083160313F1
:100768003C08A03E8400831203135C0883138000B6
:10077800013083160313BC070318BD0A0030BD07F8
:100788003D08803AFF0080307F02031DCD2B0D30DD
:100798003C02031CD02BD12BA92B01300A168A113D
:1007A80091220A128A1183120313DC005C08831653
:1007B8000313AD000A168A119D210A128A118316A5
:1007C8000313210883120313DC00DD0183160313CE
:1007D800200883120313DE00DF015E08DF00DE015C
:1007E8005C085E0483160313AE00831203135D08CE
:1007F8005F0483160313AF00230883120313DC007E
:10080800DD0183160313220883120313DE00DF01C0
:100818005E08DF00DE015C085E0483160313B00087
:10082800831203135D085F0483160313B1002508C0
:1008380083120313DC00DD018316031324088312DB
:100848000313DE00DF015E08DF00DE015C085E04E2
:1008580083160313B200831203135D085F04831623
:100868000313B300270883120313DC00DD0183168A
:100878000313260883120313DE00DF015E08DF007E
:10088800DE015C085E0483160313B40083120313AD
:100898005D085F0483160313B50029088312031348
:1008A800DC00DD0183160313280883120313DE001E
:1008B800DF015E08DF00DE015C085E0483160313B7
:1008C800B600831203135D085F0483160313B70091
:1008D8002B0883120313DC00DD01831603132A0897
:1008E80083120313DE00DF015E08DF00DE015C080F
:1008F8005E0483160313B800831203135D085F04B4
:1009080083160313B9002D0883120313DC00DD01DD
:10091800831603132C0883120313DE00DF015E081D
:10092800DF00DE015C085E0483160313BA0083123D
:1009380003135D085F0483160313BB003A30831268
:100948000313B1001C30B000D030AF008630AE00C9
:10095800831603132E0883120313A00083160313B0
:100968002F0883120313A1000030A11BFF30A2003F
:10097800A30001300A168A1167250A128A11831208
:1009880003132308B5002208B4002108B300200887
:10099800B2000A128A111E200A128A118316031342
:1009A8003E088400831203132E0883138000840AF0
:1009B8002F088000840A30088000840A31088000EB
:1009C8003A30B1001C30B000D030AF008630AE00F5
:1009D80083160313300883120313A000831603132E
:1009E800310883120313A1000030A11BFF30A200BD
:1009F800A30001300A168A1167250A128A11831288
:100A080003132308B5002208B4002108B300200806
:100A1800B2000A128A111E200A128A1183160313C1
:100A28003E08043E8400831203132E0883138000BB
:100A3800840A2F088000840A30088000840A31085C
:100A480080003A30B1001C30B000D030AF008630A2
:100A5800AE0083160313320883120313A000831613
:100A68000313330883120313A1000030A11BFF30C6
:100A7800A200A30001300A168A1167250A128A11FA
:100A8800831203132308B5002208B4002108B30019
:100A98002008B2000A128A111E200A128A1183162F
:100AA80003133E08083E8400831203132E088313A1
:100AB8008000840A2F088000840A30088000840A95
:100AC800310880004230CB001230CA001E30C90005
:100AD800B830C8004330B100AA30B0000030AF00D1
:100AE8000030AE0083160313340883120313A000EA
:100AF80083160313350883120313A1000030A11BCA
:100B0800FF30A200A30001300A168A1167250A12D5
:100B18008A11831203132308B5002208B4002108A0
:100B2800B3002008B2000A168A1123260A128A1175
:100B3800831203133108CF003008CE002F08CD00F0
:100B48002E08CC000A128A1578250A128A118316F3
:100B580003133E080C3E84008312031348088313D2
:100B68008000840A49088000840A4A088000840AB0
:100B78004B0880003B30B100FA30B0000530AF00C0
:100B88001430AE0083160313360883120313A00033
:100B980083160313370883120313A1000030A11B27
:100BA800FF30A200A30001300A168A1167250A1235
:100BB8008A11831203132308B5002208B400210800
:100BC800B3002008B2000A128A111E200A128A11E4
:100BD800831603133E08103E8400831203132E0865
:100BE80083138000840A2F088000840A300880005C
:100BF800840A310880003B30B100FA30B00005307B
:100C0800AF001430AE0083160313380883120313A1
:100C1800A00083160313390883120313A1000030C0
:100C2800A11BFF30A200A30001300A168A11672514
:100C38000A128A11831203132308B5002208B4008C
:100C48002108B3002008B2000A128A111E200A12D5
:100C58008A11831603133E08143E8400831203137B
:100C68002E0883138000840A2F088000840A300825
:100C78008000840A310880003B30B100FA30B000AF
:100C88000530AF001430AE00831603133A08831200
:100C98000313A000831603133B0883120313A10058
:100CA8000030A11BFF30A200A30001300A168A11F0
:100CB80067250A128A11831203132308B500220834
:100CC800B4002108B3002008B2000A128A111E20BD
:100CD8000A128A11831603133E08183E84008312F1
:100CE80003132E0883138000840A2F088000840AC7
:100CF80030088000840A310880000800DF30831241
:100D08000313EA006A0883160313A8008312031367
:100D18006708A3006608A2006508A1006408A0008F
:100D28000030A7000030A6000030A5000030A40065
:100D38000A168A11C3240A128A110318A42EA52E92
:100D4800D12E2D3083120313EA00831603132808CB
:100D58008400831203136A08831380000130EA00B9
:100D68006A0883160313A807831203136708A300EE
:100D78006608A2006508A1006408A0000A168A1186
:100D8800DE210A128A11831203132308E7002208BE
:100D9800E6002108E5002008E40083120313670831
:100DA800CB006608CA006508C9006408C8000A16AE
:100DB8008A1147240A128A11831203134B088316D7
:100DC8000313A700831203134A0883160313A6000C
:100DD80083120313490883160313A5008312031310
:100DE800480883160313A400270883120313A300DB
:100DF80083160313260883120313A2008316031312
:100E0800250883120313A1008316031324088312F1
:100E18000313A00000300A168A1167250A128A11E6
:100E2800831203132308DF002208DE002108DD00F7
:100E38002008DC006708E3006608E2006508E100B6
:100E48006408E0000A168A111D220A128A11831208
:100E580003135F08E7005E08E6005D08E5005C082C
:100E6800E4006708B5006608B4006508B3006408C4
:100E7800B2004930B1007430B0002430AF00003007
:100E8800AE000A128A111E200A128A118312031355
:100E98003108CB003008CA002F08C9002E08C80046
:100EA8000A168A1147240A128A11831203134B085F
:100EB80083160313A300831203134A08831603132C
:100EC800A20083120313490883160313A100831297
:100ED8000313480883160313A00029308312031351
:100EE800EA006A08B600831603132708831203135F
:100EF800BA0083160313260883120313B900831656
:100F08000313250883120313B80083160313240858
:100F180083120313B70083160313230883120313E2
:100F2800BE0083160313220883120313BD00831621
:100F38000313210883120313BC008316031320082C
:100F480083120313BB008316031328080A128A1599
:100F58002C230A128A11DF300800FF1BBB2F8313D2
:100F68007F1883170008840A0319FF0A080007304E
:100F78008A000408840A82070034013400340034EB
:100F880000340A340034003400346434003400344B
:100F98000034E83403340034003410342734003487
:100FA8000034A034863401340034403442340F34E1
:100FB800003480349634983400340034E134F53405
:100FC80005340034CA349A343B3425346C347534CF
:100FD8002E34253436342E3436346C34753400349B
:100FE800203400348316031391161116111AFD2F9D
:060FF800FE2FFA2F080095
:1010040083120313A600A201A3017608A000A10184
:101014002008A4002108A500261C1128122818283D
:101024002408A2070318A30A2508A3070130031004
:10103400A40DA50DFF3E031D19280310A60C2608B8
:10104400031D252826280E282308F7002208F60069
:1010540008000A168A1194210A128A15D0300A1639
:101064008A11EB210A128A156B300A168A11EB21B8
:101074000A128A1501300A168A11EB210A128A15FE
:101084000A168A119D210A128A150A168A119421B8
:101094000A128A15D0300A168A11EB210A128A150F
:1010A40000300A168A11EB210A128A150A168A11CF
:1010B4009D210A128A150A168A1194210A128A1588
:1010C400D0300A168A11EB210A128A1519300A1631
:1010D4008A11EB210A128A1508300A168A11EB21AB
:1010E4000A128A150A168A119D210A128A150A16ED
:1010F4008A1194210A128A15D0300A168A11EB211A
:101104000A128A151A300A168A11EB210A128A1554
:1011140000300A168A11EB210A128A150A168A115E
:101124009D210A128A150A168A1194210A128A1517
:10113400D0300A168A11EB210A128A151B300A16BE
:101144008A11EB210A128A1500300A168A11EB2142
:101154000A128A150A168A119D210A128A150A167C
:101164008A1194210A128A15D0300A168A11EB21A9
:101174000A128A151C300A168A11EB210A128A15E2
:1011840000300A168A11EB210A128A150A168A11EE
:101194009D210A128A150A168A1194210A128A15A7
:1011A40068300A168A11EB210A128A156C300A1665
:1011B4008A11EB210A128A1500300A168A11EB21D2
:1011C4000A128A150A168A119D210A128A15080024
:1011D400063083120313ED001330EC00AD30EB0046
:1011E400EB0BF228EC0BF228ED0BF2288316031715
:1011F40088018316031385018312031385010A16DC
:101204008A11C4210A128A15003083120313B00014
:101214000030AF004B30AE000030AD00B101B10A78
:101224000A168A11D4230A128A150A128A152B2047
:101234000A128A158B170B17831603138C16BF30EB
:101244000A128A117F230A128A15831603135E1C5D
:101254002C292D2921290130DE024208831203138F
:10126400E70083160313410883120313E600831671
:101274000313400883120313E500831603133F0886
:1012840083120313E400831603135B08831203130E
:10129400E800831603135C0883120313E9000A129F
:1012A4008A1182260A128A1583120313EB006B0833
:1012B40083160313DD005D0883120313A0000030BE
:1012C400A1000630EB006B08A2000A168A11152350
:1012D4000A128A150430BF3E840083130008831267
:1012E4000313E400840A0008E500840A0008E60009
:1012F400840A0008E700831603135B0883120313B0
:10130400E800831603135C0883120313E9000A122E
:101314008A1182260A128A1583120313EB006B08C2
:1013240083160313DD00343083120313A0008030CE
:10133400A1000A30EB006B08A2000A168A111523DB
:101344000A128A15831603135D0883120313A0007F
:101354000030A1000630EB006B08A2000A168A11C7
:1013640015230A128A150830BF3E8400831300082F
:1013740083120313E400840A0008E500840A0008C9
:10138400E600840A0008E700831603135B0883124F
:101394000313E800831603135C0883120313E900A4
:1013A4000A128A1182260A128A1583120313EB0089
:1013B4006B0883160313DD00343083120313A0007B
:1013C4008030A1000A30EB006B08A2000A168A11D3
:1013D40015230A128A15831603135D088312031357
:1013E400A0000030A1000630EB006B08A2000A1632
:1013F4008A1115230A128A150C30BF3E8400831308
:10140400000883120313E400840A0008E500840A38
:101414000008E600840A0008E700831603135B084B
:1014240083120313E800831603135C088312031367
:10143400E9000A128A1182260A128A1583120313FA
:10144400EB006B0883160313DD003430831203139F
:10145400A0008030A1000A30EB006B08A2000A163D
:101464008A1115230A128A15831603135D08831241
:101474000313A0000030A1000630EB006B08A200AB
:101484000A168A1115230A128A151030BF3E8400E9
:101494008313000883120313E400840A0008E500A0
:1014A400840A0008E600840A0008E7008316031390
:1014B4005B0883120313E800831603135C0883128A
:1014C4000313E9000A128A1182260A128A1583126A
:1014D4000313EB006B0883160313DD00343083120F
:1014E4000313A0008030A1000A30EB006B08A200B7
:1014F4000A168A1115230A128A15831603135D0826
:1015040083120313A0000030A1000630EB006B0827
:10151400A2000A168A1115230A128A151430BF3E36
:1015240084008313000883120313E400840A000870
:10153400E500840A0008E600840A0008E700831630
:1015440003135B0883120313E800831603135C0878
:1015540083120313E9000A128A1182260A128A15D9
:1015640083120313EB006B0883160313DD0034307E
:1015740083120313A0008030A1000A30EB006B0833
:10158400A2000A168A1115230A128A158316031358
:101594005D0883120313A0000030A1000630EB00A5
:1015A4006B08A2000A168A1115230A128A1518302C
:1015B400BF3E84008313000883120313E400840AEB
:1015C4000008E500840A0008E600840A0008E70031
:1015D400831603135B0883120313E80083160313B3
:1015E4005C0883120313E9000A128A1182260A1284
:1015F4008A1583120313EB006B0883160313DD00B3
:10160400343083120313A0008030A1000A30EB00B1
:101614006B08A2000A168A1115230A128A1583166A
:1016240003135D0883120313A0000030A1000630E9
:10163400EB006B08A2000A168A1115230A128A15F8
:101644000A300A168A11B8210A128A1521290A12A7
:101654008A110E2883120313CA003730BF003F08D3
:10166400C500612D25304F060319392B3A2B462B23
:101674004F08BF004A0884003F08831380000130EC
:10168400BF003F08CA07612DCB01CC01C401360855
:1016940084000A128A11BB270A128A150A168A11B3
:1016A4000B220A128A15031C582B592B992B8312CF
:1016B4000313CB01CC010A3083120313A0000030C2
:1016C400A1004C08A3004B08A2000A168A1141226B
:1016D4000A128A15831203132108CC002008CB00B8
:1016E400360884000A128A11BB270A128A15D03ED2
:1016F400BF00FF3003180030C0003F08CB070318B9
:10170400CC0A4008CC070130BF003F08B6073608B2
:1017140084000A128A11BB270A128A150A168A1132
:101724000B220A128A150318982B992B5D2B83120E
:101734000313360884000A128A11BB270A128A1579
:101744002E3A031DA62BA72BEB2B0130BF003F081D
:10175400B607CD01CE01DA2B0A3083120313A000A1
:101764000030A1004E08A3004D08A2000A168A11F9
:1017740041220A128A15831203132108CE0020087D
:10178400CD00360884000A128A11BB270A128A1572
:10179400D03EBF00FF3003180030C0003F08CD0723
:1017A4000318CE0A4008CE070130BF003F08B60731
:1017B400360884000A128A11BB270A128A150A16EF
:1017C4008A110B220A128A150318E92BEA2BAE2B75
:1017D400F52BCD01CE01F52B4416F52BC030BF00FF
:1017E4003F08C404142C013083120313B607FF30DE
:1017F400360784000A128A11BB270A128A15CF0001
:10180400BF00C0014008003A0319092C612D3F08AC
:10181400003A0319732D6C3A0319EE2B193A031984
:10182400F02B612D441E172C182C2B2C45088400FA
:1018340083130008C600840A0008C700840A00084D
:10184400C800840A0008C9000430BF003F08C50767
:101854003D2C4508840083130008BF00840A000857
:10186400C0003F08C6004008C700C801C9010230D3
:10187400BF003F08C5074D084E04031D422C432CEE
:10188400512C4908480447044604031D4A2C4B2C98
:10189400512C0130CD070318CE0A0030CE07CF01FA
:1018A400CF0A4F08BF0001300310BF0DFF3E031DD8
:1018B400562C03103F0D013E84000A128A11BB27E7
:1018C4000A128A15C0000A128A11BB270A128A1545
:1018D400C1000A128A11BB270A128A15C2000A1211
:1018E4008A11BB270A128A15C30043084902031D43
:1018F400852C42084802031D852C41084702031D1C
:10190400852C400846020318882C892C8A2C942C98
:101914000130BF003F08CF070A304F06031D932C48
:10192400942C532C4E08803A803C031D9B2C4D086C
:101934004F0203189E2C9F2CA62C831203134D08D0
:10194400BF003F08CF00BE2C831203134E08803A19
:10195400BF0080303F02031DB12C4F084D02031815
:10196400B42CB52CBE2C831203134F08BF00C00146
:101974003F08CD004008CE00831203134C08803A80
:10198400803C031DC72C4B084F020318CA2CCB2CD8
:10199400D72C831203134F08BF00C0013F08CB02AA
:1019A4004008031CCC03CC02DB2C83120313CB01B1
:1019B400CC014B084C040319E02CE12C532D2030AE
:1019C400BF004A0884003F08831380000130BF0031
:1019D4003F08CA07FF30CB070318CC0AFF30CC07F7
:1019E4004B084C04031DF72CF82CE12C532D00302C
:1019F400B0000030AF000030AE000A30AD004D083A
:101A0400BF0001300310BF0DFF3E031D042D031062
:101A14003F0D013E84000A128A11BB270A128A155F
:101A2400A0000A128A11BB270A128A15A1000A1201
:101A34008A11BB270A128A15A2000A128A11BB272F
:101A44000A128A15A3004908A7004808A6004708F7
:101A5400A5004608A4000A168A116C230A128A15E6
:101A6400831203132308B4002208B3002108B20030
:101A74002008B1000A168A11BF220A128A1583129D
:101A840003132D08303EC0004008CF004F08BF00AC
:101A94004A0884003F08831380000130BF003F08D8
:101AA400CA07FF30CD070318CE0AFF30CE074D0A10
:101AB400031D602D4E0A031D602D612DF92C01308C
:101AC400B607FF30360784000A128A11BB270A12B0
:101AD4008A15BF003F08CF004F08031D722D732DD8
:101AE400342B4A08840083138001080083120313F3
:101AF4004B088039D0005008D8004B08D00050075C
:101B0400D1005108DA00CA1F882D892D8A2D5A1454
:101B14005A0803198E2D8F2D9F2D5A0A031D932DBC
:101B2400942D9C2D0030CB000030CA000030C90039
:101B34000030C800CA17CB01A72D0030CB000030FD
:101B4400CA000030C9000030C8004F088039D000F6
:101B54005008D900590858060319B12DB22DB32DD8
:101B640058174F08D0005007D1005108D900CE1F94
:101B7400BC2DBD2DBE2D591459080319C22DC32DDA
:101B8400D32D590A031DC72DC82DD02D0030CF00E9
:101B94000030CE000030CD000030CC00CE17CF0195
:101BA400DB2D0030CF000030CE000030CD000030FF
:101BB400CC005A0859020318E02DE12D252E581F98
:101BC400E42DE52DE92D8030D0005008D8065A08C0
:101BD400D0005008DB005908D0005008DA005B0838
:101BE400D0005008D9004808D0005008DB004C0849
:101BF400D0005008C8005B08D0005008CC00490849
:101C0400D0005008DB004D08D0005008C9005B0824
:101C1400D0005008CD004A08D0005008DB004E0820
:101C2400D0005008CA005B08D0005008CE004B0812
:101C3400D0005008DB004F08D0005008CB005B08F0
:101C4400D0005008CF00DB015908D000D101510861
:101C5400D3005A085002D200031CD3035308803A1D
:101C6400FF0080307F02031D392E1A305202031CFC
:101C74003C2E3D2E7A2E831203134B084A0449044A
:101C84004804031D462E482E0130492E0030D00052
:101C94005008DB000030CB000030CA000030C9001F
:101CA4000030C8005908D0005008DA00822E5B1CAE
:101CB4005C2E5D2E662E5B08D0000310500C01389C
:101CC400D1005108DB00682E0310DB0C481C6B2E7E
:101CD4006C2E6D2EDB170130D0004B0DCB0CCA0CD3
:101CE400C90CC80CD00B6F2E0130D0005008DA0795
:101CF4008312031359085A02031C812E822E592E73
:101D0400581B852E862ED12E5A08031D8A2E8B2E03
:101D1400942E0030CB000030CA000030C9000030DF
:101D2400C800FF2F4C08C8074D0803110318013ED3
:101D340003199D2EC9074E0803110318013E031908
:101D4400A42ECA074F0803110318013E0319AB2E32
:101D5400CB074B1CAE2EAF2E852F5B1CB22EB32EA1
:101D6400BC2E5B08D0000310500C0138D100510880
:101D7400DB00BE2E0310DB0C481CC12EC22EC32E6A
:101D8400DB170130D0004B0DCB0CCA0CC90CC80CAE
:101D9400D00BC52E0130D0005008DA07852F4B0830
:101DA400803AFF004F08803A7F02031DE32E4E085D
:101DB4004A02031DE32E4D084902031DE32E4C087D
:101DC40048020318E62EE72E3F2FFF30D000FF30E5
:101DD400D100FF30D200FF30D3004C08D4004D08AE
:101DE400D5004E08D6004F08D7004808D402490849
:101DF400031C490FFE2EFF2ED5024A08031C4A0F6E
:101E0400042F052FD6024B08031C4B0F0A2F0B2F50
:101E1400D7025408D00755080318550F122F132F53
:101E2400D10756080318560F182F192FD207570831
:101E34000318570AD3075308CB005208CA005108A5
:101E4400C9005008C8008030D0005008D806DB090B
:101E5400DB0A5B08031D2F2F302F4D2F0130C807DD
:101E6400003003180130C907003003180130CA07D5
:101E7400003003180130CB074D2F4C08C8024D0821
:101E8400031C4D0FC9024E08031C4E0FCA024F0813
:101E9400031C4F0FCB024B084A0449044804031D9A
:101EA400542F552F812F5B08031D592F5A2F812F33
:101EB4000030CB000030CA000030C9000030C80038
:101EC400FF2F0130D0000310C80DC90DCA0DCB0D72
:101ED400D00B652FDB1F6F2F702F712F48145B1CE5
:101EE400742F752F782F0314DB0D7A2F0310DB0D5D
:101EF4005A0803197E2F7F2F812F0130DA02CA1F5F
:101F0400842F852F632FD901DB1F892F8A2F982FC8
:101F14005B087F3903198F2F902F932FD901D90A8A
:101F2400982F481C962F972F982F902F59080319F4
:101F34009C2F9D2FD12F0130C8070030031801308A
:101F4400C907003003180130CA07003003180130F4
:101F5400CB074B1CAE2FAF2FD12F4808D000490818
:101F6400D1004A08D2004B08D3000130D400530DED
:101F7400D30CD20CD10CD00CD40BB92F5308CB00FA
:101F84005208CA005108C9005008C8005A0A031967
:101F9400CC2FCD2FD12F0130D0005008DA075A0AA8
:101FA4000319D52FD62FDB2F5A08031DDA2FDB2F69
:101FB400E92F0030CB000030CA000030C9000030E7
:101FC400C8005A08031DE72FE82FE92FD8015A1C2F
:101FD400EC2FED2FEF2FCA17F32F7F30D0005008CE
:101FE400CA055A08D0000310500CD1005108CB0088
:0C1FF400D81FFD2FFE2FFF2FCB17080079
:1023180064008001840A04060319003404068D2928
:102328000A168A11D1210A168A1183160313111469
:1023380008000A168A11D1210A168A118316031376
:10234800111508000A168A11D1210A168A11831656
:102358000313911408008316031391121116111A0E
:10236800B629B729B3290800F60083160313981C69
:10237800BE29BF29B92976088312031399000800DA
:1023880028308312031394008316031391019401D8
:1023980009309300871507160800831603131419CC
:1023A800D629D729D12911081F39031DDC29DD2990
:1023B800D1290800831203132308220421042004CE
:1023C8000319E729E829EA298030A3060800F6005E
:1023D8000A168A11D1210A168A1176088312031364
:1023E80093008C1DF829F929F5298C110800F700AC
:1023F8000A168A11D1210A168A1183160313111499
:1024080077080A168A11EB210A168A110800F700C4
:10241800F6013A3077020318122A132A1B2A3030A1
:102428007702031C182A192A1B2AF601F60A760CC9
:102438000800803083120313DF066308CB006208AC
:10244800CA006108C9006008C8005F08CF005E08BC
:10245800CE005D08CD005C08CC000A128A157825EC
:102468000A168A11831203134B08DF004A08DE009C
:102478004908DD004808DC000800F601F70183126E
:102488000313201C482A492A4F2A2208F607031852
:10249800F70A2308F70701300310A20DA30DFF3E2A
:1024A800031D502A01300310A10CA00CFF3E031D90
:1024B800572A20082104031D622A632A432A770821
:1024C800A1007608A0000800831203138C1E6D2A51
:1024D8006E2A882A1A08F0007008F5007B2A8316ED
:1024E80003135E080138F0007008DE00882A7508BA
:1024F800F000F1017108003A0319832A882A70084C
:10250800473A0319732A882A74088A0073088400D2
:10251800720E8300FE0E7E0E090083120313A000C4
:102528000A168A11D1210A168A11831603139115E6
:10253800141C9F2AA02A9C2A831203131308F6004E
:102548007608A1002008031DAA2AAB2AB12A0A1678
:102558008A11AF210A168A11B62A0A128A11F62799
:102568000A168A11831203138C1DBB2ABC2AB62AA9
:102578008C11210808008312031330082F042E043D
:102588002D040319C82AC92A0C2BB501B50AD92A62
:102598000130F7000310AD0DAE0DAF0DB00DF70B08
:1025A800CE2A0130F7007708B507B01FDC2ADD2AEC
:1025B800CC2A30083402031DEB2A2F083302031DEE
:1025C800EB2A2E083202031DEB2A2D083102031CC8
:1025D800EE2AEF2AFD2A2D08B1022E08031C2E0F21
:1025E800B2022F08031C2F0FB3023008031C300F50
:1025F800B40201300310B00CAF0CAE0CAD0CFF3EB2
:10260800031DFE2A0130B502031D0B2B0C2BDD2AFE
:102618003408B0003308AF003208AE003108AD000E
:10262800080083120313A601A701A601A701402BE6
:1026380026082007A4002108A3000318A30AA61F40
:10264800262BA303831203132308A5002508FF00E4
:10265800240884000A128A11B1270A168A110A1658
:102668008A11B8210A168A11013083120313A607AA
:102678000318A70A0030A7072708803AA30080306C
:102688002302031D492B2208260203184C2B4D2B2D
:102698006B2B8312031326082007A4002108A3002C
:1026A8000318A30AA61F592BA30383120313230895
:1026B800A5002508FF00240884000A128A11B12702
:1026C8000A168A11003A031D6A2B6B2B1C2B080073
:1026D800003083120313AB000030AA000030A900B9
:1026E8000030A800230822042104200403197D2BAC
:1026F8007E2BCB2BAC01AC0A8E2B0130F6000310DD
:10270800A00DA10DA20DA30DF60B832B0130F60031
:102718007608AC07A31F912B922B812B0130F60072
:102728000310A80DA90DAA0DAB0DF60B942B2308C9
:102738002702031DA92B22082602031DA92B210805
:102748002502031DA92B20082402031CAC2BAD2B4A
:10275800BC2B2008A4022108031C210FA502220873
:10276800031C220FA6022308031C230FA702281408
:1027780001300310A30CA20CA10CA00CFF3E031DFA
:10278800BD2B0130AC02031DCA2BCB2B922B2B087F
:10279800A3002A08A2002908A1002808A000080010
:1027A800831203133108031DDA2BDB2B0A2C2D08A7
:1027B800B2002E08B3002F08B4003008B500063068
:1027C8000310B20DB30DB40DB50DFF3E031DE42B80
:1027D8003508A3003408A2003308A1003208A0007D
:1027E8000030A7003D30A6000930A5000030A40045
:1027F8000A168A116C230A168A11831203132008F9
:10280800FF3E8316031399001811382C2D08B200C7
:102818002E08B3002F08B4003008B50004300310A8
:10282800B20DB30DB40DB50DFF3E031D132C3508C5
:10283800A3003408A2003308A1003208A000003029
:10284800A7003D30A6000930A5000030A4000A16F4
:102858008A116C230A168A11831203132008FF3E7B
:102868008316031399001815181398161812831253
:1028780003139817181318161811981083160313B2
:102888008717071308000310831203134A0D4B0D13
:10289800CC004C08D2005208031D532C542C5D2C3C
:1028A8000030CB000030CA000030C9000030C8003A
:1028B800C22C4808CC004908CD004A08CE004B0875
:1028C800CF001F300310CF0CCE0CCD0CCC0CFF3E2C
:1028D800031D662C4C08D0005008D100CA17FF30E1
:1028E800C805FF30C905FF30CA050030CB05963052
:1028F800D202D21F802C812C9B2C5208803A973E02
:102908000318872C882C892C542C01300310CB0CED
:10291800CA0CC90CC80CFF3E031D8A2C0130CC0020
:102928004C08D207031D992C9A2C892CB22C2030E4
:102938005202031CA02CA12CAD2C542C0130CC002D
:102948000310C80DC90DCA0DCB0DCC0BA42C01303A
:10295800D2025208031DB12CB22CA22C5108031923
:10296800B62CB72CC22CC809C909CA09CB09C80A90
:102978000319C90A0319CA0A0319CB0A0800003047
:10298800831203132005A80000302105A900803018
:102998002205AA007F302305AB002B082A0429044E
:1029A8002804031DD82CD92CE12C0030A3000030BA
:1029B800A2000030A1000030A00000302405A800CB
:1029C80000302505A90080302605AA007F3027059C
:1029D800AB002B082A0429042804031DF42CF52C29
:1029E800FD2C0030A7000030A6000030A500003004
:1029F800A400A31F002D012D252D0030A8000030B4
:102A0800A9000030AA008030AB002008A8022108E5
:102A1800031C210F102D112DA9022208031C220FBF
:102A2800162D172DAA022308031C230F1C2D1D2D5C
:102A3800AB022B08A3002A08A2002908A100280835
:102A4800A000A71F282D292D4D2D0030A8000030EB
:102A5800A9000030AA008030AB002408A80225088D
:102A6800031C250F382D392DA9022608031C260F13
:102A78003E2D3F2DAA022708031C270F442D452D64
:102A8800AB022B08A7002A08A6002908A5002808D9
:102A9800A4008030A3068030A70627082302031D60
:102AA8005F2D26082202031D5F2D25082102031D24
:102AB8005F2D240820020318622D632D652D031055
:102AC800662D0314080083120313A80028080319AD
:102AD8006E2D6F2D832DA31F722D732D832D20092D
:102AE800AA002109AB002209AC002309AD00AA0AFB
:102AF8000319AB0A0319AC0A0319AD0A8B2D230875
:102B0800AD002208AC002108AB002008AA00230869
:102B1800220421042004031D922D932D9C2D0030A6
:102B2800A3000030A2000030A1000030A000222E37
:102B38009630A4002408A900AE2D0130A400240872
:102B4800A90701300310AD0CAC0CAB0CAA0CFF3E6E
:102B5800031DA62DFE302D05031DB32DB42DA12D6B
:102B6800D02D0130A4002408A9070130AA0700309D
:102B780003180130AB07003003180130AC070030F0
:102B880003180130AD0701300310AD0CAC0CAB0CD1
:102B9800AA0CFF3E031DC82DFF302D05031DD52DA2
:102BA800D62DB52DE22D0130A9020130A400031065
:102BB800AA0DAB0DAC0DAD0DA40BDB2DAC1BE52D9B
:102BC800E62DEC2D023029020318EB2DEC2DD72D24
:102BD8002918EF2DF02DF82DFF30AA05FF30AB0591
:102BE8007F30AC05FF30AD050310A90C2908A400FF
:102BF800A501A601A70118300310A40DA50DA60D67
:102C0800A70DFF3E031D002E2408AA042508AB04C7
:102C18002608AC042708AD0428080319142E152E1D
:102C28001A2EA31F182E192E1A2EAD172D08A30021
:102C38002C08A2002B08A1002A08A0000800831273
:102C4800031335088039B6003608BF003508B600CA
:102C58003607B7003708C600B41F332E342E352E7A
:102C6800461446080319392E3A2E4A2E460A031DE1
:102C78003E2E3F2E472E0030B5000030B400003005
:102C8800B3000030B200B417B501522E0030B500C1
:102C98000030B4000030B3000030B2003108803991
:102CA800B6003608BF063108B6003607B700370841
:102CB800C700B01F602E612E622E47144708031903
:102CC800662E672E772E470A031D6B2E6C2E742EE8
:102CD8000030B1000030B0000030AF000030AE006E
:102CE800B017B1017F2E0030B1000030B0000030C5
:102CF800AF000030AE00310830042F042E04031D4D
:102D0800862E872EA02E0030B5000030B40000308B
:102D1800B3000030B2008030B4047F30B5043F08FF
:102D2800B6003608B5043508B1003408B0003308D9
:102D3800AF003208AE00FF2F4608031DA42EA52EB3
:102D4800AE2E0030B1000030B0000030AF000030CF
:102D5800AE00FF2F4608B600B7013708B90047088C
:102D68003602B800031CB90338087F3EC000390892
:102D78000318013E003EC1003508BE003408BD00FE
:102D88003308BC003208BB000030B5000030B40086
:102D98000030B3000030B2000030C5000030C4007D
:102DA8000030C3000030C200C701242F47080319B0
:102DB800DE2EDF2EFF2E0130B6000310BB0DBC0D3A
:102DC800BD0DBE0DB60BE12E0130B6000310B20DDD
:102DD800B30DB40DB50DB60BEA2EC51FF42EF52EA6
:102DE800F62E32140130B6000310C20DC30DC40D07
:102DF800C50DB60BF82E31083E02031D0D2F300805
:102E08003D02031D0D2F2F083C02031D0D2F2E0818
:102E18003B02031C102F112F202F45172E08BB0231
:102E28002F08031C2F0FBC023008031C300FBD02F3
:102E38003108031C310FBE020130B6003608C7073F
:102E48001A304702031C292F2A2FDA2E3E083D0488
:102E58003C043B040319312F322F512F4214512FB8
:102E68000130B6000310B20DB30DB40DB50DB60B9D
:102E7800362FC51F402F412F422F32140130B60084
:102E88000310C20DC30DC40DC50DB60B442FFF3082
:102E9800C0070318C10AFF30C107B41F542F552FAC
:102EA800342FC701C51F592F5A2F762FFF304205DF
:102EB800B600FF304305B700FF304405B8007F3047
:102EC8004505B900390838043704360403196D2F4D
:102ED8006E2F712FC701C70A762F321C742F752FDA
:102EE800762F6E2F470803197A2F7B2FAC2F0130CE
:102EF800B207003003180130B3070030031801305F
:102F0800B407003003180130B507351C8C2F8D2FFE
:102F1800AC2F3208B6003308B7003408B8003508BB
:102F2800B9000130BA00390DB90CB80CB70CB60CA1
:102F3800BA0B972F3908B5003808B4003708B30022
:102F48003608B2000130C0070318C10A0030C107B3
:102F58004108803AFF0080307F02031DB52FFF3003
:102F68004002031CB82FB92FC72FFF308312031359
:102F7800C0000030C1000030B5000030B40000309F
:102F8800B3000030B200831203134108803AFF00F7
:102F980080307F02031DD22F013040020318D52F45
:102FA800D62FE32F83120313C001C1010030B500EF
:102FB8000030B4000030B3000030B200BF0183120B
:102FC80003134008B6003608C600461CEC2FED2F48
:102FD800EF2FB417F32F7F30B6003608B405460834
:102FE800B6000310360CB7003708B5003F08B60026
:082FF8003608B504972E08000D
:04400E00D420FF3F7C
:00000001FF
