:020000040000FA
:060000000A128A110C280F
:10000800FE00030EF1000A08F2000A168A11ED2A12
:100018000A128A110F28FA018313C0308400D230E3
:100028000A168A1167220A128A1183010A128A158E
:10003800E728831203132D088039B2003208B7006D
:100048002D08B2003207B3003308BD00AC1F2D28BD
:100058002E282F283D143D08031933283428432817
:100068003D0A031D3828392841280030AD000030EA
:10007800AC000030AB000030AA00AC174B280030B1
:10008800AD000030AC000030AB000030AA003108F1
:100098008039B2003208B7063108B2003207B3001F
:1000A8003308B800B01F59285A285B283814380874
:1000B80003195F2860286F28380A031D64286528FB
:1000C8006D280030B1000030B0000030AF000030C3
:1000D800AE00B01777280030B1000030B000003013
:1000E800AF000030AE00380803197B287C2881282F
:1000F8003D08031D802881288A280030AD00003083
:10010800AC000030AB000030AA007D2B2A08B200FA
:100118003208F30030080A128A1502200A128A11DE
:10012800740883120313C3007308C2004208B200A4
:10013800B301B401B5013508BC003408BB0033086D
:10014800BA003208B9004308B200B301B401B501DE
:100158003508C1003408C0003308BF003208BE00AB
:100168002B08B2003208F3002F080A128A15022061
:100178000A128A11740883120313C3007308C20099
:100188004208B200B301B401B5013208B907330817
:1001980003110318013E0319D228BA0734080311C2
:1001A8000318013E0319D928BB07350803110318A2
:1001B800013E0319E028BC074308B200B301B401AB
:1001C800B5013208BE07330803110318013E0319AD
:1001D800EE28BF07340803110318013E0319F52858
:1001E800C007350803110318013E0319FC28C1078D
:1001F8002C08B2003208F3002E080A128A150220D1
:100208000A128A11740883120313C3007308C20008
:100218004208B200B301B401B5013208B907330886
:1002280003110318013E03191A29BA0734080311E8
:100238000318013E03192129BB07350803110318C8
:10024800013E03192829BC074308B200B301B401D1
:10025800B5013208BE07330803110318013E03191C
:100268003629BF07340803110318013E03193D2935
:10027800C007350803110318013E03194429C107B3
:100288000830B2000310B90DBA0DBB0DBC0DB20B8E
:1002980046292B08B2003208F3002E080A128A15E4
:1002A80002200A128A11740883120313C300730808
:1002B800C2004208B2004308B300B401B5013208D5
:1002C800B907330803110318013E03196C29BA074B
:1002D800340803110318013E03197329BB073508B5
:1002E80003110318013E03197A29BC072A08B20032
:1002F8003208F3002F080A128A1502200A128A11FE
:10030800740883120313C3007308C2004208B200C2
:100318004308B300B401B5013208B9073308031123
:100328000318013E03199929BA0734080311031861
:10033800013E0319A029BB07350803110318013E24
:100348000319A729BC070830B2000310B90DBA0D6C
:10035800BB0DBC0DB20BA9292A08B2003208F30064
:100368002E080A128A1502200A128A1174088312AA
:100378000313C3007308C2004208B2004308B30065
:10038800B401B5013208B907330803110318013E57
:100398000319CF29BA07340803110318013E0319BA
:1003A800D629BB07350803110318013E0319DD29B7
:1003B800BC072B08B2003208F30030080A128A156D
:1003C80002200A128A11740883120313C3007308E7
:1003D800C2004208B2004308B300B401B5013208B4
:1003E800BE07330803110318013E0319FC29BF0790
:1003F800340803110318013E0319032AC0073508FE
:1004080003110318013E03190A2AC1072C08B20078
:100418003208F3002F080A128A1502200A128A11DC
:10042800740883120313C3007308C2004208B200A1
:100438004308B300B401B5013208BE0733080311FD
:100448000318013E0319292ABF07340803110318AA
:10045800013E0319302AC007350803110318013E6D
:100468000319372AC1072C08B2003208F3003008F4
:100478000A128A1502200A128A11740883120313B9
:10048800C3007308C2004208B2004308B300B401B5
:10049800B50108300310B20DB30DB40DB50DFF3E14
:1004A800031D4E2A3208BE07330803110318013E04
:1004B80003195F2ABF07340803110318013E031903
:1004C800662AC007350803110318013E03196D2A6F
:1004D800C1073908B2003A08B3003B08B4003C0829
:1004E800B50018300310B50CB40CB30CB20CFF3EB9
:1004F800031D762A3208BE07330803110318013E8C
:100508000319872ABF07340803110318013E03198A
:100518008E2AC007350803110318013E0319952ACE
:10052800C1070830B2000310B90DBA0DBB0DBC0DE0
:10053800B20B972A3D083807B200B301B30D320851
:10054800823EC20033080318013EFF3EC300C92A99
:100558000130B2000310BE0DBF0DC00DC10DB20BAE
:10056800AE2ABC1FB82AB92ABA2A3E140130B200F2
:100578000310B90DBA0DBB0DBC0DB20BBC2AFF3070
:10058800C2070318C30AFF30C307C01FCC2ACD2AED
:10059800AC2AB801BC1FD12AD22AEE2AFF3039056D
:1005A800B200FF303A05B300FF303B05B4007F309E
:1005B8003C05B50035083404330432040319E52A30
:1005C800E62AE92AB801B80AEE2A3E1CEC2AED2AE6
:1005D800EE2AE62A38080319F22AF32A242B0130D6
:1005E800BE07003003180130BF0700300318013080
:1005F800C007003003180130C107411C042B052B2C
:10060800242B3E08B2003F08B3004008B40041085C
:10061800B5000130B600350DB50CB40CB30CB20CF6
:10062800B60B0F2B3508C1003408C0003308BF00D3
:100638003208BE000130C2070318C30A0030C307DE
:100648004308803AFF0080307F02031D2D2BFF30C6
:100658004202031C302B312B3C2B7F3083120313B7
:10066800C1008030C0000030BF000030BE00712BD8
:10067800831203134308803AFF0080307F02031D72
:10068800472B0130420203184A2B4B2B572B0030C3
:1006980083120313C1000030C0000030BF000030D7
:1006A800BE00B701712B831203134208B20032084F
:1006B800BD00FF30BE05FF30BF057F30C0050030EC
:1006C800C1053D1C682B692B6A2BC0173D08B20079
:1006D8000310320CB3003308C1003708B2003208E7
:1006E800C1044108AD004008AC003F08AB003E081B
:1006F800AA00080083160313BE00D0300A168A1118
:10070800DD220A128A1183160313111B8C2B8D2BE1
:10071800872B3B300A168A11CD220A128A118316BA
:100728000313111B982B992B932B0A168A118122DC
:100738000A128A11D1300A168A11CD220A128A1198
:1007480083160313BC01BD0100300A168A114F231A
:100758000A128A1183120313D800831603133C0864
:10076800A03E8400831203135808831380000130CD
:1007780083160313BC070318BD0A0030BD073D08E4
:10078800803AFF0080307F02031DCC2B0D303C02E5
:10079800031CCF2BD02BA82B01300A168A114F230C
:1007A8000A128A1183120313D800580883160313F8
:1007B800AD000A168A1178220A128A1183160313C9
:1007C800210883120313D800D901831603132008C4
:1007D80083120313DA00DB015A08DB00DA01580838
:1007E8005A0483160313AE008312031359085B04DB
:1007F80083160313AF00230883120313D800D9010B
:1008080083160313220883120313DA00DB015A0844
:10081800DB00DA0158085A0483160313B000831268
:10082800031359085B0483160313B10025088312C8
:100838000313D800D9018316031324088312031362
:10084800DA00DB015A08DB00DA0158085A0483167B
:100858000313B2008312031359085B0483160313AE
:10086800B300270883120313D800D9018316031392
:10087800260883120313DA00DB015A08DB00DA01C9
:1008880058085A0483160313B40083120313590833
:100898005B0483160313B500290883120313D800D9
:1008A800D90183160313280883120313DA00DB0126
:1008B8005A08DB00DA0158085A0483160313B600F5
:1008C8008312031359085B0483160313B7002B081C
:1008D80083120313D800D901831603132A0883123D
:1008E8000313DA00DB015A08DB00DA0158085A045E
:1008F80083160313B8008312031359085B04831685
:100908000313B9002D0883120313D800D9018316E5
:1009180003132C0883120313DA00DB015A08DB00E7
:10092800DA0158085A0483160313BA008312031312
:1009380059085B0483160313BB003A308312031370
:10094800AD001C30AC00D030AB008630AA00831656
:1009580003132E08F3002F08F4000030F41BFF30B7
:10096800F500F60001300A128A152B200A128A11A6
:10097800760883120313B1007508B0007408AF003D
:100988007308AE000A128A111D200A128A118316F2
:1009980003133E088400831203132A088317800078
:1009A800840A2B088000840A2C088000840A2D08F9
:1009B80080003A30AD001C30AC00D030AB0086303F
:1009C800AA00831603133008F3003108F40000303E
:1009D800F41BFF30F500F60001300A128A152B20AF
:1009E8000A128A11760883120313B1007508B00041
:1009F8007408AF007308AE000A128A111D200A128B
:100A08008A11831603133E08043E840083120313DD
:100A18002A0883178000840A2B088000840A2C087F
:100A28008000840A2D0880003A30AD001C30AC00EC
:100A3800D030AB008630AA00831603133208F300C7
:100A48003308F4000030F41BFF30F500F6000130E5
:100A58000A128A152B200A128A11760883120313A8
:100A6800B1007508B0007408AF007308AE000A1230
:100A78008A111D200A128A11831603133E08083EA4
:100A88008400831203132A0883178000840A2B0822
:100A98008000840A2C088000840A2D0880004230D7
:100AA800C7001230C6001E30C500B830C40043303D
:100AB800AD00AA30AC000030AB000030AA008316AD
:100AC80003133408F3003508F4000030F41BFF303A
:100AD800F500F60001300A128A152B200A128A1135
:100AE800760883120313B1007508B0007408AF00CC
:100AF8007308AE000A168A1123260A128A11831275
:100B080003132D08CB002C08CA002B08C9002A089B
:100B1800C8000A128A1578250A128A118316031347
:100B28003E080C3E84008312031344088317800098
:100B3800840A45088000840A46088000840A470819
:100B480080003B30AD00FA30AC000530AB0014300B
:100B5800AA00831603133608F3003708F4000030A0
:100B6800F41BFF30F500F60001300A128A152B201D
:100B78000A128A11760883120313B1007508B000AF
:100B88007408AF007308AE000A128A111D200A12F9
:100B98008A11831603133E08103E84008312031340
:100BA8002A0883178000840A2B088000840A2C08EE
:100BB8008000840A2D0880003B30AD00FA30AC007C
:100BC8000530AB001430AA00831603133808F3006D
:100BD8003908F4000030F41BFF30F500F60001304E
:100BE8000A128A152B200A128A1176088312031317
:100BF800B1007508B0007408AF007308AE000A129F
:100C08008A111D200A128A11831603133E08143E06
:100C18008400831203132A0883178000840A2B0890
:100C28008000840A2C088000840A2D0880003B304C
:100C3800AD00FA30AC000530AB001430AA008316C2
:100C480003133A08F3003B08F4000030F41BFF30AC
:100C5800F500F60001300A128A152B200A128A11B3
:100C6800760883120313B1007508B0007408AF004A
:100C78007308AE000A128A111D200A128A118316FF
:100C880003133E08183E8400831203132A088317AF
:100C98008000840A2B088000840A2C088000840ABB
:100CA8002D0880000800C13083120313E60066088F
:100CB800EF006308A3006208A2006108A1006008B1
:100CC800A0000030A7000030A6000030A5000030CA
:100CD800A4000A168A117F250A128A110318752E94
:100CE800762E9A2E2D3083120313E6006F088400A7
:100CF8006608831380000130E6006608EF07630882
:100D0800F6006208F5006108F4006008F3000A16AE
:100D18008A119C220A128A11760883120313E300AF
:100D28007508E2007408E1007308E00083120313F9
:100D38006308C7006208C6006108C5006008C400EF
:100D48000A168A1103250A128A1183120313470807
:100D5800EE004608ED004508EC004408EB006E087C
:100D6800F6006D08F5006C08F4006B08F30000301D
:100D78000A128A152B200A128A1176088312031385
:100D8800DB007508DA007408D9007308D800630816
:100D9800DF006208DE006108DD006008DC000A167A
:100DA8008A1106230A128A11831203135B08E300CF
:100DB8005A08E2005908E1005808E0006308B10049
:100DC8006208B0006108AF006008AE004930AD00AD
:100DD8007430AC002430AB000030AA000A128A112B
:100DE8001D200A128A11831203132D08C7002C082C
:100DF800C6002B08C5002A08C4000A168A11032554
:100E08000A128A11831203134708EA004608E90008
:100E18004508E8004408E7002930E6006608B10004
:100E28006E08B5006D08B4006C08B3006B08B2001A
:100E38006A08B9006908B8006808B7006708B6000A
:100E48006F080A128A152C230A128A11C130080069
:100E58000A168A116F220A128A11D0300A168A11CC
:100E6800CD220A128A116B300A168A11CD220A1273
:100E78008A1101300A168A11CD220A128A110A161D
:100E88008A1178220A128A110A168A116F220A1206
:100E98008A11D0300A168A11CD220A128A1100301E
:100EA8000A168A11CD220A128A110A168A11782284
:100EB8000A128A110A168A116F220A128A11D03070
:100EC8000A168A11CD220A128A1119300A168A11B5
:100ED800CD220A128A1108300A168A11CD220A1266
:100EE8008A110A168A1178220A128A110A168A1198
:100EF8006F220A128A11D0300A168A11CD220A12DC
:100F08008A111A300A168A11CD220A128A11003063
:100F18000A168A11CD220A128A110A168A11782213
:100F28000A128A110A168A116F220A128A11D030FF
:100F38000A168A11CD220A128A111B300A168A1142
:100F4800CD220A128A1100300A168A11CD220A12FD
:100F58008A110A168A1178220A128A110A168A1127
:100F68006F220A128A11D0300A168A11CD220A126B
:100F78008A111C300A168A11CD220A128A110030F1
:100F88000A168A11CD220A128A110A168A117822A3
:100F98000A128A110A168A116F220A128A116830F7
:100FA8000A168A11CD220A128A116C300A168A1181
:100FB800CD220A128A1100300A168A11CD220A128D
:100FC8008A110A168A1178220A128A110800F40076
:100FD800F3013A3074020318F22FF32FFB2F30304D
:100FE8007402031CF82FF92FFB2FF301F30A730C7B
:020FF8000800EF
:1010040083120313A400A001A1017308F500F601E3
:101014007508A2007608A300241C11281228182899
:101024002208A0070318A10A2308A107013003100E
:10103400A20DA30DFF3E031D19280310A40C2408C0
:10104400031D252826280E282108F4002008F30073
:10105400080083120313A400240803193228332838
:101064004728F61F3628372847287309A60074092D
:10107400A7007509A8007609A900A60A0319A70AFA
:101084000319A80A0319A90A4F287608A9007508A4
:10109400A8007408A7007308A600760875047404F1
:1010A4007304031D5628572860280030F6000030CA
:1010B400F5000030F4000030F300E6289630A0007C
:1010C4002008A50072280130A0002008A5070130DF
:1010D4000310A90CA80CA70CA60CFF3E031D6A283C
:1010E400FE302905031D77287828652894280130C7
:1010F400A0002008A5070130A6070030031801301E
:10110400A707003003180130A80700300318013086
:10111400A90701300310A90CA80CA70CA60CFF3ECC
:10112400031D8C28FF302905031D99289A28792846
:10113400A6280130A5020130A0000310A60DA70DBA
:10114400A80DA90DA00B9F28A81BA928AA28B02880
:10115400023025020318AF28B0289B282518B3288D
:10116400B428BC28FF30A605FF30A7057F30A805AA
:10117400FF30A9050310A50C2508A000A101A201B8
:10118400A30118300310A00DA10DA20DA30DFF3E65
:10119400031DC4282008A6042108A7042208A804C3
:1011A4002308A90424080319D828D928DE28F61FFF
:1011B400DC28DD28DE28A9172908F6002808F50010
:1011C4002708F4002608F300080083160317880193
:1011D4008316031385018312031385010A168A11EA
:1011E400B3220A128A15003083120313AB000030B5
:1011F400AA002530A9008030A800AC01AC0A0A1668
:101204008A1190240A128A150A128A112C270A12AA
:101214008A158B170B17831603138C1690300A123A
:101224008A117E230A128A1583160313C0018316BA
:101234000317130883120313E3008316031712081A
:1012440083120313E2008316031711088312031396
:10125400E10083160317100883120313E0008316BA
:1012640003172C0883120313E400831603172D08B5
:1012740083120313E5000A128A1157260A128A15EB
:1012840083160313BF003F0883160317AE003430E0
:10129400F4008030F5000A3083160313BF003F08C2
:1012A400F6000A168A11D1230A128A158316031727
:1012B4002E08F4000030F500063083160313BF0037
:1012C4003F08F6000A168A11D1230A128A1504303F
:1012D400903E84008317000883120313E000840AFD
:1012E4000008E100840A0008E200840A0008E30020
:1012F400831603172C0883120313E40083160317C1
:101304002D0883120313E5000A128A1157260A12C4
:101314008A1583160313BF003F0883160317AE0014
:101324003430F4008030F5000A3083160313BF0014
:101334003F08F6000A168A11D1230A128A15831669
:1013440003172E08F4000030F5000630831603134B
:10135400BF003F08F6000A168A11D1230A128A1523
:101364000830903E84008317000883120313E000C2
:10137400840A0008E100840A0008E200840A0008E4
:10138400E300831603172C0883120313E400831667
:1013940003172D0883120313E5000A128A11572636
:1013A4000A128A1583160313BF003F088316031716
:1013B400AE003430F4008030F50006308316031399
:1013C400BF003F08F6000A168A11D1230A128A15B3
:1013D400831603172E08F4000030F5000630831638
:1013E4000313BF003F08F6000A168A11D1230A121C
:1013F4008A150C30903E840083170008831203136F
:10140400E000840A0008E100840A0008E200840A7B
:101414000008E300831603172C0883120313E40067
:10142400831603172D0883120313E5000A128A1189
:1014340057260A128A1583160313BF003F08831622
:101444000317AE003430F4008030F5000630831604
:101454000313BF003F08F6000A168A11D1230A12AB
:101464008A15831603172E08F4000030F5000630A1
:1014740083160313BF003F08F6000A168A11D1230E
:101484000A128A151030903E8400831700088312D4
:101494000313E000840A0008E100840A0008E20063
:1014A400840A0008E300831603172C08831203132D
:1014B400E400831603172D0883120313E5000A12B0
:1014C4008A1157260A128A1583160313BF003F0890
:1014D40083160317AE003430F4008030F500063074
:1014E40083160313BF003F08F6000A168A11D1239E
:1014F4000A128A15831603172E08F4000030F5002B
:10150400063083160313BF003F08F6000A168A113B
:10151400D1230A128A151430903E840083170008E0
:1015240083120313E000840A0008E100840A00081F
:10153400E200840A0008E300831603172C088312D0
:101544000313E400831603172D0883120313E50025
:101554000A128A1157260A128A1583160313BF002A
:101564003F0883160317AE003430F4008030F500D2
:10157400063083160313BF003F08F6000A168A11CB
:10158400D1230A128A15831603172E08F40000309B
:10159400F500063083160313BF003F08F6000A1651
:1015A4008A11D1230A128A151830903E84008317B9
:1015B400000883120313E000840A0008E100840A8F
:1015C4000008E200840A0008E300831603172C08CD
:1015D40083120313E400831603172D0883120313E5
:1015E400E5000A128A1157260A128A158316031374
:1015F400BF003F0883160317AE003430F400803078
:10160400F500063083160313BF003F08F6000A16E0
:101614008A11D1230A128A15831603172E08F4009F
:101624000030F500063083160313BF003F08F600B0
:101634000A168A11D1230A128A150A300A168A1147
:10164400A7220A128A1583120313850910290A1284
:101654008A110C2883120313C5003230BA003A08E9
:10166400C000612D25304A060319392B3A2B462B2D
:101674004A08BA00450884003A0883138000013000
:10168400BA003A08C507612DC601C701BF01310878
:1016940084000A168A110A200A128A150A128A116B
:1016A400EB270A128A15031C582B592B992B8312EA
:1016B4000313C601C7010A30F3000030F40083129B
:1016C40003134708F6004608F5000A168A112A2370
:1016D4000A128A15740883120313C7007308C6001C
:1016E400310884000A168A110A200A128A15D03E8B
:1016F400BA00FF3003180030BB003A08C6070318CD
:10170400C70A3B08C7070130BA003A08B1073108D5
:1017140084000A168A110A200A128A150A128A11EA
:10172400EB270A128A150318982B992B5D2B831229
:101734000313310884000A168A110A200A128A1532
:101744002E3A031DA62BA72BEB2B0130BA003A0827
:10175400B107C801C901DA2B0A30F3000030F400E4
:10176400831203134908F6004808F5000A168A1183
:101774002A230A128A15740883120313C9007308F2
:10178400C800310884000A168A110A200A128A1530
:10179400D03EBA00FF3003180030BB003A08C80737
:1017A4000318C90A3B08C9070130BA003A08B1074F
:1017B400310884000A168A110A200A128A150A12AC
:1017C4008A11EB270A128A150318E92BEA2BAE2B90
:1017D400F52BC801C901F52B3F16F52BC030BA0013
:1017E4003A08BF04142C013083120313B107FF30ED
:1017F400310784000A168A110A200A128A15CA00BF
:10180400BA00BB013B08003A0319092C612D3A08C0
:10181400003A0319732D6C3A0319EE2B193A031984
:10182400F02B612D3F1E172C182C2B2C4008840004
:1018340083130008C100840A0008C200840A000857
:10184400C300840A0008C4000430BA003A08C00780
:101854003D2C4008840083130008BA00840A000861
:10186400BB003A08C1003B08C200C301C4010230F6
:10187400BA003A08C00748084904031D422C432C07
:10188400512C4408430442044104031D4A2C4B2CAC
:10189400512C0130C8070318C90A0030C907CA010E
:1018A400CA0A4A08BA0001300310BA0DFF3E031DEC
:1018B400562C03103A0D013E84000A168A110A20A0
:1018C4000A128A15BB000A168A110A200A128A15FE
:1018D400BC000A168A110A200A128A15BD000A16CB
:1018E4008A110A200A128A15BE003E084402031D0A
:1018F400852C3D084302031D852C3C084202031D30
:10190400852C3B0841020318882C892C8A2C942CA2
:101914000130BA003A08CA070A304A06031D932C5C
:10192400942C532C4908803A803C031D9B2C480876
:101934004A0203189E2C9F2CA62C831203134808DA
:10194400BA003A08CA00BE2C831203134908803A2D
:10195400BA0080303A02031DB12C4A084802031829
:10196400B42CB52CBE2C831203134A08BA00BB0155
:101974003A08C8003B08C900831203134708803A99
:10198400803C031DC72C46084A020318CA2CCB2CE2
:10199400D72C831203134A08BA00BB013A08C602C3
:1019A4003B08031CC703C702DB2C83120313C601C5
:1019B400C701460847040319E02CE12C532D2030BD
:1019C400BA00450884003A08831380000130BA0045
:1019D4003A08C507FF30C6070318C70AFF30C70710
:1019E40046084704031DF72CF82CE12C532D003036
:1019F400AB000030AA000030A9000A30A800480853
:101A0400BA0001300310BA0DFF3E031D042D03106C
:101A14003A0D013E84000A168A110A200A128A1518
:101A2400A0000A168A110A200A128A15A1000A16B1
:101A34008A110A200A128A15A2000A168A110A209B
:101A44000A128A15A3004408A7004308A600420806
:101A5400A5004108A4000A168A1128240A128A152E
:101A6400831203132308AF002208AE002108AD003F
:101A74002008AC000A168A117B230A128A158312E5
:101A840003132808303EBB003B08CA004A08BA00CA
:101A9400450884003A08831380000130BA003A08EC
:101AA400C507FF30C8070318C90AFF30C907480A29
:101AB400031D602D490A031D602D612DF92C013091
:101AC400B107FF30310784000A168A110A200A126E
:101AD4008A15BA003A08CA004A08031D722D732DEC
:101AE400342B4508840083138001080083120313F8
:101AF40047088039CC004C08D4004708CC004C0778
:101B0400CD004D08D600C61F882D892D8A2D561468
:101B1400560803198E2D8F2D9F2D560A031D932DC4
:101B2400942D9C2D0030C7000030C6000030C50045
:101B34000030C400C617C701A72D0030C70000300D
:101B4400C6000030C5000030C4004B088039CC000A
:101B54004C08D500550854060319B12DB22DB32DE8
:101B640054174B08CC004C07CD004D08D500CA1FB4
:101B7400BC2DBD2DBE2D551455080319C22DC32DE2
:101B8400D32D550A031DC72DC82DD02D0030CB00F1
:101B94000030CA000030C9000030C800CA17CB01A9
:101BA400DB2D0030CB000030CA000030C90000300B
:101BB400C800560855020318E02DE12D252E541FA8
:101BC400E42DE52DE92D8030CC004C08D4065608D0
:101BD400CC004C08D7005508CC004C08D600570858
:101BE400CC004C08D5004408CC004C08D700480869
:101BF400CC004C08C4005708CC004C08C800450869
:101C0400CC004C08D7004908CC004C08C500570844
:101C1400CC004C08C9004608CC004C08D7004A0840
:101C2400CC004C08C6005708CC004C08CA00470832
:101C3400CC004C08D7004B08CC004C08C700570810
:101C4400CC004C08CB00D7015508CC00CD014D0881
:101C5400CF0056084C02CE00031CCF034F08803A35
:101C6400FF0080307F02031D392E1A304E02031C00
:101C74003C2E3D2E7A2E8312031347084604450456
:101C84004404031D462E482E0130492E0030CC005A
:101C94004C08D7000030C7000030C6000030C50033
:101CA4000030C4005508CC004C08D600822E571CC6
:101CB4005C2E5D2E662E5708CC0003104C0C0138A8
:101CC400CD004D08D700682E0310D70C441C6B2E92
:101CD4006C2E6D2ED7170130CC00470DC70CC60CE7
:101CE400C50CC40CCC0B6F2E0130CC004C08D607AD
:101CF4008312031355085602031C812E822E592E7B
:101D0400541B852E862ED12E5608031D8A2E8B2E0B
:101D1400942E0030C7000030C6000030C5000030EB
:101D2400C400FF2F4808C407490803110318013EE3
:101D340003199D2EC5074A0803110318013E031910
:101D4400A42EC6074B0803110318013E0319AB2E3A
:101D5400C707471CAE2EAF2E852F571CB22EB32EAD
:101D6400BC2E5708CC0003104C0C0138CD004D0894
:101D7400D700BE2E0310D70C441CC12EC22EC32E76
:101D8400D7170130CC00470DC70CC60CC50CC40CCA
:101D9400CC0BC52E0130CC004C08D607852F470844
:101DA400803AFF004B08803A7F02031DE32E4A0865
:101DB4004602031DE32E49084502031DE32E48088D
:101DC40044020318E62EE72E3F2FFF30CC00FF30ED
:101DD400CD00FF30CE00FF30CF004808D0004908C6
:101DE400D1004A08D2004B08D3004408D002450869
:101DF400031C450FFE2EFF2ED1024608031C460F7E
:101E0400042F052FD2024708031C470F0A2F0B2F5C
:101E1400D3025008CC0751080318510F122F132F67
:101E2400CD0752080318520F182F192FCE07530845
:101E34000318530ACF074F08C7004E08C6004D08C1
:101E4400C5004C08C4008030CC004C08D406D70927
:101E5400D70A5708031D2F2F302F4D2F0130C407E9
:101E6400003003180130C507003003180130C607DD
:101E7400003003180130C7074D2F4808C402490831
:101E8400031C490FC5024A08031C4A0FC6024B082B
:101E9400031C4B0FC7024708460445044404031DB2
:101EA400542F552F812F5708031D592F5A2F812F37
:101EB4000030C7000030C6000030C5000030C40048
:101EC400FF2F0130CC000310C40DC50DC60DC70D86
:101ED400CC0B652FD71F6F2F702F712F4414571CF5
:101EE400742F752F782F0314D70D7A2F0310D70D65
:101EF400560803197E2F7F2F812F0130D602C61F6B
:101F0400842F852F632FD501D71F892F8A2F982FD0
:101F140057087F3903198F2F902F932FD501D50A96
:101F2400982F441C962F972F982F902F55080319FC
:101F34009C2F9D2FD12F0130C4070030031801308E
:101F4400C507003003180130C607003003180130FC
:101F5400C707471CAE2FAF2FD12F4408CC0045082C
:101F6400CD004608CE004708CF000130D0004F0D09
:101F7400CF0CCE0CCD0CCC0CD00BB92F4F08C70016
:101F84004E08C6004D08C5004C08C400560A031983
:101F9400CC2FCD2FD12F0130CC004C08D607560AB8
:101FA4000319D52FD62FDB2F5608031DDA2FDB2F6D
:101FB400E92F0030C7000030C6000030C5000030F3
:101FC400C4005608031DE72FE82FE92FD401561C3F
:101FD400EC2FED2FEF2FC617F32F7F30CC004C08DA
:101FE400C6055608CC0003104C0CCD004D08C700A4
:101FF400D41FFD2FFE2FFF2FC7170800FF1B0A2831
:1020040083137F1883170008840A0319FF0A080042
:1020140010308A000408840A820700340134003432
:10202400003400340A34003400340034643400349E
:1020340000340034E83403340034003410342734DA
:1020440000340034A0348634013400344034423443
:102054000F34003480349634983400340034E1343E
:10206400F53405340034CA349A343B3425346C34A2
:1020740075342E34253436342E3436346C34753479
:062084000034203400349A
:1024CE0064008001840A0406031900340406682A95
:1024DE000A168A11C0220A168A11831603131114C2
:1024EE0008000A168A11C0220A168A1183160313CF
:1024FE00111508000A168A11C0220A168A118316AF
:10250E000313911408008316031391121116111A56
:10251E00912A922A8E2A08008316031391161116F9
:10252E00111A9A2A9B2A972A0800760875047404B1
:10253E0073040319A32AA42AA62A8030F6060800DB
:10254E00F30083160313981CAD2AAE2AA82A73082B
:10255E00831203139900080028308312031394008A
:10256E008316031391019401093093008715071602
:10257E000800831603131419C52AC62AC02A110887
:10258E001F39031DCB2ACC2AC02A0800F3000A16D5
:10259E008A11C0220A168A1173088312031393003C
:1025AE008C1DDA2ADB2AD72A8C110800F4000A16B1
:1025BE008A11C0220A168A11831603131114740885
:1025CE000A168A11CD220A168A11080083120313E5
:1025DE008C1EF22AF32AFF2A41301A06031DF82A0E
:1025EE00F92AFF2A0130F000700883160313C00089
:1025FE0072088A00710E8300FE0E7E0E0900803076
:10260E0083120313DB065F08C7005E08C6005D0871
:10261E00C5005C08C4005B08CB005A08CA00590804
:10262E00C9005808C8000A128A1578250A168A1198
:10263E00831203134708DB004608DA004508D90069
:10264E004408D8000800F701F801731C2F2B302B1B
:10265E00362B7508F7070318F80A7608F8070130C5
:10266E000310F50DF60DFF3E031D372B0130031041
:10267E00F40CF30CFF3E031D3E2B73087404031D74
:10268E00492B4A2B2C2B7808F4007708F30008000E
:10269E00F4000A168A11C0220A168A118316031331
:1026AE009115141C5B2B5C2B582B831203131308F0
:1026BE00F3007308F5007408031D662B672B6D2B52
:1026CE000A168A118A220A168A11722B0A168A1182
:1026DE0093220A168A11831203138C1D772B782BE3
:1026EE00722B8C1175080800831203132B082A0411
:1026FE00290428040319842B852BC82BB001B00A9A
:10270E00952B0130F9000310A80DA90DAA0DAB0DE4
:10271E00F90B8A2B0130F9007908B007AB1F982B03
:10272E00992B882B2B082F02031DA72B2A082E026C
:10273E00031DA72B29082D02031DA72B28082C02E9
:10274E00031CAA2BAB2BB92B2808AC022908031C9F
:10275E00290FAD022A08031C2A0FAE022B08031CF8
:10276E002B0FAF0201300310AB0CAA0CA90CA80C56
:10277E00FF3E031DBA2B0130B002031DC72BC82B21
:10278E00992B2F08AB002E08AA002D08A9002C08A3
:10279E00A800080083120313A001A101A001A1014A
:1027AE00FC2B20087407F8007508F7000318F70AC9
:1027BE00A01FE22BF7037708F900790883120313A1
:1027CE00FF00780884000A168A1100200A168A1162
:1027DE000A168A11A7220A168A11013083120313D0
:1027EE00A0070318A10A0030A1072108803AF700BC
:1027FE0080307702031D052C760820020318082C62
:10280E00092C272C8312031320087407F80075086F
:10281E00F7000318F70AA01F152CF7037708F90025
:10282E00790883120313FF00780884000A168A11B0
:10283E0000200A168A11003A031D262C272CD82BAD
:10284E0008000030F7000030F6000030F5000030D0
:10285E00F400831203132308220421042004031915
:10286E00392C3A2C872CF801F80A4A2C0130F30047
:10287E000310A00DA10DA20DA30DF30B3F2C0130E3
:10288E00F3007308F807A31F4D2C4E2C3D2C01307E
:10289E00F3000310F40DF50DF60DF70DF30B502CA0
:1028AE0023082702031D652C22082602031D652C12
:1028BE0021082502031D652C20082402031C682C08
:1028CE00692C782C2008A4022108031C210FA502D4
:1028DE002208031C220FA6022308031C230FA702A3
:1028EE00741401300310A30CA20CA10CA00CFF3E1B
:1028FE00031D792C0130F802031D862C872C4E2CDB
:10290E007708A3007608A2007508A1007408A0003D
:10291E000800831203132C08031D962C972CC62C2B
:10292E002808AD002908AE002A08AF002B08B00019
:10293E0006300310AD0DAE0DAF0DB00DFF3E031DF5
:10294E00A02C3008A3002F08A2002E08A1002D08ED
:10295E00A0000030A7003D30A6000930A5000030D1
:10296E00A4000A168A1128240A168A118312031348
:10297E002008FF3E8316031399001811F42C280823
:10298E00AD002908AE002A08AF002B08B0000430B5
:10299E000310AD0DAE0DAF0DB00DFF3E031DCF2CD0
:1029AE003008A3002F08A2002E08A1002D08A000B9
:1029BE000030A7003D30A6000930A5000030A4006D
:1029CE000A168A1128240A168A1183120313200864
:1029DE00FF3E831603139900181518139816181234
:1029EE0083120313981718131816181198108316BC
:1029FE000313871707130800031083120313460DE2
:102A0E00470DC8004808F8007808031D0F2D102D3B
:102A1E00192D0030C7000030C6000030C500003050
:102A2E00C4007E2D4408C8004508C9004608CA00E7
:102A3E004708CB001F300310CB0CCA0CC90CC80CB6
:102A4E00FF3E031D222D4808CC004C08F700C61788
:102A5E00FF30C405FF30C505FF30C6050030C70581
:102A6E009630F802F81F3C2D3D2D572D7808803AF0
:102A7E00973E0318432D442D452D102D0130031084
:102A8E00C70CC60CC50CC40CFF3E031D462D0130F1
:102A9E00C8004808F807031D552D562D452D6E2DDF
:102AAE0020307802031C5C2D5D2D692D102D013018
:102ABE00C8000310C40DC50DC60DC70DC80B602D83
:102ACE000130F8027808031D6D2D6E2D5E2D7708EE
:102ADE000319722D732D7E2DC409C509C609C709A8
:102AEE00C40A0319C50A0319C60A0319C70A08003E
:102AFE000030831203132005F30000302105F4008B
:102B0E0080302205F5007F302305F6007608750427
:102B1E0074047304031D942D952D9D2D0030A30078
:102B2E000030A2000030A1000030A00000302405CB
:102B3E00F30000302505F40080302605F5007F30C7
:102B4E002705F6007608750474047304031DB02D72
:102B5E00B12DB92D0030A7000030A6000030A50021
:102B6E000030A400A31FBC2DBD2DE12D0030F300BD
:102B7E000030F4000030F5008030F6002008F3023B
:102B8E002108031C210FCC2DCD2DF4022208031C8D
:102B9E00220FD22DD32DF5022308031C230FD82D7F
:102BAE00D92DF6027608A3007508A2007408A100BC
:102BBE007308A000A71FE42DE52D092E0030F300A9
:102BCE000030F4000030F5008030F6002408F302E7
:102BDE002508031C250FF42DF52DF4022608031CE1
:102BEE00260FFA2DFB2DF5022708031C270F002EAA
:102BFE00012EF6027608A7007508A6007408A50037
:102C0E007308A4008030A3068030A706270823028D
:102C1E00031D1B2E26082202031D1B2E2508210232
:102C2E00031D1B2E2408200203181E2E1F2E212EDC
:102C3E000310222E03140800831203133108803967
:102C4E00B2003208BB003108B2003207B3003308BD
:102C5E00C200B01F332E342E352E421442080319F3
:102C6E00392E3A2E4A2E420A031D3E2E3F2E472E55
:102C7E000030B1000030B0000030AF000030AE00C8
:102C8E00B017B101522E0030B1000030B00000304C
:102C9E00AF000030AE002D088039B2003208BB06FE
:102CAE002D08B2003207B3003308C300AC1F602EEC
:102CBE00612E622E431443080319662E672E772E5B
:102CCE00430A031D6B2E6C2E742E0030AD000030A7
:102CDE00AC000030AB000030AA00AC17AD017F2E67
:102CEE000030AD000030AC000030AB000030AA0068
:102CFE002D082C042B042A04031D862E872EA02EAD
:102D0E000030B1000030B0000030AF000030AE0037
:102D1E008030B0047F30B1043B08B2003208B104F9
:102D2E003108AD003008AC002F08AB002E08AA0009
:102D3E00FF2F4208031DA42EA52EAE2E0030AD008F
:102D4E000030AC000030AB000030AA00FF2F42086C
:102D5E00B200B3013308B50043083202B400031CBD
:102D6E00B50334087F3EBC0035080318013E003E13
:102D7E00BD003108BA003008B9002F08B8002E087F
:102D8E00B7000030B1000030B0000030AF000030AE
:102D9E00AE000030C1000030C0000030BF00003077
:102DAE00BE00C301242F43080319DE2EDF2EFF2E93
:102DBE000130B2000310B70DB80DB90DBA0DB20B3C
:102DCE00E12E0130B2000310AE0DAF0DB00DB10DFE
:102DDE00B20BEA2EC11FF42EF52EF62E2E14013054
:102DEE00B2000310BE0DBF0DC00DC10DB20BF82EFB
:102DFE002D083A02031D0D2F2C083902031D0D2F2D
:102E0E002B083802031D0D2F2A083702031C102F22
:102E1E00112F202F41172A08B7022B08031C2B0F46
:102E2E00B8022C08031C2C0FB9022D08031C2D0F01
:102E3E00BA020130B2003208C3071A304302031C33
:102E4E00292F2A2FDA2E3A083904380437040319A9
:102E5E00312F322F512F3E14512F0130B20003105B
:102E6E00AE0DAF0DB00DB10DB20B362FC11F402FF1
:102E7E00412F422F2E140130B2000310BE0DBF0D94
:102E8E00C00DC10DB20B442FFF30BC070318BD0A95
:102E9E00FF30BD07B01F542F552F342FC301C11F54
:102EAE00592F5A2F762FFF303E05B200FF303F05C7
:102EBE00B300FF304005B4007F304105B500350842
:102ECE0034043304320403196D2F6E2F712FC30196
:102EDE00C30A762F2E1C742F752F762F6E2F430854
:102EEE0003197A2F7B2FAC2F0130AE070030031859
:102EFE000130AF07003003180130B007003003185F
:102F0E000130B107311C8C2F8D2FAC2F2E08B20043
:102F1E002F08B3003008B4003108B5000130B600F8
:102F2E00350DB50CB40CB30CB20CB60B972F35088F
:102F3E00B1003408B0003308AF003208AE000130E3
:102F4E00BC070318BD0A0030BD073D08803AFF00DC
:102F5E0080307F02031DB52FFF303C02031CB82FBB
:102F6E00B92FC72FFF3083120313BC000030BD00F2
:102F7E000030B1000030B0000030AF000030AE00C5
:102F8E00831203133D08803AFF0080307F02031D39
:102F9E00D22F01303C020318D52FD62FE32F8312E8
:102FAE000313BC01BD010030B1000030B000003091
:102FBE00AF000030AE00BB01831203133C08B20019
:102FCE003208C200421CEC2FED2FEF2FB017F32F5B
:102FDE007F30B2003208B0054208B2000310320C46
:102FEE00B3003308B1003B08B2003208B104972E8B
:022FFE000800C9
:04400E00D420FF3F7C
:00000001FF
