:020000040000FA
:100000000A128A11F32FF1000A168A11F7220A1236
:100010008A1183160313111471080A168A11042316
:100020000A128A110800F100F0013A307102031837
:100030001A281B28232830307102031C202821286D
:100040002328F001F00A700C08000A168A11A62273
:100050000A128A11D0300A168A1104230A128A1150
:100060006B300A168A1104230A128A1101300A160B
:100070008A1104230A128A110A168A11AF220A125F
:100080008A110A168A11A6220A128A11D0300A167B
:100090008A1104230A128A1100300A168A110423D5
:1000A0000A128A110A168A11AF220A128A110A1636
:1000B0008A11A6220A128A11D0300A168A11042344
:1000C0000A128A1119300A168A1104230A128A1197
:1000D00008300A168A1104230A128A110A168A1194
:1000E000AF220A128A110A168A11A6220A128A114E
:1000F000D0300A168A1104230A128A111A300A16FD
:100100008A1104230A128A1100300A168A11042364
:100110000A128A110A168A11AF220A128A110A16C5
:100120008A11A6220A128A11D0300A168A110423D3
:100130000A128A111B300A168A1104230A128A1124
:1001400000300A168A1104230A128A110A168A112B
:10015000AF220A128A110A168A11A6220A128A11DD
:10016000D0300A168A1104230A128A111C300A168A
:100170008A1104230A128A1100300A168A110423F4
:100180000A128A110A168A11AF220A128A110A1655
:100190008A11A6220A128A1168300A168A110423CB
:1001A0000A128A116C300A168A1104230A128A1163
:1001B00000300A168A1104230A128A110A168A11BB
:1001C000AF220A128A110800DE3083120313DC000A
:1001D0005C08E5005908F3005808F2005708F100E0
:1001E0005608F0000030F7000030F6000030F5004F
:1001F0000030F4000A168A1181250A128A110318A8
:100200000229032927292D3083120313DC006508F6
:1002100084005C08831380000130DC005C08E50783
:100220005908F3005808F2005708F1005608F0008A
:100230000A168A11D3220A128A1173088312031331
:10024000D9007208D8007108D7007008D600831250
:1002500003135908BD005808BC005708BB005608D6
:10026000BA000A168A1105250A128A11831203138D
:100270003D08E4003C08E3003B08E2003A08E100E6
:100280006408F3006308F2006208F1006108F000FE
:1002900000300A128A152A200A128A117308831262
:1002A0000313D1007208D0007108CF007008CE008F
:1002B0005908D5005808D4005708D3005608D20072
:1002C0000A168A1114230A128A1183120313510881
:1002D000D9005008D8004F08D7004E08D60059085A
:1002E000A7005808A6005708A5005608A4004930E2
:1002F000A3007430A2002430A1000030A0000A1234
:100300008A1192240A128A11831203132308BD0052
:100310002208BC002108BB002008BA000A168A1176
:1003200005250A128A11831203133D08E0003C08D8
:10033000DF003B08DE003A08DD002930DC005C0805
:10034000AA006408AE006308AD006208AC00610852
:10035000AB006008B2005F08B1005E08B0005D0845
:10036000AF0065080A128A152C230A128A11DE30A2
:10037000080083160313BE00D0300A128A1103202E
:100380000A128A1183160313111BC729C829C2290F
:100390003B300A168A1104230A128A1183160313AA
:1003A000111BD329D429CE290A168A11B8220A1280
:1003B0008A11D1300A168A1104230A128A1183166F
:1003C0000313BC01BD0100300A168A115D230A1215
:1003D0008A1183120313CE00831603133C08A03E38
:1003E0008400831203134E088313800001308316A8
:1003F0000313BC070318BD0A0030BD073D08803A4F
:10040000FF0080307F02031D072A0D303C02031CD1
:100410000A2A0B2AE32901300A168A115D230A12DF
:100420008A1183120313CE004E0883160313AD0006
:100430000A168A11AF220A128A11831603132108A1
:1004400083120313CE00CF018316031320088312F7
:100450000313D000D1015008D100D0014E08500440
:1004600083160313AE00831203134F08510483163F
:100470000313AF00230883120313CE00CF018316AA
:100480000313220883120313D000D1015008D100B6
:10049000D0014E08500483160313B00083120313D7
:1004A0004F08510483160313B10025088312031368
:1004B000CE00CF0183160313240883120313D00048
:1004C000D1015008D100D0014E0850048316031307
:1004D000B200831203134F08510483160313B300B1
:1004E000270883120313CE00CF01831603132608B7
:1004F00083120313D000D1015008D100D0014E085F
:10050000500483160313B400831203134F085104DD
:1005100083160313B500290883120313CE00CF01FD
:1005200083160313280883120313D000D101500847
:10053000D100D0014E08500483160313B600831275
:1005400003134F08510483160313B7002B088312BB
:100550000313CE00CF01831603132A08831203135B
:10056000D000D1015008D100D0014E0850048316AC
:100570000313B800831203134F08510483160313A7
:10058000B9002D0883120313CE00CF018316031385
:100590002C0883120313D000D1015008D100D001E0
:1005A0004E08500483160313BA00831203134F0836
:1005B000510483160313BB003A3083120313A300C4
:1005C0001C30A200D030A1008630A0008316031397
:1005D0002E08F0002F08F1000030F11BFF30F20070
:1005E000F30001300A128A152A200A128A117308B0
:1005F00083120313A7007208A6007108A5007008F3
:10060000A4000A128A1192240A128A118316031373
:100610003E08840083120313200883138000840A99
:1006200021088000840A22088000840A23088000B0
:100630003A30A3001C30A200D030A1008630A000C8
:10064000831603133008F0003108F1000030F11B6D
:10065000FF30F200F30001300A128A152A200A1234
:100660008A11730883120313A7007208A600710889
:10067000A5007008A4000A128A1192240A128A1195
:10068000831603133E08043E8400831203132008DC
:1006900083138000840A21088000840A22088000D5
:1006A000840A230880003A30A3001C30A200D03016
:1006B000A1008630A000831603133208F00033082F
:1006C000F1000030F11BFF30F200F30001300A129C
:1006D0008A152A200A128A11730883120313A700AD
:1006E0007208A6007108A5007008A4000A128A11F9
:1006F00092240A128A11831603133E08083E8400CE
:1007000083120313200883138000840A21088000C9
:10071000840A22088000840A230880004230BD0039
:100720001230BC001E30BB00B830BA004330A3000A
:10073000AA30A2000030A1000030A00083160313ED
:100740003408F0003508F1000030F11BFF30F200F2
:10075000F30001300A128A152A200A128A1173083E
:1007600083120313A7007208A6007108A500700881
:10077000A4000A168A1123260A128A11831203136F
:100780002308C1002208C0002108BF002008BE00C5
:100790000A128A1578250A128A11831603133E0855
:1007A0000C3E8400831203133A0883138000840AEA
:1007B0003B088000840A3C088000840A3D088000D1
:1007C0003B30A300FA30A2000530A1001430A00095
:1007D000831603133608F0003708F1000030F11BD0
:1007E000FF30F200F30001300A128A152A200A12A3
:1007F0008A11730883120313A7007208A6007108F8
:10080000A5007008A4000A128A1192240A128A1103
:10081000831603133E08103E84008312031320083E
:1008200083138000840A21088000840A2208800043
:10083000840A230880003B30A300FA30A200053070
:10084000A1001430A000831603133808F000390803
:10085000F1000030F11BFF30F200F30001300A120A
:100860008A152A200A128A11730883120313A7001B
:100870007208A6007108A5007008A4000A128A1167
:1008800092240A128A11831603133E08143E840030
:1008900083120313200883138000840A2108800038
:1008A000840A22088000840A230880003B30A300C9
:1008B000FA30A2000530A1001430A0008316031303
:1008C0003A08F0003B08F1000030F11BFF30F20065
:1008D000F30001300A128A152A200A128A117308BD
:1008E00083120313A7007208A6007108A500700800
:1008F000A4000A128A1192240A128A118316031381
:100900003E08183E840083120313200883138000DE
:10091000840A21088000840A22088000840A2308AF
:10092000800008008312031323088039A8002808D8
:10093000AD002308A8002807A9002908B300A21FBA
:10094000A22CA32CA42C331433080319A82CA92CF3
:10095000B82C330A031DAD2CAE2CB62C0030A300EE
:100960000030A2000030A1000030A000A217C02C6F
:100970000030A3000030A2000030A1000030A00031
:1009800027088039A8002808AD062708A8002807EE
:10099000A9002908B200A61FCE2CCF2CD02C3214CF
:1009A00032080319D42CD52CE42C320A031DD92C7F
:1009B000DA2CE22C0030A7000030A6000030A500A1
:1009C0000030A400A617EC2C0030A7000030A600D1
:1009D0000030A5000030A40032080319F02CF12CDF
:1009E000F62C3308031DF52CF62CFF2C0030A30049
:1009F0000030A2000030A1000030A000F22F20083B
:100A0000A8002808F00026080A128A1503200A12F6
:100A10008A11710883120313B9007008B8003808EE
:100A2000A800A901AA01AB012B08B1002A08B00057
:100A30002908AF002808AE003908A800A901AA01BA
:100A4000AB012B08B7002A08B6002908B500280812
:100A5000B4002108A8002808F00025080A128A1509
:100A600003200A128A11710883120313B900700857
:100A7000B8003808A800A901AA01AB012808AE07F0
:100A8000290803110318013E0319472DAF072A084F
:100A900003110318013E03194E2DB0072B08031153
:100AA0000318013E0319552DB1073908A800A90103
:100AB000AA01AB012808B407290803110318013E55
:100AC0000319632DB5072A0803110318013E031902
:100AD0006A2DB6072B0803110318013E0319712D67
:100AE000B7072208A8002808F00024080A128A156F
:100AF00003200A128A11710883120313B9007008C7
:100B0000B8003808A800A901AA01AB012808AE075F
:100B1000290803110318013E03198F2DAF072A0876
:100B200003110318013E0319962DB0072B0803117A
:100B30000318013E03199D2DB1073908A800A9012A
:100B4000AA01AB012808B407290803110318013EC4
:100B50000319AB2DB5072A0803110318013E031929
:100B6000B22DB6072B0803110318013E0319B92D46
:100B7000B7070830A8000310AE0DAF0DB00DB10DD2
:100B8000A80BBB2D2108A8002808F00024080A1291
:100B90008A1503200A128A11710883120313B900FF
:100BA0007008B8003808A8003908A900AA01AB01EC
:100BB0002808AE07290803110318013E0319E12D87
:100BC000AF072A0803110318013E0319E82DB007E7
:100BD0002B0803110318013E0319EF2DB10720085C
:100BE000A8002808F00025080A128A1503200A1216
:100BF0008A11710883120313B9007008B80038080D
:100C0000A8003908A900AA01AB012808AE072908E5
:100C100003110318013E03190E2EAF072A08031112
:100C20000318013E0319152EB0072B0803110318F2
:100C3000013E03191C2EB1070830A8000310AE0DA9
:100C4000AF0DB00DB10DA80B1E2E2008A80028086E
:100C5000F00024080A128A1503200A128A1171086A
:100C600083120313B9007008B8003808A8003908C7
:100C7000A900AA01AB012808AE072908031103182F
:100C8000013E0319442EAF072A0803110318013E41
:100C900003194B2EB0072B0803110318013E03194B
:100CA000522EB1072108A8002808F00026080A12D1
:100CB0008A1503200A128A11710883120313B900DE
:100CC0007008B8003808A8003908A900AA01AB01CB
:100CD0002808B407290803110318013E0319712ECF
:100CE000B5072A0803110318013E0319782EB60729
:100CF0002B0803110318013E03197F2EB7072208A2
:100D0000A8002808F00025080A128A1503200A12F4
:100D10008A11710883120313B9007008B8003808EB
:100D2000A8003908A900AA01AB012808B4072908BE
:100D300003110318013E03199E2EB5072A0803115B
:100D40000318013E0319A52EB6072B08031103183B
:100D5000013E0319AC2EB7072208A8002808F000AE
:100D600026080A128A1503200A128A1171088312B2
:100D70000313B9007008B8003808A8003908A900A2
:100D8000AA01AB0108300310A80DA90DAA0DAB0DE7
:100D9000FF3E031DC32E2808B407290803110318BA
:100DA000013E0319D42EB5072A0803110318013E8A
:100DB0000319DB2EB6072B0803110318013E031994
:100DC000E22EB7072E08A8002F08A9003008AA00B5
:100DD0003108AB0018300310AB0CAA0CA90CA80CFE
:100DE000FF3E031DEB2E2808B40729080311031842
:100DF000013E0319FC2EB5072A0803110318013E12
:100E00000319032FB6072B0803110318013E03191A
:100E10000A2FB7070830A8000310AE0DAF0DB00DB4
:100E2000B10DA80B0C2F33083207A800A901A90D9A
:100E30002808823EB80029080318013EFF3EB90089
:100E40003E2F0130A8000310B40DB50DB60DB70D3F
:100E5000A80B232FB11F2D2F2E2F2F2F341401302D
:100E6000A8000310AE0DAF0DB00DB10DA80B312FC2
:100E7000FF30B8070318B90AFF30B907B61F412F72
:100E8000422F212FB201B11F462F472F632FFF3072
:100E90002E05A800FF302F05A900FF303005AA005D
:100EA0007F303105AB002B082A04290428040319DC
:100EB0005A2F5B2F5E2FB201B20A632F341C612FB1
:100EC000622F632F5B2F32080319672F682F992F2A
:100ED0000130B407003003180130B50700300318A3
:100EE0000130B607003003180130B707371C792FDF
:100EF0007A2F992F3408A8003508A9003608AA00CF
:100F00003708AB000130AC002B0DAB0CAA0CA90CC0
:100F1000A80CAC0B842F2B08B7002A08B6002908B0
:100F2000B5002808B4000130B8070318B90A00302A
:100F3000B9073908803AFF0080307F02031DA22FD5
:100F4000FF303802031CA52FA62FB12F7F3083124C
:100F50000313B7008030B6000030B5000030B40095
:100F6000E62F831203133908803AFF0080307F0296
:100F7000031DBC2F013038020318BF2FC02FCC2F08
:100F8000003083120313B7000030B6000030B50004
:100F90000030B400AD01E62F831203133808A80017
:100FA0002808B300FF30B405FF30B5057F30B60523
:100FB0000030B705331CDD2FDE2FDF2FB6173308C7
:100FC000A8000310280CA9002908B7002D08A800C4
:100FD0002808B7043708A3003608A2003508A10086
:100FE0003408A00008008313DE308400EF300A16B6
:100FF0008A119E220A128A1183010A128A15E42894
:10100600F800F401F5017008F200F3017208F60029
:101016007308F700781C1028112817287608F4079B
:101026000318F50A7708F50701300310F60DF70DDA
:10103600FF3E031D18280310F80C7808031D24280A
:1010460025280D287508F1007408F0000800F8003E
:10105600780803192F2830284428F31F332834280A
:1010660044287009FA007109FB007209FC00730933
:10107600FD00FA0A0319FB0A0319FC0A0319FD0A03
:101086004C287308FD007208FC007108FB0070080C
:10109600FA007308720471047004031D532854285F
:1010A6005D280030F3000030F2000030F10000301F
:1010B600F000E3289630F4007408F9006F28013038
:1010C600F4007408F90701300310FD0CFC0CFB0C4E
:1010D600FA0CFF3E031D6728FE307D05031D7428AC
:1010E6007528622891280130F4007408F907013048
:1010F600FA07003003180130FB07003003180130EF
:10110600FC07003003180130FD0701300310FD0C09
:10111600FC0CFB0CFA0CFF3E031D8928FF307D05F5
:10112600031D962897287628A3280130F902013056
:10113600F4000310FA0DFB0DFC0DFD0DF40B9C28BD
:10114600FC1BA628A728AD28023079020318AC2874
:10115600AD2898287918B028B128B928FF30FA05A3
:10116600FF30FB057F30FC05FF30FD050310F90C51
:101176007908F400F501F601F70118300310F40DB3
:10118600F50DF60DF70DFF3E031DC1287408FA0490
:101196007508FB047608FC047708FD047808031933
:1011A600D528D628DB28F31FD928DA28DB28FD170F
:1011B6007D08F3007C08F2007B08F1007A08F00055
:1011C6000800063083120313E8001330E700AD3041
:1011D600E600E60BEC28E70BEC28E80BEC28831678
:1011E60003178801831603138501831203138501F0
:1011F6000A168A11EA220A128A150030831203138C
:10120600A3000030A2002530A1008030A000A40178
:10121600A40A0A168A1196240A128A150A128A1133
:1012260025200A128A15BF300A128A11B9210A121C
:101236008A1583160313420883120313D9008316F3
:101246000313410883120313D800831603134008BF
:1012560083120313D700831603133F088312031365
:10126600D600831603135B0883120313DA00831672
:1012760003135C0883120313DB000A128A11E420AD
:101286000A128A1583120313E600660883160313EF
:10129600DD003430F1008030F2000A30831203138F
:1012A600E6006608F3000A168A1189230A128A15CF
:1012B600831603135D08F1000030F2001930831223
:1012C6000313E6006608F3000A168A1189230A1238
:1012D6008A150430BF3E840083130008831203136B
:1012E600D600840A0008D700840A0008D800840AB9
:1012F6000008D900831603135B0883120313DA0070
:10130600831603135C0883120313DB000A128A1187
:10131600E4200A128A1583120313E6006608831670
:101326000313DD003430F1008030F2000A308312FE
:101336000313E6006608F3000A168A1189230A12C7
:101346008A15831603135D08F1000030F200193088
:1013560083120313E6006608F3000A168A1189232E
:101366000A128A150830BF3E8400831300088312D0
:101376000313D600840A0008D700840A0008D800A0
:10138600840A0008D900831603135B08831203132B
:10139600DA00831603135C0883120313DB000A12B8
:1013A6008A11E4200A128A1583120313E6006608DE
:1013B60083160313DD003430F1008030F2000A306A
:1013C60083120313E6006608F3000A168A118923BE
:1013D6000A128A15831603135D08F1000030F20025
:1013E600193083120313E6006608F3000A168A1101
:1013F60089230A128A150C30BF3E84008313000825
:1014060083120313D600840A0008D700840A000852
:10141600D800840A0008D900831603135B088312D8
:101426000313DA00831603135C0883120313DB002D
:101436000A128A11E4200A128A1583120313E6009F
:10144600660883160313DD003430F1008030F200A5
:101456000A3083120313E6006608F3000A168A119F
:1014660089230A128A15831603135D08F1000030DA
:10147600F200193083120313E6006608F3000A1619
:101486008A1189230A128A151030BF3E84008313FD
:10149600000883120313D600840A0008D700840AC2
:1014A6000008D800840A0008D900831603135B08D5
:1014B60083120313DA00831603135C0883120313E3
:1014C600DB000A128A11E4200A128A15831203131A
:1014D600E600660883160313DD003430F100803021
:1014E600F2000A3083120313E6006608F3000A16B8
:1014F6008A1189230A128A15831603135D08F100DF
:101506000030F200193083120313E6006608F30078
:101516000A168A1189230A128A151430BF3E8400DE
:101526008313000883120313D600840A0008D70029
:10153600840A0008D800840A0008D9008316031319
:101546005B0883120313DA00831603135C08831205
:101556000313DB000A128A11E4200A128A15831289
:101566000313E600660883160313DD003430F1002A
:101576008030F2000A3083120313E6006608F30097
:101586000A168A1189230A128A15831603135D081F
:10159600F1000030F200193083120313E6006608EA
:1015A600F3000A168A1189230A128A151830BF3EDB
:1015B60084008313000883120313D600840A0008EC
:1015C600D700840A0008D800840A0008D9008316C8
:1015D60003135B0883120313DA00831603135C08F4
:1015E60083120313DB000A128A11E4200A128A15F9
:1015F60083120313E600660883160313DD003430F6
:10160600F1008030F2000A3083120313E600660808
:10161600F3000A168A1189230A128A158316031300
:101626005D08F1000030F200193083120313E60062
:101636006608F3000A168A1189230A128A150A30E7
:101646000A168A11DE220A128A1516290A128A1128
:10165600002883120313BE002B30B3003308B900F1
:10166600612D253043060319392B3A2B462B4308A7
:10167600B3003E0884003308831380000130B300B2
:101686003308BE07612DBF01C001B8012A088400D6
:101696000A168A110A200A128A150A128A111320BA
:1016A6000A128A15031C582B592B992B83120313E4
:1016B600BF01C0010A30F0000030F10083120313AD
:1016C6004008F3003F08F2000A168A1138230A126E
:1016D6008A15710883120313C0007008BF002A0818
:1016E60084000A168A110A200A128A15D03EB3000F
:1016F600FF3003180030B4003308BF070318C00AD0
:101706003408C0070130B3003308AA072A0884004A
:101716000A168A110A200A128A150A128A11132039
:101726000A128A150318982B992B5D2B8312031323
:101736002A0884000A168A110A200A128A152E3AE5
:10174600031DA62BA72BEB2B0130B3003308AA07EA
:10175600C101C201DA2B0A30F0000030F100831219
:1017660003134208F3004108F2000A168A113823CF
:101776000A128A15710883120313C2007008C10089
:101786002A0884000A168A110A200A128A15D03EEF
:10179600B300FF3003180030B4003308C107031844
:1017A600C20A3408C2070130B3003308AA072A0860
:1017B60084000A168A110A200A128A150A128A1148
:1017C60013200A128A150318E92BEA2BAE2BF52BE8
:1017D600C101C201F52B3816F52BC030B300330812
:1017E600B804142C013083120313AA07FF302A070A
:1017F60084000A168A110A200A128A15C300B30049
:10180600B4013408003A0319092C612D3308003A53
:101816000319732D6C3A0319EE2B193A0319F02BA1
:10182600612D381E172C182C2B2C39088400831395
:101836000008BA00840A0008BB00840A0008BC003D
:10184600840A0008BD000430B3003308B9073D2CF4
:101856003908840083130008B300840A0008B40022
:101866003308BA003408BB00BC01BD010230B30026
:101876003308B90741084204031D422C432C512C5E
:101886003D083C043B043A04031D4A2C4B2C512CC6
:101896000130C1070318C20A0030C207C301C30AD8
:1018A6004308B30001300310B30DFF3E031D562C51
:1018B6000310330D013E84000A168A110A200A120B
:1018C6008A15B4000A168A110A200A128A15B5006A
:1018D6000A168A110A200A128A15B6000A168A11F1
:1018E6000A200A128A15B70037083D02031D852C07
:1018F60036083C02031D852C35083B02031D852C4A
:1019060034083A020318882C892C8A2C942C01302E
:10191600B3003308C3070A304306031D932C942CE7
:10192600532C4208803A803C031D9B2C41084302FD
:1019360003189E2C9F2CA62C831203134108B30078
:101946003308C300BE2C831203134208803AB30047
:1019560080303302031DB12C430841020318B42C16
:10196600B52CBE2C831203134308B300B40133080D
:10197600C1003408C200831203134008803A803C39
:10198600031DC72C3F0843020318CA2CCB2CD72CA7
:10199600831203134308B300B4013308BF023408AB
:1019A600031CC003C002DB2C83120313BF01C0015A
:1019B6003F0840040319E02CE12C532D2030B300DE
:1019C6003E0884003308831380000130B3003308D7
:1019D600BE07FF30BF070318C00AFF30C0073F0825
:1019E6004004031DF72CF82CE12C532D0030A300E6
:1019F6000030A2000030A1000A30A0004108B30068
:101A060001300310B30DFF3E031D042D0310330DEB
:101A1600013E84000A168A110A200A128A15F0006D
:101A26000A168A110A200A128A15F1000A168A1164
:101A36000A200A128A15F2000A168A110A200A12C8
:101A46008A15F3003D08F7003C08F6003B08F50050
:101A56003A08F4000A168A1130240A128A15730805
:101A660083120313A7007208A6007108A500700868
:101A7600A4000A168A11DA230A128A15831203139E
:101A86002008303EB4003408C3004308B3003E08C3
:101A960084003308831380000130B3003308BE0787
:101AA600FF30C1070318C20AFF30C207410A031DEF
:101AB600602D420A031D602D612DF92C0130AA0705
:101AC600FF302A0784000A168A110A200A128A158C
:101AD600B3003308C3004308031D722D732D342B46
:101AE6003E088400831380010800831203133D0817
:101AF6008039C2004208CA003D08C2004207C3003E
:101B06004308CC00BC1F882D892D8A2D4C144C0807
:101B160003198E2D8F2D9F2D4C0A031D932D942D69
:101B26009C2D0030BD000030BC000030BB000030F2
:101B3600BA00BC17BD01A72D0030BD000030BC00A7
:101B46000030BB000030BA0041088039C2004208AC
:101B5600CB004B084A060319B12DB22DB32D4A17F7
:101B66004108C2004207C3004308CB00C01FBC2D7A
:101B7600BD2DBE2D4B144B080319C22DC32DD32DDD
:101B86004B0A031DC72DC82DD02D0030C1000030D3
:101B9600C0000030BF000030BE00C017C101DB2D01
:101BA6000030C1000030C0000030BF000030BE0071
:101BB6004C084B020318E02DE12D252E4A1FE42D7B
:101BC600E52DE92D8030C2004208CA064C08C20045
:101BD6004208CD004B08C2004208CC004D08C200A6
:101BE6004208CB003A08C2004208CD003E08C200B7
:101BF6004208BA004D08C2004208BE003B08C200B7
:101C06004208CD003F08C2004208BB004D08C20092
:101C16004208BF003C08C2004208CD004008C2008E
:101C26004208BC004D08C2004208C0003D08C20080
:101C36004208CD004108C2004208BD004D08C2005E
:101C46004208C100CD014B08C200C3014308C500CC
:101C56004C084202C400031CC5034508803AFF0035
:101C660080307F02031D392E1A304402031C3C2E9D
:101C76003D2E7A2E831203133D083C043B043A049E
:101C8600031D462E482E0130492E0030C200420860
:101C9600CD000030BD000030BC000030BB0000307D
:101CA600BA004B08C2004208CC00822E4D1C5C2EA6
:101CB6005D2E662E4D08C2000310420C0138C3008B
:101CC6004308CD00682E0310CD0C3A1C6B2E6C2EEB
:101CD6006D2ECD170130C2003D0DBD0CBC0CBB0CEA
:101CE600BA0CC20B6F2E0130C2004208CC07831219
:101CF60003134B084C02031C812E822E592E4A1BBD
:101D0600852E862ED12E4C08031D8A2E8B2E942EC0
:101D16000030BD000030BC000030BB000030BA000F
:101D2600FF2F3E08BA073F0803110318013E0319A7
:101D36009D2EBB07400803110318013E0319A42E6C
:101D4600BC07410803110318013E0319AB2EBD075A
:101D56003D1CAE2EAF2E852F4D1CB22EB32EBC2EA3
:101D66004D08C2000310420C0138C3004308CD00E1
:101D7600BE2E0310CD0C3A1CC12EC22EC32ECD177B
:101D86000130C2003D0DBD0CBC0CBB0CBA0CC20B25
:101D9600C52E0130C2004208CC07852F3D08803A87
:101DA600FF004108803A7F02031DE32E40083C02F3
:101DB600031DE32E3F083B02031DE32E3E083A02B5
:101DC6000318E62EE72E3F2FFF30C200FF30C30078
:101DD600FF30C400FF30C5003E08C6003F08C700FC
:101DE6004008C8004108C9003A08C6023B08031C5F
:101DF6003B0FFE2EFF2EC7023C08031C3C0F042F90
:101E0600052FC8023D08031C3D0F0A2F0B2FC902E0
:101E16004608C20747080318470F122F132FC30798
:101E260048080318480F182F192FC4074908031824
:101E3600490AC5074508BD004408BC004308BB0065
:101E46004208BA008030C2004208CA06CD09CD0A4F
:101E56004D08031D2F2F302F4D2F0130BA070030AC
:101E660003180130BB07003003180130BC070030EF
:101E760003180130BD074D2F3E08BA023F08031C68
:101E86003F0FBB024008031C400FBC024108031C65
:101E9600410FBD023D083C043B043A04031D542F88
:101EA600552F812F4D08031D592F5A2F812F003092
:101EB600BD000030BC000030BB000030BA00FF2F70
:101EC6000130C2000310BA0DBB0DBC0DBD0DC20B17
:101ED600652FCD1F6F2F702F712F3A144D1C742F45
:101EE600752F782F0314CD0D7A2F0310CD0D4C08C6
:101EF60003197E2F7F2F812F0130CC02BC1F842F28
:101F0600852F632FCB01CD1F892F8A2F982F4D0840
:101F16007F3903198F2F902F932FCB01CB0A982F40
:101F26003A1C962F972F982F902F4B0803199C2F0A
:101F36009D2FD12F0130BA07003003180130BB079F
:101F4600003003180130BC07003003180130BD070C
:101F56003D1CAE2FAF2FD12F3A08C2003B08C3005D
:101F66003C08C4003D08C5000130C600450DC50C3F
:101F7600C40CC30CC20CC60BB92F4508BD004408DF
:101F8600BC004308BB004208BA004C0A0319CC2F18
:101F9600CD2FD12F0130C2004208CC074C0A0319BD
:101FA600D52FD62FDB2F4C08031DDA2FDB2FE92F79
:101FB6000030BD000030BC000030BB000030BA006D
:101FC6004C08031DE72FE82FE92FCA014C1CEC2F04
:101FD600ED2FEF2FBC17F32F7F30C2004208BC0550
:101FE6004C08C2000310420CC3004308BD00CA1FC0
:101FF600FD2FFE2FFF2FBD170800FF1B0A28831396
:102006007F1883170008840A0319FF0A0800103096
:102016008A000408840A820700340134003400343C
:1020260000340A340034003400346434003400349C
:102036000034E834033400340034103427340034D8
:102046000034A034863401340034403442340F3432
:10205600003480349634983400340034E134F53456
:1020660005340034CA349A343B3425346C34753420
:102076002E34253436342E3436346C3475340034EC
:0420860020340034CE
:10253C0064008001840A04060319003404069F2AEF
:10254C000A168A11F7220A168A118316031311141C
:10255C0008000A168A11F7220A168A118316031329
:10256C00111508000A168A11F7220A168A11831609
:10257C000313911408008316031391121116111AE8
:10258C00C82AC92AC52A08008316031391161116E6
:10259C00111AD12AD22ACE2A0800730872047104A7
:1025AC0070040319DA2ADB2ADD2A8030F3060800CE
:1025BC00F00083160313981CE42AE52ADF2A70081E
:1025CC00831203139900080028308312031394001C
:1025DC008316031391019401093093008715071694
:1025EC000800831603131419FC2AFD2AF72A110874
:1025FC001F39031D022B032BF72A0800F0000A16C3
:10260C008A11F7220A168A11700883120313930099
:10261C008C1D112B122B0E2B8C1108008030831269
:10262C000313D1065508BD005408BC005308BB0069
:10263C005208BA005108C1005008C0004F08BF0032
:10264C004E08BE000A128A1578250A168A118312C2
:10265C0003133D08D1003C08D0003B08CF003A08DA
:10266C00CE000800F401F501701C3D2B3E2B442BD1
:10267C007208F4070318F50A7308F5070130031004
:10268C00F20DF30DFF3E031D452B01300310F10C31
:10269C00F00CFF3E031D4C2B70087104031D572BCF
:1026AC00582B3A2B7508F1007408F0000800F10063
:1026BC000A168A11F7220A168A118316031391152A
:1026CC00141C692B6A2B662B831203131308F0005E
:1026DC007008F2007108031D742B752B7B2B0A16E6
:1026EC008A11C1220A168A11802B0A168A11CA2253
:1026FC000A168A11831203138C1D852B862B802BB3
:10270C008C1172080800F701F801F701F801B02BE1
:10271C0077087107F5007208F4000318F40AF71F24
:10272C00982BF4037408F600760883120313FF0049
:10273C00750884000A168A1100200A168A110A16D6
:10274C008A11DE220A168A110130F7070318F80ADB
:10275C000030F8077808803AF40080307402031DCA
:10276C00B92B730877020318BC2BBD2BD92B770818
:10277C007107F5007208F4000318F40AF71FC72B51
:10278C00F4037408F600760883120313FF0075082F
:10279C0084000A168A1100200A168A11003A031DB9
:1027AC00D82BD92B8E2B0800831203132308220459
:1027BC00210420040319E32BE42B272CA901A90ADB
:1027CC00F42B0130A8000310A00DA10DA20DA30D38
:1027DC00A80BE92B0130A8002808A907A31FF72B89
:1027EC00F82BE72B23082702031D062C22082602B0
:1027FC00031D062C21082502031D062C200824028B
:10280C00031C092C0A2C182C2008A4022108031CD8
:10281C00210FA5022208031C220FA6022308031C69
:10282C00230FA70201300310A30CA20CA10CA00CC7
:10283C00FF3E031D192C0130A902031D262C272C49
:10284C00F82B2708A3002608A2002508A1002408BD
:10285C00A00008000030FC000030FB000030FA0043
:10286C000030F900730872047104700403193F2CD2
:10287C00402C8D2CFD01FD0A502C0130F80003106A
:10288C00F00DF10DF20DF30DF80B452C0130F800A5
:10289C007808FD07F31F532C542C432C0130F800FF
:1028AC000310F90DFA0DFB0DFC0DF80B562C7308EB
:1028BC007702031D6B2C72087602031D6B2C7108BA
:1028CC007502031D6B2C70087402031C6E2C6F2C8C
:1028DC007E2C7008F4027108031C710FF50272084B
:1028EC00031C720FF6027308031C730FF7027914A2
:1028FC0001300310F30CF20CF10CF00CFF3E031D35
:10290C007F2C0130FD02031D8C2C8D2C542C7C084B
:10291C00F3007B08F2007A08F1007908F000080057
:10292C00831203132408031D9C2C9D2CCA2C2008F5
:10293C00A5002108A6002208A7002308A80006303D
:10294C000310A50DA60DA70DA80DFF3E031DA62C6B
:10295C002808F3002708F2002608F1002508F000EB
:10296C000030F7003D30F6000930F5000030F4007F
:10297C000A168A1130240A168A117008FF3E831633
:10298C00031399001811F62C2008A5002108A600A5
:10299C002208A7002308A80004300310A50DA60DDB
:1029AC00A70DA80DFF3E031DD32C2808F300270804
:1029BC00F2002608F1002508F0000030F7003D3049
:1029CC00F6000930F5000030F4000A168A113024A4
:1029DC000A168A117008FF3E831603139900181506
:1029EC001813981618128312031398171813181625
:1029FC001811981083160313871707130800031078
:102A0C00831203133C0D3D0DBE003E08C400440868
:102A1C00031D112D122D1B2D0030BD000030BC00EC
:102A2C000030BB000030BA00802D3A08BE003B08D5
:102A3C00BF003C08C0003D08C1001F300310C10C92
:102A4C00C00CBF0CBE0CFF3E031D242D3E08C20063
:102A5C004208C300BC17FF30BA05FF30BB05FF307E
:102A6C00BC050030BD059630C402C41F3E2D3F2D61
:102A7C00592D4408803A973E0318452D462D472D75
:102A8C00122D01300310BD0CBC0CBB0CBA0CFF3E5C
:102A9C00031D482D0130BE003E08C407031D572DF1
:102AAC00582D472D702D20304402031C5E2D5F2DB8
:102ABC006B2D122D0130BE000310BA0DBB0DBC0DD9
:102ACC00BD0DBE0B622D0130C4024408031D6F2DD9
:102ADC00702D602D43080319742D752D802DBA09A6
:102AEC00BB09BC09BD09BA0A0319BB0A0319BC0A04
:102AFC000319BD0A080000307005F800003071059C
:102B0C00F90080307205FA007F307305FB007B08FA
:102B1C007A0479047804031D942D952D9D2D003095
:102B2C00F3000030F2000030F1000030F000003013
:102B3C007405F80000307505F90080307605FA0050
:102B4C007F307705FB007B087A0479047804031D39
:102B5C00B02DB12DB92D0030F7000030F60000304B
:102B6C00F5000030F400F31FBC2DBD2DE12D00301D
:102B7C00F8000030F9000030FA008030FB007008DB
:102B8C00F8027108031C710FCC2DCD2DF9027208BF
:102B9C00031C720FD22DD32DFA027308031C730F72
:102BAC00D82DD92DFB027B08F3007A08F2007908A6
:102BBC00F1007808F000F71FE42DE52D092E003008
:102BCC00F8000030F9000030FA008030FB00740887
:102BDC00F8027508031C750FF42DF52DF902760813
:102BEC00031C760FFA2DFB2DFA027708031C770FC6
:102BFC00002E012EFB027B08F7007A08F6007908FC
:102C0C00F5007808F4008030F3068030F70677087A
:102C1C007302031D1B2E76087202031D1B2E7508F2
:102C2C007102031D1B2E7408700203181E2E1F2E1A
:102C3C00212E0310222E03140800831203132708DD
:102C4C008039A8002808B1002708A8002807A90087
:102C5C002908B800A61F332E342E352E3814380808
:102C6C000319392E3A2E4A2E380A031D3E2E3F2EBA
:102C7C00472E0030A7000030A6000030A500003021
:102C8C00A400A617A701522E0030A7000030A60002
:102C9C000030A5000030A40023088039A8002808C3
:102CAC00B1062308A8002807A9002908B900A21F0B
:102CBC00602E612E622E391439080319662E672E88
:102CCC00772E390A031D6B2E6C2E742E0030A30048
:102CDC000030A2000030A1000030A000A217A30118
:102CEC007F2E0030A3000030A2000030A100003085
:102CFC00A0002308220421042004031D862E872E05
:102D0C00A02E0030A7000030A6000030A500003037
:102D1C00A4008030A6047F30A7043108A80028083E
:102D2C00A7042708A3002608A2002508A100240850
:102D3C00A000FF2F3808031DA42EA52EAE2E0030A8
:102D4C00A3000030A2000030A1000030A000FF2F33
:102D5C003808A800A9012908AB0039082802AA00E4
:102D6C00031CAB032A087F3EB2002B080318013E5C
:102D7C00003EB3002708B0002608AF002508AE00BF
:102D8C002408AD000030A7000030A6000030A500DC
:102D9C000030A4000030B7000030B6000030B500A1
:102DAC000030B400B901242F39080319DE2EDF2EB0
:102DBC00FF2E0130A8000310AD0DAE0DAF0DB00D00
:102DCC00A80BE12E0130A8000310A40DA50DA60D33
:102DDC00A70DA80BEA2EB71FF42EF52EF62E2414F1
:102DEC000130A8000310B40DB50DB60DB70DA80B2E
:102DFC00F82E23083002031D0D2F22082F02031D6D
:102E0C000D2F21082E02031D0D2F20082D02031C4F
:102E1C00102F112F202F37172008AD022108031C6B
:102E2C00210FAE022208031C220FAF022308031C41
:102E3C00230FB0020130A8002808B9071A30390254
:102E4C00031C292F2A2FDA2E30082F042E042D04D0
:102E5C000319312F322F512F3414512F0130A80068
:102E6C000310A40DA50DA60DA70DA80B362FB71F8B
:102E7C00402F412F422F24140130A8000310B40D11
:102E8C00B50DB60DB70DA80B442FFF30B2070318C4
:102E9C00B30AFF30B307A61F542F552F342FB90197
:102EAC00B71F592F5A2F762FFF303405A800FF304B
:102EBC003505A900FF303605AA007F303705AB0079
:102ECC002B082A042904280403196D2F6E2F712F47
:102EDC00B901B90A762F241C742F752F762F6E2FFB
:102EEC00390803197A2F7B2FAC2F0130A40700303F
:102EFC0003180130A507003003180130A607003075
:102F0C0003180130A707271C8C2F8D2FAC2F2408FA
:102F1C00A8002508A9002608AA002708AB00013044
:102F2C00AC002B0DAB0CAA0CA90CA80CAC0B972F5E
:102F3C002B08A7002A08A6002908A5002808A40029
:102F4C000130B2070318B30A0030B3073308803AD4
:102F5C00FF0080307F02031DB52FFF303202031CAF
:102F6C00B82FB92FC72FFF3083120313B2000030D4
:102F7C00B3000030A7000030A6000030A5000030E0
:102F8C00A400831203133308803AFF0080307F02C1
:102F9C00031DD22F013032020318D52FD62FE32F69
:102FAC0083120313B201B3010030A7000030A60056
:102FBC000030A5000030A400B101831203133208C5
:102FCC00A8002808B800381CEC2FED2FEF2FA617FF
:102FDC00F32F7F30A8002808A6053808A800031096
:102FEC00280CA9002908A7003108A8002808A70464
:042FFC00972E080004
:04400E00D420FF3F7C
:00000001FF
