:020000040000FA
:100000000A128A11FC2F00308A000408840A820731
:1000100000344434693472343A3420342534623440
:020020000034AA
:100942000A128A11C9240A128A1183160313111476
:1009520008000A128A11C9240A128A118316031383
:10096200111508000A128A11C9240A128A11700884
:100972008312031393000800F00083160313981CDC
:10098200C32CC42CBE2C70088312031399000800D8
:10099200831603131419CE2CCF2CC92C11081F391E
:1009A200031DD42CD52CC92C0800F6007130F3009D
:1009B2007308F400E72C7508F300760884007308C6
:1009C200831380000130F3007308F6070130F0074B
:1009D200FF30700784000A128A1103200A128A115A
:1009E200F3007308F5007508031DF82CF92CDC2CB4
:1009F200760884008313800108000A128A11C92430
:100A02000A128A118316031391150A128A11C92434
:100A12000A128A11831203131308F200F3017208F7
:100A2200F4007308F5000A128A11C9240A128A1105
:100A320070037104031D1E2D1F2D232D8316031316
:100A42009116262D83160313911211167508F100C3
:100A52007408F0000800F300F401F501F401F50157
:100A6200432D74087307F2007208840000080A120A
:100A72008A11BD240A128A110130F4070318F50AFB
:100A82000030F5077508803AF20080307202031DCB
:100A92004C2D7108740203184F2D502D5B2D7408D4
:100AA2007307F2007208840083130008031D5A2D95
:100AB2005B2D322D0800831203132008A4002108A5
:100AC200A5002208A6002308A70002300310A40DE7
:100AD200A50DA60DA70DFF3E031D672D2708F300E8
:100AE2002608F2002508F1002408F0000030F70083
:100AF2003D30F6000930F5000030F4000A128A1188
:100B020094250A128A117008FF3E8316031393007C
:100B12009417283083120313940083160313910150
:100B22008715071608000030FC000030FB0000307B
:100B3200FA000030F900730872047104700403199A
:100B4200A32DA42DF12DFD01FD0AB42D0130F800D5
:100B52000310F00DF10DF20DF30DF80BA92D01307C
:100B6200F8007808FD07F31FB72DB82DA72D013027
:100B7200F8000310F90DFA0DFB0DFC0DF80BBA2D60
:100B820073087702031DCF2D72087602031DCF2D45
:100B920071087502031DCF2D70087402031CD22D3B
:100BA200D32DE22D7008F4027108031C710FF502B7
:100BB2007208031C720FF6027308031C730FF7020C
:100BC200791401300310F30CF20CF10CF00CFF3E1F
:100BD200031DE32D0130FD02031DF02DF12DB82D73
:100BE2007C08F3007B08F2007A08F1007908F00033
:100BF2000800831203132408031D002E012E2E2E3B
:100C02002008A5002108A6002208A7002308A800A2
:100C120006300310A50DA60DA70DA80DFF3E031D5E
:100C22000A2E2808F3002708F2002608F1002508FA
:100C3200F0000030F7003D30F6000930F5000030DA
:100C4200F4000A128A1194250A128A117008FF3ED2
:100C520083160313990018115A2E2008A5002108A3
:100C6200A6002208A7002308A80004300310A50D3F
:100C7200A60DA70DA80DFF3E031D372E2808F30071
:100C82002708F2002608F1002508F0000030F700DE
:100C92003D30F6000930F5000030F4000A128A11E6
:100CA20094250A128A117008FF3E831603139900D5
:100CB200181518139816181283120313981718137D
:100CC20018161811981083160313871707130800B4
:100CD20083160317880183160313850183120313F6
:100CE20085010030A3000130A2008630A100A030AF
:100CF200A0000A128A115C250A128A11003083129E
:100D02000313A3000030A2002530A1008030A00010
:100D1200A401A40A0A128A11FA250A128A110A12D5
:100D22008A1106270A128A118312031385090A12ED
:100D32008A11A1240A128A11D130F0000030F10088
:100D42000A128A11B3240A128A117530F000003097
:100D5200F1000A128A11B3240A128A110A128A11A4
:100D6200AA240A128A110A128A11A1240A128A11C9
:100D7200D030F0000030F1000A128A11B3240A12B6
:100D82008A110130F0000030F1000A128A11FE24AB
:100D92000A128A11710883120313BB007008BA0089
:100DA2000A128A11AA240A128A1101308312031329
:100DB200A9002908F0003B08F2003A08F1002B30A4
:100DC2000A128A11D6240A128A110F3083120313CF
:100DD200A9002908F1002B300A128A112C250A12C7
:100DE2008A110A300A128A11BD240A128A1182302B
:100DF20083120313AA00DD30A900A90BFE2EAA0B51
:100E0200FE2E952E0A128A1100280A128A11A12496
:100E12000A128A116830F0000030F1000A128A11B9
:100E2200B3240A128A110030F000F1000A128A116A
:100E3200B3240A128A110A128A11AA240A128A11E6
:100E42000A128A11A1240A128A116830F0000030B5
:100E5200F1000A128A11B3240A128A111930F00021
:100E62000030F1000A128A11B3240A128A110830E2
:100E7200F0000030F1000A128A11B3240A128A111A
:100E82000A128A11AA240A128A110A128A11A124A8
:100E92000A128A116830F0000030F1000A128A1139
:100EA200B3240A128A111A30F0000030F1000A123B
:100EB2008A11B3240A128A110030F000F1000A12DA
:100EC2008A11B3240A128A110A128A11AA240A1256
:100ED2008A110A128A11A1240A128A116830F000BA
:100EE2000030F1000A128A11B3240A128A111B304F
:100EF200F0000030F1000A128A11B3240A128A119A
:100F02000030F000F1000A128A11B3240A128A1189
:100F12000A128A11AA240A128A110A128A11A12417
:100F22000A128A116830F0000030F1000A128A11A8
:100F3200B3240A128A111C30F0000030F1000A12A8
:100F42008A11B3240A128A110030F000F1000A1249
:100F52008A11B3240A128A110A128A11AA240A12C5
:100F62008A110A128A11A1240A128A116830F00029
:100F72000030F1000A128A11B3240A128A116B306E
:100F8200F0000030F1000A128A11B3240A128A1109
:100F92000130F0000030F1000A128A11B3240A1263
:100FA2008A110A128A11AA240A128A110A128A11B1
:100FB200A1240A128A116830F0000030F1000A12EE
:100FC2008A11B3240A128A116C30F0000030F10049
:100FD2000A128A11B3240A128A110030F000F100B9
:100FE2000A128A11B3240A128A110A128A11AA2435
:0E0FF2000A128A11080083010A128A11692E60
:04400E00D420FF3F7C
:00000001FF
